{
	"contract/memecoin.sol": {
		"memefactory": {
			"abi": [
				{
					"inputs": [],
					"name": "counterId",
					"outputs": [
						{
							"internalType": "uint256",
							"name": "",
							"type": "uint256"
						}
					],
					"stateMutability": "view",
					"type": "function"
				},
				{
					"inputs": [
						{
							"internalType": "string",
							"name": "name",
							"type": "string"
						},
						{
							"internalType": "string",
							"name": "symbol",
							"type": "string"
						},
						{
							"internalType": "uint256",
							"name": "totalsupply",
							"type": "uint256"
						},
						{
							"internalType": "address",
							"name": "owner",
							"type": "address"
						}
					],
					"name": "createMemecoin",
					"outputs": [],
					"stateMutability": "nonpayable",
					"type": "function"
				},
				{
					"inputs": [
						{
							"internalType": "uint256",
							"name": "",
							"type": "uint256"
						}
					],
					"name": "memeIdentifcation",
					"outputs": [
						{
							"internalType": "address",
							"name": "memeAdrress",
							"type": "address"
						},
						{
							"internalType": "string",
							"name": "name",
							"type": "string"
						}
					],
					"stateMutability": "view",
					"type": "function"
				}
			],
			"devdoc": {
				"kind": "dev",
				"methods": {},
				"version": 1
			},
			"evm": {
				"assembly": "    /* \"contract/memecoin.sol\":952:1522  contract memefactory{... */\n  mstore(0x40, 0x80)\n    /* \"contract/memecoin.sol\":1087:1088  1 */\n  0x01\n    /* \"contract/memecoin.sol\":1065:1088  uint public counterId=1 */\n  0x00\n  sstore\n    /* \"contract/memecoin.sol\":952:1522  contract memefactory{... */\n  callvalue\n  dup1\n  iszero\n  tag_1\n  jumpi\n  0x00\n  dup1\n  revert\ntag_1:\n  pop\n  dataSize(sub_0)\n  dup1\n  dataOffset(sub_0)\n  0x00\n  codecopy\n  0x00\n  return\nstop\n\nsub_0: assembly {\n        /* \"contract/memecoin.sol\":952:1522  contract memefactory{... */\n      mstore(0x40, 0x80)\n      callvalue\n      dup1\n      iszero\n      tag_1\n      jumpi\n      0x00\n      dup1\n      revert\n    tag_1:\n      pop\n      jumpi(tag_2, lt(calldatasize, 0x04))\n      shr(0xe0, calldataload(0x00))\n      dup1\n      0x169aaad6\n      eq\n      tag_3\n      jumpi\n      dup1\n      0xd0a5e51e\n      eq\n      tag_4\n      jumpi\n      dup1\n      0xf023664b\n      eq\n      tag_5\n      jumpi\n    tag_2:\n      0x00\n      dup1\n      revert\n        /* \"contract/memecoin.sol\":1162:1519  function createMemecoin(string memory name,string memory symbol,uint totalsupply,address owner)public{... */\n    tag_3:\n      tag_6\n      0x04\n      dup1\n      calldatasize\n      sub\n      dup2\n      add\n      swap1\n      tag_7\n      swap2\n      swap1\n      tag_8\n      jump\t// in\n    tag_7:\n      tag_9\n      jump\t// in\n    tag_6:\n      stop\n        /* \"contract/memecoin.sol\":1065:1088  uint public counterId=1 */\n    tag_4:\n      tag_10\n      tag_11\n      jump\t// in\n    tag_10:\n      mload(0x40)\n      tag_12\n      swap2\n      swap1\n      tag_13\n      jump\t// in\n    tag_12:\n      mload(0x40)\n      dup1\n      swap2\n      sub\n      swap1\n      return\n        /* \"contract/memecoin.sol\":1095:1141  mapping (uint=>memeId)public memeIdentifcation */\n    tag_5:\n      tag_14\n      0x04\n      dup1\n      calldatasize\n      sub\n      dup2\n      add\n      swap1\n      tag_15\n      swap2\n      swap1\n      tag_16\n      jump\t// in\n    tag_15:\n      tag_17\n      jump\t// in\n    tag_14:\n      mload(0x40)\n      tag_18\n      swap3\n      swap2\n      swap1\n      tag_19\n      jump\t// in\n    tag_18:\n      mload(0x40)\n      dup1\n      swap2\n      sub\n      swap1\n      return\n        /* \"contract/memecoin.sol\":1162:1519  function createMemecoin(string memory name,string memory symbol,uint totalsupply,address owner)public{... */\n    tag_9:\n        /* \"contract/memecoin.sol\":1276:1298  memeId storage _memeId */\n      0x00\n        /* \"contract/memecoin.sol\":1302:1319  memeIdentifcation */\n      0x01\n        /* \"contract/memecoin.sol\":1302:1330  memeIdentifcation[counterId] */\n      0x00\n        /* \"contract/memecoin.sol\":1320:1329  counterId */\n      dup1\n      sload\n        /* \"contract/memecoin.sol\":1302:1330  memeIdentifcation[counterId] */\n      dup2\n      mstore\n      0x20\n      add\n      swap1\n      dup2\n      mstore\n      0x20\n      add\n      0x00\n      keccak256\n        /* \"contract/memecoin.sol\":1276:1330  memeId storage _memeId =  memeIdentifcation[counterId] */\n      swap1\n      pop\n        /* \"contract/memecoin.sol\":1343:1361  memecoin _memecoin */\n      0x00\n        /* \"contract/memecoin.sol\":1376:1380  name */\n      dup6\n        /* \"contract/memecoin.sol\":1381:1387  symbol */\n      dup6\n        /* \"contract/memecoin.sol\":1388:1399  totalsupply */\n      dup6\n        /* \"contract/memecoin.sol\":1400:1405  owner */\n      dup6\n        /* \"contract/memecoin.sol\":1363:1406  new memecoin(name,symbol,totalsupply,owner) */\n      mload(0x40)\n      tag_21\n      swap1\n      tag_22\n      jump\t// in\n    tag_21:\n      tag_23\n      swap5\n      swap4\n      swap3\n      swap2\n      swap1\n      tag_24\n      jump\t// in\n    tag_23:\n      mload(0x40)\n      dup1\n      swap2\n      sub\n      swap1\n      0x00\n      create\n      dup1\n      iszero\n      dup1\n      iszero\n      tag_25\n      jumpi\n      returndatasize\n      0x00\n      dup1\n      returndatacopy\n      revert(0x00, returndatasize)\n    tag_25:\n      pop\n        /* \"contract/memecoin.sol\":1343:1406  memecoin _memecoin =new memecoin(name,symbol,totalsupply,owner) */\n      swap1\n      pop\n        /* \"contract/memecoin.sol\":1447:1456  _memecoin */\n      dup1\n        /* \"contract/memecoin.sol\":1419:1426  _memeId */\n      dup3\n        /* \"contract/memecoin.sol\":1419:1438  _memeId.memeAdrress */\n      0x00\n      add\n      0x00\n        /* \"contract/memecoin.sol\":1419:1457  _memeId.memeAdrress=address(_memecoin) */\n      0x0100\n      exp\n      dup2\n      sload\n      dup2\n      0xffffffffffffffffffffffffffffffffffffffff\n      mul\n      not\n      and\n      swap1\n      dup4\n      0xffffffffffffffffffffffffffffffffffffffff\n      and\n      mul\n      or\n      swap1\n      sstore\n      pop\n        /* \"contract/memecoin.sol\":1483:1487  name */\n      dup6\n        /* \"contract/memecoin.sol\":1470:1477  _memeId */\n      dup3\n        /* \"contract/memecoin.sol\":1470:1482  _memeId.name */\n      0x01\n      add\n        /* \"contract/memecoin.sol\":1470:1487  _memeId.name=name */\n      swap1\n      dup2\n      tag_26\n      swap2\n      swap1\n      tag_27\n      jump\t// in\n    tag_26:\n      pop\n        /* \"contract/memecoin.sol\":1500:1509  counterId */\n      0x00\n      dup1\n        /* \"contract/memecoin.sol\":1500:1511  counterId++ */\n      dup2\n      sload\n      dup1\n      swap3\n      swap2\n      swap1\n      tag_28\n      swap1\n      tag_29\n      jump\t// in\n    tag_28:\n      swap2\n      swap1\n      pop\n      sstore\n      pop\n        /* \"contract/memecoin.sol\":1263:1519  {... */\n      pop\n      pop\n        /* \"contract/memecoin.sol\":1162:1519  function createMemecoin(string memory name,string memory symbol,uint totalsupply,address owner)public{... */\n      pop\n      pop\n      pop\n      pop\n      jump\t// out\n        /* \"contract/memecoin.sol\":1065:1088  uint public counterId=1 */\n    tag_11:\n      sload(0x00)\n      dup2\n      jump\t// out\n        /* \"contract/memecoin.sol\":1095:1141  mapping (uint=>memeId)public memeIdentifcation */\n    tag_17:\n      mstore(0x20, 0x01)\n      dup1\n      0x00\n      mstore\n      keccak256(0x00, 0x40)\n      0x00\n      swap2\n      pop\n      swap1\n      pop\n      dup1\n      0x00\n      add\n      0x00\n      swap1\n      sload\n      swap1\n      0x0100\n      exp\n      swap1\n      div\n      0xffffffffffffffffffffffffffffffffffffffff\n      and\n      swap1\n      dup1\n      0x01\n      add\n      dup1\n      sload\n      tag_30\n      swap1\n      tag_31\n      jump\t// in\n    tag_30:\n      dup1\n      0x1f\n      add\n      0x20\n      dup1\n      swap2\n      div\n      mul\n      0x20\n      add\n      mload(0x40)\n      swap1\n      dup2\n      add\n      0x40\n      mstore\n      dup1\n      swap3\n      swap2\n      swap1\n      dup2\n      dup2\n      mstore\n      0x20\n      add\n      dup3\n      dup1\n      sload\n      tag_32\n      swap1\n      tag_31\n      jump\t// in\n    tag_32:\n      dup1\n      iszero\n      tag_33\n      jumpi\n      dup1\n      0x1f\n      lt\n      tag_34\n      jumpi\n      0x0100\n      dup1\n      dup4\n      sload\n      div\n      mul\n      dup4\n      mstore\n      swap2\n      0x20\n      add\n      swap2\n      jump(tag_33)\n    tag_34:\n      dup3\n      add\n      swap2\n      swap1\n      0x00\n      mstore\n      keccak256(0x00, 0x20)\n      swap1\n    tag_35:\n      dup2\n      sload\n      dup2\n      mstore\n      swap1\n      0x01\n      add\n      swap1\n      0x20\n      add\n      dup1\n      dup4\n      gt\n      tag_35\n      jumpi\n      dup3\n      swap1\n      sub\n      0x1f\n      and\n      dup3\n      add\n      swap2\n    tag_33:\n      pop\n      pop\n      pop\n      pop\n      pop\n      swap1\n      pop\n      dup3\n      jump\t// out\n    tag_22:\n      dataSize(sub_0)\n      dup1\n      dataOffset(sub_0)\n      dup4\n      codecopy\n      add\n      swap1\n      jump\t// out\n        /* \"#utility.yul\":7:82   */\n    tag_36:\n        /* \"#utility.yul\":40:46   */\n      0x00\n        /* \"#utility.yul\":73:75   */\n      0x40\n        /* \"#utility.yul\":67:76   */\n      mload\n        /* \"#utility.yul\":57:76   */\n      swap1\n      pop\n        /* \"#utility.yul\":7:82   */\n      swap1\n      jump\t// out\n        /* \"#utility.yul\":88:205   */\n    tag_37:\n        /* \"#utility.yul\":197:198   */\n      0x00\n        /* \"#utility.yul\":194:195   */\n      dup1\n        /* \"#utility.yul\":187:199   */\n      revert\n        /* \"#utility.yul\":211:328   */\n    tag_38:\n        /* \"#utility.yul\":320:321   */\n      0x00\n        /* \"#utility.yul\":317:318   */\n      dup1\n        /* \"#utility.yul\":310:322   */\n      revert\n        /* \"#utility.yul\":334:451   */\n    tag_39:\n        /* \"#utility.yul\":443:444   */\n      0x00\n        /* \"#utility.yul\":440:441   */\n      dup1\n        /* \"#utility.yul\":433:445   */\n      revert\n        /* \"#utility.yul\":457:574   */\n    tag_40:\n        /* \"#utility.yul\":566:567   */\n      0x00\n        /* \"#utility.yul\":563:564   */\n      dup1\n        /* \"#utility.yul\":556:568   */\n      revert\n        /* \"#utility.yul\":580:682   */\n    tag_41:\n        /* \"#utility.yul\":621:627   */\n      0x00\n        /* \"#utility.yul\":672:674   */\n      0x1f\n        /* \"#utility.yul\":668:675   */\n      not\n        /* \"#utility.yul\":663:665   */\n      0x1f\n        /* \"#utility.yul\":656:661   */\n      dup4\n        /* \"#utility.yul\":652:666   */\n      add\n        /* \"#utility.yul\":648:676   */\n      and\n        /* \"#utility.yul\":638:676   */\n      swap1\n      pop\n        /* \"#utility.yul\":580:682   */\n      swap2\n      swap1\n      pop\n      jump\t// out\n        /* \"#utility.yul\":688:868   */\n    tag_42:\n        /* \"#utility.yul\":736:813   */\n      0x4e487b7100000000000000000000000000000000000000000000000000000000\n        /* \"#utility.yul\":733:734   */\n      0x00\n        /* \"#utility.yul\":726:814   */\n      mstore\n        /* \"#utility.yul\":833:837   */\n      0x41\n        /* \"#utility.yul\":830:831   */\n      0x04\n        /* \"#utility.yul\":823:838   */\n      mstore\n        /* \"#utility.yul\":857:861   */\n      0x24\n        /* \"#utility.yul\":854:855   */\n      0x00\n        /* \"#utility.yul\":847:862   */\n      revert\n        /* \"#utility.yul\":874:1155   */\n    tag_43:\n        /* \"#utility.yul\":957:984   */\n      tag_88\n        /* \"#utility.yul\":979:983   */\n      dup3\n        /* \"#utility.yul\":957:984   */\n      tag_41\n      jump\t// in\n    tag_88:\n        /* \"#utility.yul\":949:955   */\n      dup2\n        /* \"#utility.yul\":945:985   */\n      add\n        /* \"#utility.yul\":1087:1093   */\n      dup2\n        /* \"#utility.yul\":1075:1085   */\n      dup2\n        /* \"#utility.yul\":1072:1094   */\n      lt\n        /* \"#utility.yul\":1051:1069   */\n      0xffffffffffffffff\n        /* \"#utility.yul\":1039:1049   */\n      dup3\n        /* \"#utility.yul\":1036:1070   */\n      gt\n        /* \"#utility.yul\":1033:1095   */\n      or\n        /* \"#utility.yul\":1030:1118   */\n      iszero\n      tag_89\n      jumpi\n        /* \"#utility.yul\":1098:1116   */\n      tag_90\n      tag_42\n      jump\t// in\n    tag_90:\n        /* \"#utility.yul\":1030:1118   */\n    tag_89:\n        /* \"#utility.yul\":1138:1148   */\n      dup1\n        /* \"#utility.yul\":1134:1136   */\n      0x40\n        /* \"#utility.yul\":1127:1149   */\n      mstore\n        /* \"#utility.yul\":917:1155   */\n      pop\n        /* \"#utility.yul\":874:1155   */\n      pop\n      pop\n      jump\t// out\n        /* \"#utility.yul\":1161:1290   */\n    tag_44:\n        /* \"#utility.yul\":1195:1201   */\n      0x00\n        /* \"#utility.yul\":1222:1242   */\n      tag_92\n      tag_36\n      jump\t// in\n    tag_92:\n        /* \"#utility.yul\":1212:1242   */\n      swap1\n      pop\n        /* \"#utility.yul\":1251:1284   */\n      tag_93\n        /* \"#utility.yul\":1279:1283   */\n      dup3\n        /* \"#utility.yul\":1271:1277   */\n      dup3\n        /* \"#utility.yul\":1251:1284   */\n      tag_43\n      jump\t// in\n    tag_93:\n        /* \"#utility.yul\":1161:1290   */\n      swap2\n      swap1\n      pop\n      jump\t// out\n        /* \"#utility.yul\":1296:1604   */\n    tag_45:\n        /* \"#utility.yul\":1358:1362   */\n      0x00\n        /* \"#utility.yul\":1448:1466   */\n      0xffffffffffffffff\n        /* \"#utility.yul\":1440:1446   */\n      dup3\n        /* \"#utility.yul\":1437:1467   */\n      gt\n        /* \"#utility.yul\":1434:1490   */\n      iszero\n      tag_95\n      jumpi\n        /* \"#utility.yul\":1470:1488   */\n      tag_96\n      tag_42\n      jump\t// in\n    tag_96:\n        /* \"#utility.yul\":1434:1490   */\n    tag_95:\n        /* \"#utility.yul\":1508:1537   */\n      tag_97\n        /* \"#utility.yul\":1530:1536   */\n      dup3\n        /* \"#utility.yul\":1508:1537   */\n      tag_41\n      jump\t// in\n    tag_97:\n        /* \"#utility.yul\":1500:1537   */\n      swap1\n      pop\n        /* \"#utility.yul\":1592:1596   */\n      0x20\n        /* \"#utility.yul\":1586:1590   */\n      dup2\n        /* \"#utility.yul\":1582:1597   */\n      add\n        /* \"#utility.yul\":1574:1597   */\n      swap1\n      pop\n        /* \"#utility.yul\":1296:1604   */\n      swap2\n      swap1\n      pop\n      jump\t// out\n        /* \"#utility.yul\":1610:1756   */\n    tag_46:\n        /* \"#utility.yul\":1707:1713   */\n      dup3\n        /* \"#utility.yul\":1702:1705   */\n      dup2\n        /* \"#utility.yul\":1697:1700   */\n      dup4\n        /* \"#utility.yul\":1684:1714   */\n      calldatacopy\n        /* \"#utility.yul\":1748:1749   */\n      0x00\n        /* \"#utility.yul\":1739:1745   */\n      dup4\n        /* \"#utility.yul\":1734:1737   */\n      dup4\n        /* \"#utility.yul\":1730:1746   */\n      add\n        /* \"#utility.yul\":1723:1750   */\n      mstore\n        /* \"#utility.yul\":1610:1756   */\n      pop\n      pop\n      pop\n      jump\t// out\n        /* \"#utility.yul\":1762:2187   */\n    tag_47:\n        /* \"#utility.yul\":1840:1845   */\n      0x00\n        /* \"#utility.yul\":1865:1931   */\n      tag_100\n        /* \"#utility.yul\":1881:1930   */\n      tag_101\n        /* \"#utility.yul\":1923:1929   */\n      dup5\n        /* \"#utility.yul\":1881:1930   */\n      tag_45\n      jump\t// in\n    tag_101:\n        /* \"#utility.yul\":1865:1931   */\n      tag_44\n      jump\t// in\n    tag_100:\n        /* \"#utility.yul\":1856:1931   */\n      swap1\n      pop\n        /* \"#utility.yul\":1954:1960   */\n      dup3\n        /* \"#utility.yul\":1947:1952   */\n      dup2\n        /* \"#utility.yul\":1940:1961   */\n      mstore\n        /* \"#utility.yul\":1992:1996   */\n      0x20\n        /* \"#utility.yul\":1985:1990   */\n      dup2\n        /* \"#utility.yul\":1981:1997   */\n      add\n        /* \"#utility.yul\":2030:2033   */\n      dup5\n        /* \"#utility.yul\":2021:2027   */\n      dup5\n        /* \"#utility.yul\":2016:2019   */\n      dup5\n        /* \"#utility.yul\":2012:2028   */\n      add\n        /* \"#utility.yul\":2009:2034   */\n      gt\n        /* \"#utility.yul\":2006:2118   */\n      iszero\n      tag_102\n      jumpi\n        /* \"#utility.yul\":2037:2116   */\n      tag_103\n      tag_40\n      jump\t// in\n    tag_103:\n        /* \"#utility.yul\":2006:2118   */\n    tag_102:\n        /* \"#utility.yul\":2127:2181   */\n      tag_104\n        /* \"#utility.yul\":2174:2180   */\n      dup5\n        /* \"#utility.yul\":2169:2172   */\n      dup3\n        /* \"#utility.yul\":2164:2167   */\n      dup6\n        /* \"#utility.yul\":2127:2181   */\n      tag_46\n      jump\t// in\n    tag_104:\n        /* \"#utility.yul\":1846:2187   */\n      pop\n        /* \"#utility.yul\":1762:2187   */\n      swap4\n      swap3\n      pop\n      pop\n      pop\n      jump\t// out\n        /* \"#utility.yul\":2207:2547   */\n    tag_48:\n        /* \"#utility.yul\":2263:2268   */\n      0x00\n        /* \"#utility.yul\":2312:2315   */\n      dup3\n        /* \"#utility.yul\":2305:2309   */\n      0x1f\n        /* \"#utility.yul\":2297:2303   */\n      dup4\n        /* \"#utility.yul\":2293:2310   */\n      add\n        /* \"#utility.yul\":2289:2316   */\n      slt\n        /* \"#utility.yul\":2279:2401   */\n      tag_106\n      jumpi\n        /* \"#utility.yul\":2320:2399   */\n      tag_107\n      tag_39\n      jump\t// in\n    tag_107:\n        /* \"#utility.yul\":2279:2401   */\n    tag_106:\n        /* \"#utility.yul\":2437:2443   */\n      dup2\n        /* \"#utility.yul\":2424:2444   */\n      calldataload\n        /* \"#utility.yul\":2462:2541   */\n      tag_108\n        /* \"#utility.yul\":2537:2540   */\n      dup5\n        /* \"#utility.yul\":2529:2535   */\n      dup3\n        /* \"#utility.yul\":2522:2526   */\n      0x20\n        /* \"#utility.yul\":2514:2520   */\n      dup7\n        /* \"#utility.yul\":2510:2527   */\n      add\n        /* \"#utility.yul\":2462:2541   */\n      tag_47\n      jump\t// in\n    tag_108:\n        /* \"#utility.yul\":2453:2541   */\n      swap2\n      pop\n        /* \"#utility.yul\":2269:2547   */\n      pop\n        /* \"#utility.yul\":2207:2547   */\n      swap3\n      swap2\n      pop\n      pop\n      jump\t// out\n        /* \"#utility.yul\":2553:2630   */\n    tag_49:\n        /* \"#utility.yul\":2590:2597   */\n      0x00\n        /* \"#utility.yul\":2619:2624   */\n      dup2\n        /* \"#utility.yul\":2608:2624   */\n      swap1\n      pop\n        /* \"#utility.yul\":2553:2630   */\n      swap2\n      swap1\n      pop\n      jump\t// out\n        /* \"#utility.yul\":2636:2758   */\n    tag_50:\n        /* \"#utility.yul\":2709:2733   */\n      tag_111\n        /* \"#utility.yul\":2727:2732   */\n      dup2\n        /* \"#utility.yul\":2709:2733   */\n      tag_49\n      jump\t// in\n    tag_111:\n        /* \"#utility.yul\":2702:2707   */\n      dup2\n        /* \"#utility.yul\":2699:2734   */\n      eq\n        /* \"#utility.yul\":2689:2752   */\n      tag_112\n      jumpi\n        /* \"#utility.yul\":2748:2749   */\n      0x00\n        /* \"#utility.yul\":2745:2746   */\n      dup1\n        /* \"#utility.yul\":2738:2750   */\n      revert\n        /* \"#utility.yul\":2689:2752   */\n    tag_112:\n        /* \"#utility.yul\":2636:2758   */\n      pop\n      jump\t// out\n        /* \"#utility.yul\":2764:2903   */\n    tag_51:\n        /* \"#utility.yul\":2810:2815   */\n      0x00\n        /* \"#utility.yul\":2848:2854   */\n      dup2\n        /* \"#utility.yul\":2835:2855   */\n      calldataload\n        /* \"#utility.yul\":2826:2855   */\n      swap1\n      pop\n        /* \"#utility.yul\":2864:2897   */\n      tag_114\n        /* \"#utility.yul\":2891:2896   */\n      dup2\n        /* \"#utility.yul\":2864:2897   */\n      tag_50\n      jump\t// in\n    tag_114:\n        /* \"#utility.yul\":2764:2903   */\n      swap3\n      swap2\n      pop\n      pop\n      jump\t// out\n        /* \"#utility.yul\":2909:3035   */\n    tag_52:\n        /* \"#utility.yul\":2946:2953   */\n      0x00\n        /* \"#utility.yul\":2986:3028   */\n      0xffffffffffffffffffffffffffffffffffffffff\n        /* \"#utility.yul\":2979:2984   */\n      dup3\n        /* \"#utility.yul\":2975:3029   */\n      and\n        /* \"#utility.yul\":2964:3029   */\n      swap1\n      pop\n        /* \"#utility.yul\":2909:3035   */\n      swap2\n      swap1\n      pop\n      jump\t// out\n        /* \"#utility.yul\":3041:3137   */\n    tag_53:\n        /* \"#utility.yul\":3078:3085   */\n      0x00\n        /* \"#utility.yul\":3107:3131   */\n      tag_117\n        /* \"#utility.yul\":3125:3130   */\n      dup3\n        /* \"#utility.yul\":3107:3131   */\n      tag_52\n      jump\t// in\n    tag_117:\n        /* \"#utility.yul\":3096:3131   */\n      swap1\n      pop\n        /* \"#utility.yul\":3041:3137   */\n      swap2\n      swap1\n      pop\n      jump\t// out\n        /* \"#utility.yul\":3143:3265   */\n    tag_54:\n        /* \"#utility.yul\":3216:3240   */\n      tag_119\n        /* \"#utility.yul\":3234:3239   */\n      dup2\n        /* \"#utility.yul\":3216:3240   */\n      tag_53\n      jump\t// in\n    tag_119:\n        /* \"#utility.yul\":3209:3214   */\n      dup2\n        /* \"#utility.yul\":3206:3241   */\n      eq\n        /* \"#utility.yul\":3196:3259   */\n      tag_120\n      jumpi\n        /* \"#utility.yul\":3255:3256   */\n      0x00\n        /* \"#utility.yul\":3252:3253   */\n      dup1\n        /* \"#utility.yul\":3245:3257   */\n      revert\n        /* \"#utility.yul\":3196:3259   */\n    tag_120:\n        /* \"#utility.yul\":3143:3265   */\n      pop\n      jump\t// out\n        /* \"#utility.yul\":3271:3410   */\n    tag_55:\n        /* \"#utility.yul\":3317:3322   */\n      0x00\n        /* \"#utility.yul\":3355:3361   */\n      dup2\n        /* \"#utility.yul\":3342:3362   */\n      calldataload\n        /* \"#utility.yul\":3333:3362   */\n      swap1\n      pop\n        /* \"#utility.yul\":3371:3404   */\n      tag_122\n        /* \"#utility.yul\":3398:3403   */\n      dup2\n        /* \"#utility.yul\":3371:3404   */\n      tag_54\n      jump\t// in\n    tag_122:\n        /* \"#utility.yul\":3271:3410   */\n      swap3\n      swap2\n      pop\n      pop\n      jump\t// out\n        /* \"#utility.yul\":3416:4541   */\n    tag_8:\n        /* \"#utility.yul\":3522:3528   */\n      0x00\n        /* \"#utility.yul\":3530:3536   */\n      dup1\n        /* \"#utility.yul\":3538:3544   */\n      0x00\n        /* \"#utility.yul\":3546:3552   */\n      dup1\n        /* \"#utility.yul\":3595:3598   */\n      0x80\n        /* \"#utility.yul\":3583:3592   */\n      dup6\n        /* \"#utility.yul\":3574:3581   */\n      dup8\n        /* \"#utility.yul\":3570:3593   */\n      sub\n        /* \"#utility.yul\":3566:3599   */\n      slt\n        /* \"#utility.yul\":3563:3683   */\n      iszero\n      tag_124\n      jumpi\n        /* \"#utility.yul\":3602:3681   */\n      tag_125\n      tag_37\n      jump\t// in\n    tag_125:\n        /* \"#utility.yul\":3563:3683   */\n    tag_124:\n        /* \"#utility.yul\":3750:3751   */\n      0x00\n        /* \"#utility.yul\":3739:3748   */\n      dup6\n        /* \"#utility.yul\":3735:3752   */\n      add\n        /* \"#utility.yul\":3722:3753   */\n      calldataload\n        /* \"#utility.yul\":3780:3798   */\n      0xffffffffffffffff\n        /* \"#utility.yul\":3772:3778   */\n      dup2\n        /* \"#utility.yul\":3769:3799   */\n      gt\n        /* \"#utility.yul\":3766:3883   */\n      iszero\n      tag_126\n      jumpi\n        /* \"#utility.yul\":3802:3881   */\n      tag_127\n      tag_38\n      jump\t// in\n    tag_127:\n        /* \"#utility.yul\":3766:3883   */\n    tag_126:\n        /* \"#utility.yul\":3907:3970   */\n      tag_128\n        /* \"#utility.yul\":3962:3969   */\n      dup8\n        /* \"#utility.yul\":3953:3959   */\n      dup3\n        /* \"#utility.yul\":3942:3951   */\n      dup9\n        /* \"#utility.yul\":3938:3960   */\n      add\n        /* \"#utility.yul\":3907:3970   */\n      tag_48\n      jump\t// in\n    tag_128:\n        /* \"#utility.yul\":3897:3970   */\n      swap5\n      pop\n        /* \"#utility.yul\":3693:3980   */\n      pop\n        /* \"#utility.yul\":4047:4049   */\n      0x20\n        /* \"#utility.yul\":4036:4045   */\n      dup6\n        /* \"#utility.yul\":4032:4050   */\n      add\n        /* \"#utility.yul\":4019:4051   */\n      calldataload\n        /* \"#utility.yul\":4078:4096   */\n      0xffffffffffffffff\n        /* \"#utility.yul\":4070:4076   */\n      dup2\n        /* \"#utility.yul\":4067:4097   */\n      gt\n        /* \"#utility.yul\":4064:4181   */\n      iszero\n      tag_129\n      jumpi\n        /* \"#utility.yul\":4100:4179   */\n      tag_130\n      tag_38\n      jump\t// in\n    tag_130:\n        /* \"#utility.yul\":4064:4181   */\n    tag_129:\n        /* \"#utility.yul\":4205:4268   */\n      tag_131\n        /* \"#utility.yul\":4260:4267   */\n      dup8\n        /* \"#utility.yul\":4251:4257   */\n      dup3\n        /* \"#utility.yul\":4240:4249   */\n      dup9\n        /* \"#utility.yul\":4236:4258   */\n      add\n        /* \"#utility.yul\":4205:4268   */\n      tag_48\n      jump\t// in\n    tag_131:\n        /* \"#utility.yul\":4195:4268   */\n      swap4\n      pop\n        /* \"#utility.yul\":3990:4278   */\n      pop\n        /* \"#utility.yul\":4317:4319   */\n      0x40\n        /* \"#utility.yul\":4343:4396   */\n      tag_132\n        /* \"#utility.yul\":4388:4395   */\n      dup8\n        /* \"#utility.yul\":4379:4385   */\n      dup3\n        /* \"#utility.yul\":4368:4377   */\n      dup9\n        /* \"#utility.yul\":4364:4386   */\n      add\n        /* \"#utility.yul\":4343:4396   */\n      tag_51\n      jump\t// in\n    tag_132:\n        /* \"#utility.yul\":4333:4396   */\n      swap3\n      pop\n        /* \"#utility.yul\":4288:4406   */\n      pop\n        /* \"#utility.yul\":4445:4447   */\n      0x60\n        /* \"#utility.yul\":4471:4524   */\n      tag_133\n        /* \"#utility.yul\":4516:4523   */\n      dup8\n        /* \"#utility.yul\":4507:4513   */\n      dup3\n        /* \"#utility.yul\":4496:4505   */\n      dup9\n        /* \"#utility.yul\":4492:4514   */\n      add\n        /* \"#utility.yul\":4471:4524   */\n      tag_55\n      jump\t// in\n    tag_133:\n        /* \"#utility.yul\":4461:4524   */\n      swap2\n      pop\n        /* \"#utility.yul\":4416:4534   */\n      pop\n        /* \"#utility.yul\":3416:4541   */\n      swap3\n      swap6\n      swap2\n      swap5\n      pop\n      swap3\n      pop\n      jump\t// out\n        /* \"#utility.yul\":4547:4665   */\n    tag_56:\n        /* \"#utility.yul\":4634:4658   */\n      tag_135\n        /* \"#utility.yul\":4652:4657   */\n      dup2\n        /* \"#utility.yul\":4634:4658   */\n      tag_49\n      jump\t// in\n    tag_135:\n        /* \"#utility.yul\":4629:4632   */\n      dup3\n        /* \"#utility.yul\":4622:4659   */\n      mstore\n        /* \"#utility.yul\":4547:4665   */\n      pop\n      pop\n      jump\t// out\n        /* \"#utility.yul\":4671:4893   */\n    tag_13:\n        /* \"#utility.yul\":4764:4768   */\n      0x00\n        /* \"#utility.yul\":4802:4804   */\n      0x20\n        /* \"#utility.yul\":4791:4800   */\n      dup3\n        /* \"#utility.yul\":4787:4805   */\n      add\n        /* \"#utility.yul\":4779:4805   */\n      swap1\n      pop\n        /* \"#utility.yul\":4815:4886   */\n      tag_137\n        /* \"#utility.yul\":4883:4884   */\n      0x00\n        /* \"#utility.yul\":4872:4881   */\n      dup4\n        /* \"#utility.yul\":4868:4885   */\n      add\n        /* \"#utility.yul\":4859:4865   */\n      dup5\n        /* \"#utility.yul\":4815:4886   */\n      tag_56\n      jump\t// in\n    tag_137:\n        /* \"#utility.yul\":4671:4893   */\n      swap3\n      swap2\n      pop\n      pop\n      jump\t// out\n        /* \"#utility.yul\":4899:5228   */\n    tag_16:\n        /* \"#utility.yul\":4958:4964   */\n      0x00\n        /* \"#utility.yul\":5007:5009   */\n      0x20\n        /* \"#utility.yul\":4995:5004   */\n      dup3\n        /* \"#utility.yul\":4986:4993   */\n      dup5\n        /* \"#utility.yul\":4982:5005   */\n      sub\n        /* \"#utility.yul\":4978:5010   */\n      slt\n        /* \"#utility.yul\":4975:5094   */\n      iszero\n      tag_139\n      jumpi\n        /* \"#utility.yul\":5013:5092   */\n      tag_140\n      tag_37\n      jump\t// in\n    tag_140:\n        /* \"#utility.yul\":4975:5094   */\n    tag_139:\n        /* \"#utility.yul\":5133:5134   */\n      0x00\n        /* \"#utility.yul\":5158:5211   */\n      tag_141\n        /* \"#utility.yul\":5203:5210   */\n      dup5\n        /* \"#utility.yul\":5194:5200   */\n      dup3\n        /* \"#utility.yul\":5183:5192   */\n      dup6\n        /* \"#utility.yul\":5179:5201   */\n      add\n        /* \"#utility.yul\":5158:5211   */\n      tag_51\n      jump\t// in\n    tag_141:\n        /* \"#utility.yul\":5148:5211   */\n      swap2\n      pop\n        /* \"#utility.yul\":5104:5221   */\n      pop\n        /* \"#utility.yul\":4899:5228   */\n      swap3\n      swap2\n      pop\n      pop\n      jump\t// out\n        /* \"#utility.yul\":5234:5352   */\n    tag_57:\n        /* \"#utility.yul\":5321:5345   */\n      tag_143\n        /* \"#utility.yul\":5339:5344   */\n      dup2\n        /* \"#utility.yul\":5321:5345   */\n      tag_53\n      jump\t// in\n    tag_143:\n        /* \"#utility.yul\":5316:5319   */\n      dup3\n        /* \"#utility.yul\":5309:5346   */\n      mstore\n        /* \"#utility.yul\":5234:5352   */\n      pop\n      pop\n      jump\t// out\n        /* \"#utility.yul\":5358:5457   */\n    tag_58:\n        /* \"#utility.yul\":5410:5416   */\n      0x00\n        /* \"#utility.yul\":5444:5449   */\n      dup2\n        /* \"#utility.yul\":5438:5450   */\n      mload\n        /* \"#utility.yul\":5428:5450   */\n      swap1\n      pop\n        /* \"#utility.yul\":5358:5457   */\n      swap2\n      swap1\n      pop\n      jump\t// out\n        /* \"#utility.yul\":5463:5632   */\n    tag_59:\n        /* \"#utility.yul\":5547:5558   */\n      0x00\n        /* \"#utility.yul\":5581:5587   */\n      dup3\n        /* \"#utility.yul\":5576:5579   */\n      dup3\n        /* \"#utility.yul\":5569:5588   */\n      mstore\n        /* \"#utility.yul\":5621:5625   */\n      0x20\n        /* \"#utility.yul\":5616:5619   */\n      dup3\n        /* \"#utility.yul\":5612:5626   */\n      add\n        /* \"#utility.yul\":5597:5626   */\n      swap1\n      pop\n        /* \"#utility.yul\":5463:5632   */\n      swap3\n      swap2\n      pop\n      pop\n      jump\t// out\n        /* \"#utility.yul\":5638:5884   */\n    tag_60:\n        /* \"#utility.yul\":5719:5720   */\n      0x00\n        /* \"#utility.yul\":5729:5842   */\n    tag_147:\n        /* \"#utility.yul\":5743:5749   */\n      dup4\n        /* \"#utility.yul\":5740:5741   */\n      dup2\n        /* \"#utility.yul\":5737:5750   */\n      lt\n        /* \"#utility.yul\":5729:5842   */\n      iszero\n      tag_149\n      jumpi\n        /* \"#utility.yul\":5828:5829   */\n      dup1\n        /* \"#utility.yul\":5823:5826   */\n      dup3\n        /* \"#utility.yul\":5819:5830   */\n      add\n        /* \"#utility.yul\":5813:5831   */\n      mload\n        /* \"#utility.yul\":5809:5810   */\n      dup2\n        /* \"#utility.yul\":5804:5807   */\n      dup5\n        /* \"#utility.yul\":5800:5811   */\n      add\n        /* \"#utility.yul\":5793:5832   */\n      mstore\n        /* \"#utility.yul\":5765:5767   */\n      0x20\n        /* \"#utility.yul\":5762:5763   */\n      dup2\n        /* \"#utility.yul\":5758:5768   */\n      add\n        /* \"#utility.yul\":5753:5768   */\n      swap1\n      pop\n        /* \"#utility.yul\":5729:5842   */\n      jump(tag_147)\n    tag_149:\n        /* \"#utility.yul\":5876:5877   */\n      0x00\n        /* \"#utility.yul\":5867:5873   */\n      dup5\n        /* \"#utility.yul\":5862:5865   */\n      dup5\n        /* \"#utility.yul\":5858:5874   */\n      add\n        /* \"#utility.yul\":5851:5878   */\n      mstore\n        /* \"#utility.yul\":5700:5884   */\n      pop\n        /* \"#utility.yul\":5638:5884   */\n      pop\n      pop\n      pop\n      jump\t// out\n        /* \"#utility.yul\":5890:6267   */\n    tag_61:\n        /* \"#utility.yul\":5978:5981   */\n      0x00\n        /* \"#utility.yul\":6006:6045   */\n      tag_151\n        /* \"#utility.yul\":6039:6044   */\n      dup3\n        /* \"#utility.yul\":6006:6045   */\n      tag_58\n      jump\t// in\n    tag_151:\n        /* \"#utility.yul\":6061:6132   */\n      tag_152\n        /* \"#utility.yul\":6125:6131   */\n      dup2\n        /* \"#utility.yul\":6120:6123   */\n      dup6\n        /* \"#utility.yul\":6061:6132   */\n      tag_59\n      jump\t// in\n    tag_152:\n        /* \"#utility.yul\":6054:6132   */\n      swap4\n      pop\n        /* \"#utility.yul\":6141:6206   */\n      tag_153\n        /* \"#utility.yul\":6199:6205   */\n      dup2\n        /* \"#utility.yul\":6194:6197   */\n      dup6\n        /* \"#utility.yul\":6187:6191   */\n      0x20\n        /* \"#utility.yul\":6180:6185   */\n      dup7\n        /* \"#utility.yul\":6176:6192   */\n      add\n        /* \"#utility.yul\":6141:6206   */\n      tag_60\n      jump\t// in\n    tag_153:\n        /* \"#utility.yul\":6231:6260   */\n      tag_154\n        /* \"#utility.yul\":6253:6259   */\n      dup2\n        /* \"#utility.yul\":6231:6260   */\n      tag_41\n      jump\t// in\n    tag_154:\n        /* \"#utility.yul\":6226:6229   */\n      dup5\n        /* \"#utility.yul\":6222:6261   */\n      add\n        /* \"#utility.yul\":6215:6261   */\n      swap2\n      pop\n        /* \"#utility.yul\":5982:6267   */\n      pop\n        /* \"#utility.yul\":5890:6267   */\n      swap3\n      swap2\n      pop\n      pop\n      jump\t// out\n        /* \"#utility.yul\":6273:6696   */\n    tag_19:\n        /* \"#utility.yul\":6414:6418   */\n      0x00\n        /* \"#utility.yul\":6452:6454   */\n      0x40\n        /* \"#utility.yul\":6441:6450   */\n      dup3\n        /* \"#utility.yul\":6437:6455   */\n      add\n        /* \"#utility.yul\":6429:6455   */\n      swap1\n      pop\n        /* \"#utility.yul\":6465:6536   */\n      tag_156\n        /* \"#utility.yul\":6533:6534   */\n      0x00\n        /* \"#utility.yul\":6522:6531   */\n      dup4\n        /* \"#utility.yul\":6518:6535   */\n      add\n        /* \"#utility.yul\":6509:6515   */\n      dup6\n        /* \"#utility.yul\":6465:6536   */\n      tag_57\n      jump\t// in\n    tag_156:\n        /* \"#utility.yul\":6583:6592   */\n      dup2\n        /* \"#utility.yul\":6577:6581   */\n      dup2\n        /* \"#utility.yul\":6573:6593   */\n      sub\n        /* \"#utility.yul\":6568:6570   */\n      0x20\n        /* \"#utility.yul\":6557:6566   */\n      dup4\n        /* \"#utility.yul\":6553:6571   */\n      add\n        /* \"#utility.yul\":6546:6594   */\n      mstore\n        /* \"#utility.yul\":6611:6689   */\n      tag_157\n        /* \"#utility.yul\":6684:6688   */\n      dup2\n        /* \"#utility.yul\":6675:6681   */\n      dup5\n        /* \"#utility.yul\":6611:6689   */\n      tag_61\n      jump\t// in\n    tag_157:\n        /* \"#utility.yul\":6603:6689   */\n      swap1\n      pop\n        /* \"#utility.yul\":6273:6696   */\n      swap4\n      swap3\n      pop\n      pop\n      pop\n      jump\t// out\n        /* \"#utility.yul\":6702:7437   */\n    tag_24:\n        /* \"#utility.yul\":6919:6923   */\n      0x00\n        /* \"#utility.yul\":6957:6960   */\n      0x80\n        /* \"#utility.yul\":6946:6955   */\n      dup3\n        /* \"#utility.yul\":6942:6961   */\n      add\n        /* \"#utility.yul\":6934:6961   */\n      swap1\n      pop\n        /* \"#utility.yul\":7007:7016   */\n      dup2\n        /* \"#utility.yul\":7001:7005   */\n      dup2\n        /* \"#utility.yul\":6997:7017   */\n      sub\n        /* \"#utility.yul\":6993:6994   */\n      0x00\n        /* \"#utility.yul\":6982:6991   */\n      dup4\n        /* \"#utility.yul\":6978:6995   */\n      add\n        /* \"#utility.yul\":6971:7018   */\n      mstore\n        /* \"#utility.yul\":7035:7113   */\n      tag_159\n        /* \"#utility.yul\":7108:7112   */\n      dup2\n        /* \"#utility.yul\":7099:7105   */\n      dup8\n        /* \"#utility.yul\":7035:7113   */\n      tag_61\n      jump\t// in\n    tag_159:\n        /* \"#utility.yul\":7027:7113   */\n      swap1\n      pop\n        /* \"#utility.yul\":7160:7169   */\n      dup2\n        /* \"#utility.yul\":7154:7158   */\n      dup2\n        /* \"#utility.yul\":7150:7170   */\n      sub\n        /* \"#utility.yul\":7145:7147   */\n      0x20\n        /* \"#utility.yul\":7134:7143   */\n      dup4\n        /* \"#utility.yul\":7130:7148   */\n      add\n        /* \"#utility.yul\":7123:7171   */\n      mstore\n        /* \"#utility.yul\":7188:7266   */\n      tag_160\n        /* \"#utility.yul\":7261:7265   */\n      dup2\n        /* \"#utility.yul\":7252:7258   */\n      dup7\n        /* \"#utility.yul\":7188:7266   */\n      tag_61\n      jump\t// in\n    tag_160:\n        /* \"#utility.yul\":7180:7266   */\n      swap1\n      pop\n        /* \"#utility.yul\":7276:7348   */\n      tag_161\n        /* \"#utility.yul\":7344:7346   */\n      0x40\n        /* \"#utility.yul\":7333:7342   */\n      dup4\n        /* \"#utility.yul\":7329:7347   */\n      add\n        /* \"#utility.yul\":7320:7326   */\n      dup6\n        /* \"#utility.yul\":7276:7348   */\n      tag_56\n      jump\t// in\n    tag_161:\n        /* \"#utility.yul\":7358:7430   */\n      tag_162\n        /* \"#utility.yul\":7426:7428   */\n      0x60\n        /* \"#utility.yul\":7415:7424   */\n      dup4\n        /* \"#utility.yul\":7411:7429   */\n      add\n        /* \"#utility.yul\":7402:7408   */\n      dup5\n        /* \"#utility.yul\":7358:7430   */\n      tag_57\n      jump\t// in\n    tag_162:\n        /* \"#utility.yul\":6702:7437   */\n      swap6\n      swap5\n      pop\n      pop\n      pop\n      pop\n      pop\n      jump\t// out\n        /* \"#utility.yul\":7443:7623   */\n    tag_62:\n        /* \"#utility.yul\":7491:7568   */\n      0x4e487b7100000000000000000000000000000000000000000000000000000000\n        /* \"#utility.yul\":7488:7489   */\n      0x00\n        /* \"#utility.yul\":7481:7569   */\n      mstore\n        /* \"#utility.yul\":7588:7592   */\n      0x22\n        /* \"#utility.yul\":7585:7586   */\n      0x04\n        /* \"#utility.yul\":7578:7593   */\n      mstore\n        /* \"#utility.yul\":7612:7616   */\n      0x24\n        /* \"#utility.yul\":7609:7610   */\n      0x00\n        /* \"#utility.yul\":7602:7617   */\n      revert\n        /* \"#utility.yul\":7629:7949   */\n    tag_31:\n        /* \"#utility.yul\":7673:7679   */\n      0x00\n        /* \"#utility.yul\":7710:7711   */\n      0x02\n        /* \"#utility.yul\":7704:7708   */\n      dup3\n        /* \"#utility.yul\":7700:7712   */\n      div\n        /* \"#utility.yul\":7690:7712   */\n      swap1\n      pop\n        /* \"#utility.yul\":7757:7758   */\n      0x01\n        /* \"#utility.yul\":7751:7755   */\n      dup3\n        /* \"#utility.yul\":7747:7759   */\n      and\n        /* \"#utility.yul\":7778:7796   */\n      dup1\n        /* \"#utility.yul\":7768:7849   */\n      tag_165\n      jumpi\n        /* \"#utility.yul\":7834:7838   */\n      0x7f\n        /* \"#utility.yul\":7826:7832   */\n      dup3\n        /* \"#utility.yul\":7822:7839   */\n      and\n        /* \"#utility.yul\":7812:7839   */\n      swap2\n      pop\n        /* \"#utility.yul\":7768:7849   */\n    tag_165:\n        /* \"#utility.yul\":7896:7898   */\n      0x20\n        /* \"#utility.yul\":7888:7894   */\n      dup3\n        /* \"#utility.yul\":7885:7899   */\n      lt\n        /* \"#utility.yul\":7865:7883   */\n      dup2\n        /* \"#utility.yul\":7862:7900   */\n      sub\n        /* \"#utility.yul\":7859:7943   */\n      tag_166\n      jumpi\n        /* \"#utility.yul\":7915:7933   */\n      tag_167\n      tag_62\n      jump\t// in\n    tag_167:\n        /* \"#utility.yul\":7859:7943   */\n    tag_166:\n        /* \"#utility.yul\":7680:7949   */\n      pop\n        /* \"#utility.yul\":7629:7949   */\n      swap2\n      swap1\n      pop\n      jump\t// out\n        /* \"#utility.yul\":7955:8096   */\n    tag_63:\n        /* \"#utility.yul\":8004:8008   */\n      0x00\n        /* \"#utility.yul\":8027:8030   */\n      dup2\n        /* \"#utility.yul\":8019:8030   */\n      swap1\n      pop\n        /* \"#utility.yul\":8050:8053   */\n      dup2\n        /* \"#utility.yul\":8047:8048   */\n      0x00\n        /* \"#utility.yul\":8040:8054   */\n      mstore\n        /* \"#utility.yul\":8084:8088   */\n      0x20\n        /* \"#utility.yul\":8081:8082   */\n      0x00\n        /* \"#utility.yul\":8071:8089   */\n      keccak256\n        /* \"#utility.yul\":8063:8089   */\n      swap1\n      pop\n        /* \"#utility.yul\":7955:8096   */\n      swap2\n      swap1\n      pop\n      jump\t// out\n        /* \"#utility.yul\":8102:8195   */\n    tag_64:\n        /* \"#utility.yul\":8139:8145   */\n      0x00\n        /* \"#utility.yul\":8186:8188   */\n      0x20\n        /* \"#utility.yul\":8181:8183   */\n      0x1f\n        /* \"#utility.yul\":8174:8179   */\n      dup4\n        /* \"#utility.yul\":8170:8184   */\n      add\n        /* \"#utility.yul\":8166:8189   */\n      div\n        /* \"#utility.yul\":8156:8189   */\n      swap1\n      pop\n        /* \"#utility.yul\":8102:8195   */\n      swap2\n      swap1\n      pop\n      jump\t// out\n        /* \"#utility.yul\":8201:8308   */\n    tag_65:\n        /* \"#utility.yul\":8245:8253   */\n      0x00\n        /* \"#utility.yul\":8295:8300   */\n      dup3\n        /* \"#utility.yul\":8289:8293   */\n      dup3\n        /* \"#utility.yul\":8285:8301   */\n      shl\n        /* \"#utility.yul\":8264:8301   */\n      swap1\n      pop\n        /* \"#utility.yul\":8201:8308   */\n      swap3\n      swap2\n      pop\n      pop\n      jump\t// out\n        /* \"#utility.yul\":8314:8707   */\n    tag_66:\n        /* \"#utility.yul\":8383:8389   */\n      0x00\n        /* \"#utility.yul\":8433:8434   */\n      0x08\n        /* \"#utility.yul\":8421:8431   */\n      dup4\n        /* \"#utility.yul\":8417:8435   */\n      mul\n        /* \"#utility.yul\":8456:8553   */\n      tag_172\n        /* \"#utility.yul\":8486:8552   */\n      0xffffffffffffffffffffffffffffffffffffffffffffffffffffffffffffffff\n        /* \"#utility.yul\":8475:8484   */\n      dup3\n        /* \"#utility.yul\":8456:8553   */\n      tag_65\n      jump\t// in\n    tag_172:\n        /* \"#utility.yul\":8574:8613   */\n      tag_173\n        /* \"#utility.yul\":8604:8612   */\n      dup7\n        /* \"#utility.yul\":8593:8602   */\n      dup4\n        /* \"#utility.yul\":8574:8613   */\n      tag_65\n      jump\t// in\n    tag_173:\n        /* \"#utility.yul\":8562:8613   */\n      swap6\n      pop\n        /* \"#utility.yul\":8646:8650   */\n      dup1\n        /* \"#utility.yul\":8642:8651   */\n      not\n        /* \"#utility.yul\":8635:8640   */\n      dup5\n        /* \"#utility.yul\":8631:8652   */\n      and\n        /* \"#utility.yul\":8622:8652   */\n      swap4\n      pop\n        /* \"#utility.yul\":8695:8699   */\n      dup1\n        /* \"#utility.yul\":8685:8693   */\n      dup7\n        /* \"#utility.yul\":8681:8700   */\n      and\n        /* \"#utility.yul\":8674:8679   */\n      dup5\n        /* \"#utility.yul\":8671:8701   */\n      or\n        /* \"#utility.yul\":8661:8701   */\n      swap3\n      pop\n        /* \"#utility.yul\":8390:8707   */\n      pop\n      pop\n        /* \"#utility.yul\":8314:8707   */\n      swap4\n      swap3\n      pop\n      pop\n      pop\n      jump\t// out\n        /* \"#utility.yul\":8713:8773   */\n    tag_67:\n        /* \"#utility.yul\":8741:8744   */\n      0x00\n        /* \"#utility.yul\":8762:8767   */\n      dup2\n        /* \"#utility.yul\":8755:8767   */\n      swap1\n      pop\n        /* \"#utility.yul\":8713:8773   */\n      swap2\n      swap1\n      pop\n      jump\t// out\n        /* \"#utility.yul\":8779:8921   */\n    tag_68:\n        /* \"#utility.yul\":8829:8838   */\n      0x00\n        /* \"#utility.yul\":8862:8915   */\n      tag_176\n        /* \"#utility.yul\":8880:8914   */\n      tag_177\n        /* \"#utility.yul\":8889:8913   */\n      tag_178\n        /* \"#utility.yul\":8907:8912   */\n      dup5\n        /* \"#utility.yul\":8889:8913   */\n      tag_49\n      jump\t// in\n    tag_178:\n        /* \"#utility.yul\":8880:8914   */\n      tag_67\n      jump\t// in\n    tag_177:\n        /* \"#utility.yul\":8862:8915   */\n      tag_49\n      jump\t// in\n    tag_176:\n        /* \"#utility.yul\":8849:8915   */\n      swap1\n      pop\n        /* \"#utility.yul\":8779:8921   */\n      swap2\n      swap1\n      pop\n      jump\t// out\n        /* \"#utility.yul\":8927:9002   */\n    tag_69:\n        /* \"#utility.yul\":8970:8973   */\n      0x00\n        /* \"#utility.yul\":8991:8996   */\n      dup2\n        /* \"#utility.yul\":8984:8996   */\n      swap1\n      pop\n        /* \"#utility.yul\":8927:9002   */\n      swap2\n      swap1\n      pop\n      jump\t// out\n        /* \"#utility.yul\":9008:9277   */\n    tag_70:\n        /* \"#utility.yul\":9118:9157   */\n      tag_181\n        /* \"#utility.yul\":9149:9156   */\n      dup4\n        /* \"#utility.yul\":9118:9157   */\n      tag_68\n      jump\t// in\n    tag_181:\n        /* \"#utility.yul\":9179:9270   */\n      tag_182\n        /* \"#utility.yul\":9228:9269   */\n      tag_183\n        /* \"#utility.yul\":9252:9268   */\n      dup3\n        /* \"#utility.yul\":9228:9269   */\n      tag_69\n      jump\t// in\n    tag_183:\n        /* \"#utility.yul\":9220:9226   */\n      dup5\n        /* \"#utility.yul\":9213:9217   */\n      dup5\n        /* \"#utility.yul\":9207:9218   */\n      sload\n        /* \"#utility.yul\":9179:9270   */\n      tag_66\n      jump\t// in\n    tag_182:\n        /* \"#utility.yul\":9173:9177   */\n      dup3\n        /* \"#utility.yul\":9166:9271   */\n      sstore\n        /* \"#utility.yul\":9084:9277   */\n      pop\n        /* \"#utility.yul\":9008:9277   */\n      pop\n      pop\n      pop\n      jump\t// out\n        /* \"#utility.yul\":9283:9356   */\n    tag_71:\n        /* \"#utility.yul\":9328:9331   */\n      0x00\n        /* \"#utility.yul\":9283:9356   */\n      swap1\n      jump\t// out\n        /* \"#utility.yul\":9362:9551   */\n    tag_72:\n        /* \"#utility.yul\":9439:9471   */\n      tag_186\n      tag_71\n      jump\t// in\n    tag_186:\n        /* \"#utility.yul\":9480:9545   */\n      tag_187\n        /* \"#utility.yul\":9538:9544   */\n      dup2\n        /* \"#utility.yul\":9530:9536   */\n      dup5\n        /* \"#utility.yul\":9524:9528   */\n      dup5\n        /* \"#utility.yul\":9480:9545   */\n      tag_70\n      jump\t// in\n    tag_187:\n        /* \"#utility.yul\":9415:9551   */\n      pop\n        /* \"#utility.yul\":9362:9551   */\n      pop\n      pop\n      jump\t// out\n        /* \"#utility.yul\":9557:9743   */\n    tag_73:\n        /* \"#utility.yul\":9617:9737   */\n    tag_189:\n        /* \"#utility.yul\":9634:9637   */\n      dup2\n        /* \"#utility.yul\":9627:9632   */\n      dup2\n        /* \"#utility.yul\":9624:9638   */\n      lt\n        /* \"#utility.yul\":9617:9737   */\n      iszero\n      tag_191\n      jumpi\n        /* \"#utility.yul\":9688:9727   */\n      tag_192\n        /* \"#utility.yul\":9725:9726   */\n      0x00\n        /* \"#utility.yul\":9718:9723   */\n      dup3\n        /* \"#utility.yul\":9688:9727   */\n      tag_72\n      jump\t// in\n    tag_192:\n        /* \"#utility.yul\":9661:9662   */\n      0x01\n        /* \"#utility.yul\":9654:9659   */\n      dup2\n        /* \"#utility.yul\":9650:9663   */\n      add\n        /* \"#utility.yul\":9641:9663   */\n      swap1\n      pop\n        /* \"#utility.yul\":9617:9737   */\n      jump(tag_189)\n    tag_191:\n        /* \"#utility.yul\":9557:9743   */\n      pop\n      pop\n      jump\t// out\n        /* \"#utility.yul\":9749:10292   */\n    tag_74:\n        /* \"#utility.yul\":9850:9852   */\n      0x1f\n        /* \"#utility.yul\":9845:9848   */\n      dup3\n        /* \"#utility.yul\":9842:9853   */\n      gt\n        /* \"#utility.yul\":9839:10285   */\n      iszero\n      tag_194\n      jumpi\n        /* \"#utility.yul\":9884:9922   */\n      tag_195\n        /* \"#utility.yul\":9916:9921   */\n      dup2\n        /* \"#utility.yul\":9884:9922   */\n      tag_63\n      jump\t// in\n    tag_195:\n        /* \"#utility.yul\":9968:9997   */\n      tag_196\n        /* \"#utility.yul\":9986:9996   */\n      dup5\n        /* \"#utility.yul\":9968:9997   */\n      tag_64\n      jump\t// in\n    tag_196:\n        /* \"#utility.yul\":9958:9966   */\n      dup2\n        /* \"#utility.yul\":9954:9998   */\n      add\n        /* \"#utility.yul\":10151:10153   */\n      0x20\n        /* \"#utility.yul\":10139:10149   */\n      dup6\n        /* \"#utility.yul\":10136:10154   */\n      lt\n        /* \"#utility.yul\":10133:10182   */\n      iszero\n      tag_197\n      jumpi\n        /* \"#utility.yul\":10172:10180   */\n      dup2\n        /* \"#utility.yul\":10157:10180   */\n      swap1\n      pop\n        /* \"#utility.yul\":10133:10182   */\n    tag_197:\n        /* \"#utility.yul\":10195:10275   */\n      tag_198\n        /* \"#utility.yul\":10251:10273   */\n      tag_199\n        /* \"#utility.yul\":10269:10272   */\n      dup6\n        /* \"#utility.yul\":10251:10273   */\n      tag_64\n      jump\t// in\n    tag_199:\n        /* \"#utility.yul\":10241:10249   */\n      dup4\n        /* \"#utility.yul\":10237:10274   */\n      add\n        /* \"#utility.yul\":10224:10235   */\n      dup3\n        /* \"#utility.yul\":10195:10275   */\n      tag_73\n      jump\t// in\n    tag_198:\n        /* \"#utility.yul\":9854:10285   */\n      pop\n      pop\n        /* \"#utility.yul\":9839:10285   */\n    tag_194:\n        /* \"#utility.yul\":9749:10292   */\n      pop\n      pop\n      pop\n      jump\t// out\n        /* \"#utility.yul\":10298:10415   */\n    tag_75:\n        /* \"#utility.yul\":10352:10360   */\n      0x00\n        /* \"#utility.yul\":10402:10407   */\n      dup3\n        /* \"#utility.yul\":10396:10400   */\n      dup3\n        /* \"#utility.yul\":10392:10408   */\n      shr\n        /* \"#utility.yul\":10371:10408   */\n      swap1\n      pop\n        /* \"#utility.yul\":10298:10415   */\n      swap3\n      swap2\n      pop\n      pop\n      jump\t// out\n        /* \"#utility.yul\":10421:10590   */\n    tag_76:\n        /* \"#utility.yul\":10465:10471   */\n      0x00\n        /* \"#utility.yul\":10498:10549   */\n      tag_202\n        /* \"#utility.yul\":10546:10547   */\n      0x00\n        /* \"#utility.yul\":10542:10548   */\n      not\n        /* \"#utility.yul\":10534:10539   */\n      dup5\n        /* \"#utility.yul\":10531:10532   */\n      0x08\n        /* \"#utility.yul\":10527:10540   */\n      mul\n        /* \"#utility.yul\":10498:10549   */\n      tag_75\n      jump\t// in\n    tag_202:\n        /* \"#utility.yul\":10494:10550   */\n      not\n        /* \"#utility.yul\":10579:10583   */\n      dup1\n        /* \"#utility.yul\":10573:10577   */\n      dup4\n        /* \"#utility.yul\":10569:10584   */\n      and\n        /* \"#utility.yul\":10559:10584   */\n      swap2\n      pop\n        /* \"#utility.yul\":10472:10590   */\n      pop\n        /* \"#utility.yul\":10421:10590   */\n      swap3\n      swap2\n      pop\n      pop\n      jump\t// out\n        /* \"#utility.yul\":10595:10890   */\n    tag_77:\n        /* \"#utility.yul\":10671:10675   */\n      0x00\n        /* \"#utility.yul\":10817:10846   */\n      tag_204\n        /* \"#utility.yul\":10842:10845   */\n      dup4\n        /* \"#utility.yul\":10836:10840   */\n      dup4\n        /* \"#utility.yul\":10817:10846   */\n      tag_76\n      jump\t// in\n    tag_204:\n        /* \"#utility.yul\":10809:10846   */\n      swap2\n      pop\n        /* \"#utility.yul\":10879:10882   */\n      dup3\n        /* \"#utility.yul\":10876:10877   */\n      0x02\n        /* \"#utility.yul\":10872:10883   */\n      mul\n        /* \"#utility.yul\":10866:10870   */\n      dup3\n        /* \"#utility.yul\":10863:10884   */\n      or\n        /* \"#utility.yul\":10855:10884   */\n      swap1\n      pop\n        /* \"#utility.yul\":10595:10890   */\n      swap3\n      swap2\n      pop\n      pop\n      jump\t// out\n        /* \"#utility.yul\":10895:12290   */\n    tag_27:\n        /* \"#utility.yul\":11012:11049   */\n      tag_206\n        /* \"#utility.yul\":11045:11048   */\n      dup3\n        /* \"#utility.yul\":11012:11049   */\n      tag_58\n      jump\t// in\n    tag_206:\n        /* \"#utility.yul\":11114:11132   */\n      0xffffffffffffffff\n        /* \"#utility.yul\":11106:11112   */\n      dup2\n        /* \"#utility.yul\":11103:11133   */\n      gt\n        /* \"#utility.yul\":11100:11156   */\n      iszero\n      tag_207\n      jumpi\n        /* \"#utility.yul\":11136:11154   */\n      tag_208\n      tag_42\n      jump\t// in\n    tag_208:\n        /* \"#utility.yul\":11100:11156   */\n    tag_207:\n        /* \"#utility.yul\":11180:11218   */\n      tag_209\n        /* \"#utility.yul\":11212:11216   */\n      dup3\n        /* \"#utility.yul\":11206:11217   */\n      sload\n        /* \"#utility.yul\":11180:11218   */\n      tag_31\n      jump\t// in\n    tag_209:\n        /* \"#utility.yul\":11265:11332   */\n      tag_210\n        /* \"#utility.yul\":11325:11331   */\n      dup3\n        /* \"#utility.yul\":11317:11323   */\n      dup3\n        /* \"#utility.yul\":11311:11315   */\n      dup6\n        /* \"#utility.yul\":11265:11332   */\n      tag_74\n      jump\t// in\n    tag_210:\n        /* \"#utility.yul\":11359:11360   */\n      0x00\n        /* \"#utility.yul\":11383:11387   */\n      0x20\n        /* \"#utility.yul\":11370:11387   */\n      swap1\n      pop\n        /* \"#utility.yul\":11415:11417   */\n      0x1f\n        /* \"#utility.yul\":11407:11413   */\n      dup4\n        /* \"#utility.yul\":11404:11418   */\n      gt\n        /* \"#utility.yul\":11432:11433   */\n      0x01\n        /* \"#utility.yul\":11427:12045   */\n      dup2\n      eq\n      tag_212\n      jumpi\n        /* \"#utility.yul\":12089:12090   */\n      0x00\n        /* \"#utility.yul\":12106:12112   */\n      dup5\n        /* \"#utility.yul\":12103:12180   */\n      iszero\n      tag_213\n      jumpi\n        /* \"#utility.yul\":12155:12164   */\n      dup3\n        /* \"#utility.yul\":12150:12153   */\n      dup8\n        /* \"#utility.yul\":12146:12165   */\n      add\n        /* \"#utility.yul\":12140:12166   */\n      mload\n        /* \"#utility.yul\":12131:12166   */\n      swap1\n      pop\n        /* \"#utility.yul\":12103:12180   */\n    tag_213:\n        /* \"#utility.yul\":12206:12273   */\n      tag_214\n        /* \"#utility.yul\":12266:12272   */\n      dup6\n        /* \"#utility.yul\":12259:12264   */\n      dup3\n        /* \"#utility.yul\":12206:12273   */\n      tag_77\n      jump\t// in\n    tag_214:\n        /* \"#utility.yul\":12200:12204   */\n      dup7\n        /* \"#utility.yul\":12193:12274   */\n      sstore\n        /* \"#utility.yul\":12062:12284   */\n      pop\n        /* \"#utility.yul\":11397:12284   */\n      jump(tag_211)\n        /* \"#utility.yul\":11427:12045   */\n    tag_212:\n        /* \"#utility.yul\":11479:11483   */\n      0x1f\n        /* \"#utility.yul\":11475:11484   */\n      not\n        /* \"#utility.yul\":11467:11473   */\n      dup5\n        /* \"#utility.yul\":11463:11485   */\n      and\n        /* \"#utility.yul\":11513:11550   */\n      tag_215\n        /* \"#utility.yul\":11545:11549   */\n      dup7\n        /* \"#utility.yul\":11513:11550   */\n      tag_63\n      jump\t// in\n    tag_215:\n        /* \"#utility.yul\":11572:11573   */\n      0x00\n        /* \"#utility.yul\":11586:11794   */\n    tag_216:\n        /* \"#utility.yul\":11600:11607   */\n      dup3\n        /* \"#utility.yul\":11597:11598   */\n      dup2\n        /* \"#utility.yul\":11594:11608   */\n      lt\n        /* \"#utility.yul\":11586:11794   */\n      iszero\n      tag_218\n      jumpi\n        /* \"#utility.yul\":11679:11688   */\n      dup5\n        /* \"#utility.yul\":11674:11677   */\n      dup10\n        /* \"#utility.yul\":11670:11689   */\n      add\n        /* \"#utility.yul\":11664:11690   */\n      mload\n        /* \"#utility.yul\":11656:11662   */\n      dup3\n        /* \"#utility.yul\":11649:11691   */\n      sstore\n        /* \"#utility.yul\":11730:11731   */\n      0x01\n        /* \"#utility.yul\":11722:11728   */\n      dup3\n        /* \"#utility.yul\":11718:11732   */\n      add\n        /* \"#utility.yul\":11708:11732   */\n      swap2\n      pop\n        /* \"#utility.yul\":11777:11779   */\n      0x20\n        /* \"#utility.yul\":11766:11775   */\n      dup6\n        /* \"#utility.yul\":11762:11780   */\n      add\n        /* \"#utility.yul\":11749:11780   */\n      swap5\n      pop\n        /* \"#utility.yul\":11623:11627   */\n      0x20\n        /* \"#utility.yul\":11620:11621   */\n      dup2\n        /* \"#utility.yul\":11616:11628   */\n      add\n        /* \"#utility.yul\":11611:11628   */\n      swap1\n      pop\n        /* \"#utility.yul\":11586:11794   */\n      jump(tag_216)\n    tag_218:\n        /* \"#utility.yul\":11822:11828   */\n      dup7\n        /* \"#utility.yul\":11813:11820   */\n      dup4\n        /* \"#utility.yul\":11810:11829   */\n      lt\n        /* \"#utility.yul\":11807:11986   */\n      iszero\n      tag_219\n      jumpi\n        /* \"#utility.yul\":11880:11889   */\n      dup5\n        /* \"#utility.yul\":11875:11878   */\n      dup10\n        /* \"#utility.yul\":11871:11890   */\n      add\n        /* \"#utility.yul\":11865:11891   */\n      mload\n        /* \"#utility.yul\":11923:11971   */\n      tag_220\n        /* \"#utility.yul\":11965:11969   */\n      0x1f\n        /* \"#utility.yul\":11957:11963   */\n      dup10\n        /* \"#utility.yul\":11953:11970   */\n      and\n        /* \"#utility.yul\":11942:11951   */\n      dup3\n        /* \"#utility.yul\":11923:11971   */\n      tag_76\n      jump\t// in\n    tag_220:\n        /* \"#utility.yul\":11915:11921   */\n      dup4\n        /* \"#utility.yul\":11908:11972   */\n      sstore\n        /* \"#utility.yul\":11830:11986   */\n      pop\n        /* \"#utility.yul\":11807:11986   */\n    tag_219:\n        /* \"#utility.yul\":12032:12033   */\n      0x01\n        /* \"#utility.yul\":12028:12029   */\n      0x02\n        /* \"#utility.yul\":12020:12026   */\n      dup9\n        /* \"#utility.yul\":12016:12030   */\n      mul\n        /* \"#utility.yul\":12012:12034   */\n      add\n        /* \"#utility.yul\":12006:12010   */\n      dup9\n        /* \"#utility.yul\":11999:12035   */\n      sstore\n        /* \"#utility.yul\":11434:12045   */\n      pop\n      pop\n      pop\n        /* \"#utility.yul\":11397:12284   */\n    tag_211:\n      pop\n        /* \"#utility.yul\":10987:12290   */\n      pop\n      pop\n      pop\n        /* \"#utility.yul\":10895:12290   */\n      pop\n      pop\n      jump\t// out\n        /* \"#utility.yul\":12296:12476   */\n    tag_78:\n        /* \"#utility.yul\":12344:12421   */\n      0x4e487b7100000000000000000000000000000000000000000000000000000000\n        /* \"#utility.yul\":12341:12342   */\n      0x00\n        /* \"#utility.yul\":12334:12422   */\n      mstore\n        /* \"#utility.yul\":12441:12445   */\n      0x11\n        /* \"#utility.yul\":12438:12439   */\n      0x04\n        /* \"#utility.yul\":12431:12446   */\n      mstore\n        /* \"#utility.yul\":12465:12469   */\n      0x24\n        /* \"#utility.yul\":12462:12463   */\n      0x00\n        /* \"#utility.yul\":12455:12470   */\n      revert\n        /* \"#utility.yul\":12482:12715   */\n    tag_29:\n        /* \"#utility.yul\":12521:12524   */\n      0x00\n        /* \"#utility.yul\":12544:12568   */\n      tag_223\n        /* \"#utility.yul\":12562:12567   */\n      dup3\n        /* \"#utility.yul\":12544:12568   */\n      tag_49\n      jump\t// in\n    tag_223:\n        /* \"#utility.yul\":12535:12568   */\n      swap2\n      pop\n        /* \"#utility.yul\":12590:12656   */\n      0xffffffffffffffffffffffffffffffffffffffffffffffffffffffffffffffff\n        /* \"#utility.yul\":12583:12588   */\n      dup3\n        /* \"#utility.yul\":12580:12657   */\n      sub\n        /* \"#utility.yul\":12577:12680   */\n      tag_224\n      jumpi\n        /* \"#utility.yul\":12660:12678   */\n      tag_225\n      tag_78\n      jump\t// in\n    tag_225:\n        /* \"#utility.yul\":12577:12680   */\n    tag_224:\n        /* \"#utility.yul\":12707:12708   */\n      0x01\n        /* \"#utility.yul\":12700:12705   */\n      dup3\n        /* \"#utility.yul\":12696:12709   */\n      add\n        /* \"#utility.yul\":12689:12709   */\n      swap1\n      pop\n        /* \"#utility.yul\":12482:12715   */\n      swap2\n      swap1\n      pop\n      jump\t// out\n    stop\n\n    sub_0: assembly {\n            /* \"contract/memecoin.sol\":138:948  contract memecoin is ERC20,Ownable{... */\n          mstore(0x40, 0x80)\n            /* \"contract/memecoin.sol\":198:367  constructor(string memory name,string memory symbol,uint totalsupply,address owner)ERC20(name,symbol)Ownable(owner){... */\n          callvalue\n          dup1\n          iszero\n          tag_1\n          jumpi\n          0x00\n          dup1\n          revert\n        tag_1:\n          pop\n          mload(0x40)\n          sub(codesize, bytecodeSize)\n          dup1\n          bytecodeSize\n          dup4\n          codecopy\n          dup2\n          dup2\n          add\n          0x40\n          mstore\n          dup2\n          add\n          swap1\n          tag_2\n          swap2\n          swap1\n          tag_3\n          jump\t// in\n        tag_2:\n            /* \"contract/memecoin.sol\":307:312  owner */\n          dup1\n            /* \"contract/memecoin.sol\":287:291  name */\n          dup5\n            /* \"contract/memecoin.sol\":292:298  symbol */\n          dup5\n            /* \"@openzeppelin/contracts/token/ERC20/ERC20.sol\":1970:1975  name_ */\n          dup2\n            /* \"@openzeppelin/contracts/token/ERC20/ERC20.sol\":1962:1967  _name */\n          0x03\n            /* \"@openzeppelin/contracts/token/ERC20/ERC20.sol\":1962:1975  _name = name_ */\n          swap1\n          dup2\n          tag_8\n          swap2\n          swap1\n          tag_9\n          jump\t// in\n        tag_8:\n          pop\n            /* \"@openzeppelin/contracts/token/ERC20/ERC20.sol\":1995:2002  symbol_ */\n          dup1\n            /* \"@openzeppelin/contracts/token/ERC20/ERC20.sol\":1985:1992  _symbol */\n          0x04\n            /* \"@openzeppelin/contracts/token/ERC20/ERC20.sol\":1985:2002  _symbol = symbol_ */\n          swap1\n          dup2\n          tag_10\n          swap2\n          swap1\n          tag_9\n          jump\t// in\n        tag_10:\n          pop\n            /* \"@openzeppelin/contracts/token/ERC20/ERC20.sol\":1896:2009  constructor(string memory name_, string memory symbol_) {... */\n          pop\n          pop\n            /* \"@openzeppelin/contracts/access/Ownable.sol\":1297:1298  0 */\n          0x00\n            /* \"@openzeppelin/contracts/access/Ownable.sol\":1273:1299  initialOwner == address(0) */\n          0xffffffffffffffffffffffffffffffffffffffff\n          and\n            /* \"@openzeppelin/contracts/access/Ownable.sol\":1273:1285  initialOwner */\n          dup2\n            /* \"@openzeppelin/contracts/access/Ownable.sol\":1273:1299  initialOwner == address(0) */\n          0xffffffffffffffffffffffffffffffffffffffff\n          and\n          sub\n            /* \"@openzeppelin/contracts/access/Ownable.sol\":1269:1364  if (initialOwner == address(0)) {... */\n          tag_12\n          jumpi\n            /* \"@openzeppelin/contracts/access/Ownable.sol\":1350:1351  0 */\n          0x00\n            /* \"@openzeppelin/contracts/access/Ownable.sol\":1322:1353  OwnableInvalidOwner(address(0)) */\n          mload(0x40)\n          0x1e4fbdf700000000000000000000000000000000000000000000000000000000\n          dup2\n          mstore\n          0x04\n          add\n          tag_13\n          swap2\n          swap1\n          tag_14\n          jump\t// in\n        tag_13:\n          mload(0x40)\n          dup1\n          swap2\n          sub\n          swap1\n          revert\n            /* \"@openzeppelin/contracts/access/Ownable.sol\":1269:1364  if (initialOwner == address(0)) {... */\n        tag_12:\n            /* \"@openzeppelin/contracts/access/Ownable.sol\":1373:1405  _transferOwnership(initialOwner) */\n          tag_15\n            /* \"@openzeppelin/contracts/access/Ownable.sol\":1392:1404  initialOwner */\n          dup2\n            /* \"@openzeppelin/contracts/access/Ownable.sol\":1373:1391  _transferOwnership */\n          shl(0x20, tag_16)\n            /* \"@openzeppelin/contracts/access/Ownable.sol\":1373:1405  _transferOwnership(initialOwner) */\n          0x20\n          shr\n          jump\t// in\n        tag_15:\n            /* \"@openzeppelin/contracts/access/Ownable.sol\":1225:1412  constructor(address initialOwner) {... */\n          pop\n            /* \"contract/memecoin.sol\":323:359  _mint(msg.sender,totalsupply*10**18) */\n          tag_18\n            /* \"contract/memecoin.sol\":329:339  msg.sender */\n          caller\n            /* \"contract/memecoin.sol\":352:358  10**18 */\n          0x0de0b6b3a7640000\n            /* \"contract/memecoin.sol\":340:351  totalsupply */\n          dup5\n            /* \"contract/memecoin.sol\":340:358  totalsupply*10**18 */\n          tag_19\n          swap2\n          swap1\n          tag_20\n          jump\t// in\n        tag_19:\n            /* \"contract/memecoin.sol\":323:328  _mint */\n          shl(0x20, tag_21)\n            /* \"contract/memecoin.sol\":323:359  _mint(msg.sender,totalsupply*10**18) */\n          0x20\n          shr\n          jump\t// in\n        tag_18:\n            /* \"contract/memecoin.sol\":198:367  constructor(string memory name,string memory symbol,uint totalsupply,address owner)ERC20(name,symbol)Ownable(owner){... */\n          pop\n          pop\n          pop\n          pop\n            /* \"contract/memecoin.sol\":138:948  contract memecoin is ERC20,Ownable{... */\n          jump(tag_22)\n            /* \"@openzeppelin/contracts/access/Ownable.sol\":2912:3099  function _transferOwnership(address newOwner) internal virtual {... */\n        tag_16:\n            /* \"@openzeppelin/contracts/access/Ownable.sol\":2985:3001  address oldOwner */\n          0x00\n            /* \"@openzeppelin/contracts/access/Ownable.sol\":3004:3010  _owner */\n          0x05\n          0x00\n          swap1\n          sload\n          swap1\n          0x0100\n          exp\n          swap1\n          div\n          0xffffffffffffffffffffffffffffffffffffffff\n          and\n            /* \"@openzeppelin/contracts/access/Ownable.sol\":2985:3010  address oldOwner = _owner */\n          swap1\n          pop\n            /* \"@openzeppelin/contracts/access/Ownable.sol\":3029:3037  newOwner */\n          dup2\n            /* \"@openzeppelin/contracts/access/Ownable.sol\":3020:3026  _owner */\n          0x05\n          0x00\n            /* \"@openzeppelin/contracts/access/Ownable.sol\":3020:3037  _owner = newOwner */\n          0x0100\n          exp\n          dup2\n          sload\n          dup2\n          0xffffffffffffffffffffffffffffffffffffffff\n          mul\n          not\n          and\n          swap1\n          dup4\n          0xffffffffffffffffffffffffffffffffffffffff\n          and\n          mul\n          or\n          swap1\n          sstore\n          pop\n            /* \"@openzeppelin/contracts/access/Ownable.sol\":3083:3091  newOwner */\n          dup2\n            /* \"@openzeppelin/contracts/access/Ownable.sol\":3052:3092  OwnershipTransferred(oldOwner, newOwner) */\n          0xffffffffffffffffffffffffffffffffffffffff\n          and\n            /* \"@openzeppelin/contracts/access/Ownable.sol\":3073:3081  oldOwner */\n          dup2\n            /* \"@openzeppelin/contracts/access/Ownable.sol\":3052:3092  OwnershipTransferred(oldOwner, newOwner) */\n          0xffffffffffffffffffffffffffffffffffffffff\n          and\n          0x8be0079c531659141344cd1fd0a4f28419497f9722a3daafe3b4186f6b6457e0\n          mload(0x40)\n          mload(0x40)\n          dup1\n          swap2\n          sub\n          swap1\n          log3\n            /* \"@openzeppelin/contracts/access/Ownable.sol\":2975:3099  {... */\n          pop\n            /* \"@openzeppelin/contracts/access/Ownable.sol\":2912:3099  function _transferOwnership(address newOwner) internal virtual {... */\n          pop\n          jump\t// out\n            /* \"@openzeppelin/contracts/token/ERC20/ERC20.sol\":7721:7929  function _mint(address account, uint256 value) internal {... */\n        tag_21:\n            /* \"@openzeppelin/contracts/token/ERC20/ERC20.sol\":7810:7811  0 */\n          0x00\n            /* \"@openzeppelin/contracts/token/ERC20/ERC20.sol\":7791:7812  account == address(0) */\n          0xffffffffffffffffffffffffffffffffffffffff\n          and\n            /* \"@openzeppelin/contracts/token/ERC20/ERC20.sol\":7791:7798  account */\n          dup3\n            /* \"@openzeppelin/contracts/token/ERC20/ERC20.sol\":7791:7812  account == address(0) */\n          0xffffffffffffffffffffffffffffffffffffffff\n          and\n          sub\n            /* \"@openzeppelin/contracts/token/ERC20/ERC20.sol\":7787:7878  if (account == address(0)) {... */\n          tag_25\n          jumpi\n            /* \"@openzeppelin/contracts/token/ERC20/ERC20.sol\":7864:7865  0 */\n          0x00\n            /* \"@openzeppelin/contracts/token/ERC20/ERC20.sol\":7835:7867  ERC20InvalidReceiver(address(0)) */\n          mload(0x40)\n          0xec442f0500000000000000000000000000000000000000000000000000000000\n          dup2\n          mstore\n          0x04\n          add\n          tag_26\n          swap2\n          swap1\n          tag_14\n          jump\t// in\n        tag_26:\n          mload(0x40)\n          dup1\n          swap2\n          sub\n          swap1\n          revert\n            /* \"@openzeppelin/contracts/token/ERC20/ERC20.sol\":7787:7878  if (account == address(0)) {... */\n        tag_25:\n            /* \"@openzeppelin/contracts/token/ERC20/ERC20.sol\":7887:7922  _update(address(0), account, value) */\n          tag_27\n            /* \"@openzeppelin/contracts/token/ERC20/ERC20.sol\":7903:7904  0 */\n          0x00\n            /* \"@openzeppelin/contracts/token/ERC20/ERC20.sol\":7907:7914  account */\n          dup4\n            /* \"@openzeppelin/contracts/token/ERC20/ERC20.sol\":7916:7921  value */\n          dup4\n            /* \"@openzeppelin/contracts/token/ERC20/ERC20.sol\":7887:7894  _update */\n          shl(0x20, tag_28)\n            /* \"@openzeppelin/contracts/token/ERC20/ERC20.sol\":7887:7922  _update(address(0), account, value) */\n          0x20\n          shr\n          jump\t// in\n        tag_27:\n            /* \"@openzeppelin/contracts/token/ERC20/ERC20.sol\":7721:7929  function _mint(address account, uint256 value) internal {... */\n          pop\n          pop\n          jump\t// out\n            /* \"@openzeppelin/contracts/token/ERC20/ERC20.sol\":6271:7378  function _update(address from, address to, uint256 value) internal virtual {... */\n        tag_28:\n            /* \"@openzeppelin/contracts/token/ERC20/ERC20.sol\":6376:6377  0 */\n          0x00\n            /* \"@openzeppelin/contracts/token/ERC20/ERC20.sol\":6360:6378  from == address(0) */\n          0xffffffffffffffffffffffffffffffffffffffff\n          and\n            /* \"@openzeppelin/contracts/token/ERC20/ERC20.sol\":6360:6364  from */\n          dup4\n            /* \"@openzeppelin/contracts/token/ERC20/ERC20.sol\":6360:6378  from == address(0) */\n          0xffffffffffffffffffffffffffffffffffffffff\n          and\n          sub\n            /* \"@openzeppelin/contracts/token/ERC20/ERC20.sol\":6356:6896  if (from == address(0)) {... */\n          tag_30\n          jumpi\n            /* \"@openzeppelin/contracts/token/ERC20/ERC20.sol\":6512:6517  value */\n          dup1\n            /* \"@openzeppelin/contracts/token/ERC20/ERC20.sol\":6496:6508  _totalSupply */\n          0x02\n          0x00\n            /* \"@openzeppelin/contracts/token/ERC20/ERC20.sol\":6496:6517  _totalSupply += value */\n          dup3\n          dup3\n          sload\n          tag_31\n          swap2\n          swap1\n          tag_32\n          jump\t// in\n        tag_31:\n          swap3\n          pop\n          pop\n          dup2\n          swap1\n          sstore\n          pop\n            /* \"@openzeppelin/contracts/token/ERC20/ERC20.sol\":6356:6896  if (from == address(0)) {... */\n          jump(tag_33)\n        tag_30:\n            /* \"@openzeppelin/contracts/token/ERC20/ERC20.sol\":6548:6567  uint256 fromBalance */\n          0x00\n            /* \"@openzeppelin/contracts/token/ERC20/ERC20.sol\":6570:6579  _balances */\n          dup1\n            /* \"@openzeppelin/contracts/token/ERC20/ERC20.sol\":6570:6585  _balances[from] */\n          0x00\n            /* \"@openzeppelin/contracts/token/ERC20/ERC20.sol\":6580:6584  from */\n          dup6\n            /* \"@openzeppelin/contracts/token/ERC20/ERC20.sol\":6570:6585  _balances[from] */\n          0xffffffffffffffffffffffffffffffffffffffff\n          and\n          0xffffffffffffffffffffffffffffffffffffffff\n          and\n          dup2\n          mstore\n          0x20\n          add\n          swap1\n          dup2\n          mstore\n          0x20\n          add\n          0x00\n          keccak256\n          sload\n            /* \"@openzeppelin/contracts/token/ERC20/ERC20.sol\":6548:6585  uint256 fromBalance = _balances[from] */\n          swap1\n          pop\n            /* \"@openzeppelin/contracts/token/ERC20/ERC20.sol\":6617:6622  value */\n          dup2\n            /* \"@openzeppelin/contracts/token/ERC20/ERC20.sol\":6603:6614  fromBalance */\n          dup2\n            /* \"@openzeppelin/contracts/token/ERC20/ERC20.sol\":6603:6622  fromBalance < value */\n          lt\n            /* \"@openzeppelin/contracts/token/ERC20/ERC20.sol\":6599:6714  if (fromBalance < value) {... */\n          iszero\n          tag_34\n          jumpi\n            /* \"@openzeppelin/contracts/token/ERC20/ERC20.sol\":6674:6678  from */\n          dup4\n            /* \"@openzeppelin/contracts/token/ERC20/ERC20.sol\":6680:6691  fromBalance */\n          dup2\n            /* \"@openzeppelin/contracts/token/ERC20/ERC20.sol\":6693:6698  value */\n          dup4\n            /* \"@openzeppelin/contracts/token/ERC20/ERC20.sol\":6649:6699  ERC20InsufficientBalance(from, fromBalance, value) */\n          mload(0x40)\n          0xe450d38c00000000000000000000000000000000000000000000000000000000\n          dup2\n          mstore\n          0x04\n          add\n          tag_35\n          swap4\n          swap3\n          swap2\n          swap1\n          tag_36\n          jump\t// in\n        tag_35:\n          mload(0x40)\n          dup1\n          swap2\n          sub\n          swap1\n          revert\n            /* \"@openzeppelin/contracts/token/ERC20/ERC20.sol\":6599:6714  if (fromBalance < value) {... */\n        tag_34:\n            /* \"@openzeppelin/contracts/token/ERC20/ERC20.sol\":6866:6871  value */\n          dup2\n            /* \"@openzeppelin/contracts/token/ERC20/ERC20.sol\":6852:6863  fromBalance */\n          dup2\n            /* \"@openzeppelin/contracts/token/ERC20/ERC20.sol\":6852:6871  fromBalance - value */\n          sub\n            /* \"@openzeppelin/contracts/token/ERC20/ERC20.sol\":6834:6843  _balances */\n          0x00\n            /* \"@openzeppelin/contracts/token/ERC20/ERC20.sol\":6834:6849  _balances[from] */\n          dup1\n            /* \"@openzeppelin/contracts/token/ERC20/ERC20.sol\":6844:6848  from */\n          dup7\n            /* \"@openzeppelin/contracts/token/ERC20/ERC20.sol\":6834:6849  _balances[from] */\n          0xffffffffffffffffffffffffffffffffffffffff\n          and\n          0xffffffffffffffffffffffffffffffffffffffff\n          and\n          dup2\n          mstore\n          0x20\n          add\n          swap1\n          dup2\n          mstore\n          0x20\n          add\n          0x00\n          keccak256\n            /* \"@openzeppelin/contracts/token/ERC20/ERC20.sol\":6834:6871  _balances[from] = fromBalance - value */\n          dup2\n          swap1\n          sstore\n          pop\n            /* \"@openzeppelin/contracts/token/ERC20/ERC20.sol\":6534:6896  {... */\n          pop\n            /* \"@openzeppelin/contracts/token/ERC20/ERC20.sol\":6356:6896  if (from == address(0)) {... */\n        tag_33:\n            /* \"@openzeppelin/contracts/token/ERC20/ERC20.sol\":6924:6925  0 */\n          0x00\n            /* \"@openzeppelin/contracts/token/ERC20/ERC20.sol\":6910:6926  to == address(0) */\n          0xffffffffffffffffffffffffffffffffffffffff\n          and\n            /* \"@openzeppelin/contracts/token/ERC20/ERC20.sol\":6910:6912  to */\n          dup3\n            /* \"@openzeppelin/contracts/token/ERC20/ERC20.sol\":6910:6926  to == address(0) */\n          0xffffffffffffffffffffffffffffffffffffffff\n          and\n          sub\n            /* \"@openzeppelin/contracts/token/ERC20/ERC20.sol\":6906:7331  if (to == address(0)) {... */\n          tag_37\n          jumpi\n            /* \"@openzeppelin/contracts/token/ERC20/ERC20.sol\":7089:7094  value */\n          dup1\n            /* \"@openzeppelin/contracts/token/ERC20/ERC20.sol\":7073:7085  _totalSupply */\n          0x02\n          0x00\n            /* \"@openzeppelin/contracts/token/ERC20/ERC20.sol\":7073:7094  _totalSupply -= value */\n          dup3\n          dup3\n          sload\n          sub\n          swap3\n          pop\n          pop\n          dup2\n          swap1\n          sstore\n          pop\n            /* \"@openzeppelin/contracts/token/ERC20/ERC20.sol\":6906:7331  if (to == address(0)) {... */\n          jump(tag_38)\n        tag_37:\n            /* \"@openzeppelin/contracts/token/ERC20/ERC20.sol\":7301:7306  value */\n          dup1\n            /* \"@openzeppelin/contracts/token/ERC20/ERC20.sol\":7284:7293  _balances */\n          0x00\n            /* \"@openzeppelin/contracts/token/ERC20/ERC20.sol\":7284:7297  _balances[to] */\n          dup1\n            /* \"@openzeppelin/contracts/token/ERC20/ERC20.sol\":7294:7296  to */\n          dup5\n            /* \"@openzeppelin/contracts/token/ERC20/ERC20.sol\":7284:7297  _balances[to] */\n          0xffffffffffffffffffffffffffffffffffffffff\n          and\n          0xffffffffffffffffffffffffffffffffffffffff\n          and\n          dup2\n          mstore\n          0x20\n          add\n          swap1\n          dup2\n          mstore\n          0x20\n          add\n          0x00\n          keccak256\n          0x00\n            /* \"@openzeppelin/contracts/token/ERC20/ERC20.sol\":7284:7306  _balances[to] += value */\n          dup3\n          dup3\n          sload\n          add\n          swap3\n          pop\n          pop\n          dup2\n          swap1\n          sstore\n          pop\n            /* \"@openzeppelin/contracts/token/ERC20/ERC20.sol\":6906:7331  if (to == address(0)) {... */\n        tag_38:\n            /* \"@openzeppelin/contracts/token/ERC20/ERC20.sol\":7361:7363  to */\n          dup2\n            /* \"@openzeppelin/contracts/token/ERC20/ERC20.sol\":7346:7371  Transfer(from, to, value) */\n          0xffffffffffffffffffffffffffffffffffffffff\n          and\n            /* \"@openzeppelin/contracts/token/ERC20/ERC20.sol\":7355:7359  from */\n          dup4\n            /* \"@openzeppelin/contracts/token/ERC20/ERC20.sol\":7346:7371  Transfer(from, to, value) */\n          0xffffffffffffffffffffffffffffffffffffffff\n          and\n          0xddf252ad1be2c89b69c2b068fc378daa952ba7f163c4a11628f55a4df523b3ef\n            /* \"@openzeppelin/contracts/token/ERC20/ERC20.sol\":7365:7370  value */\n          dup4\n            /* \"@openzeppelin/contracts/token/ERC20/ERC20.sol\":7346:7371  Transfer(from, to, value) */\n          mload(0x40)\n          tag_39\n          swap2\n          swap1\n          tag_40\n          jump\t// in\n        tag_39:\n          mload(0x40)\n          dup1\n          swap2\n          sub\n          swap1\n          log3\n            /* \"@openzeppelin/contracts/token/ERC20/ERC20.sol\":6271:7378  function _update(address from, address to, uint256 value) internal virtual {... */\n          pop\n          pop\n          pop\n          jump\t// out\n            /* \"#utility.yul\":7:82   */\n        tag_41:\n            /* \"#utility.yul\":40:46   */\n          0x00\n            /* \"#utility.yul\":73:75   */\n          0x40\n            /* \"#utility.yul\":67:76   */\n          mload\n            /* \"#utility.yul\":57:76   */\n          swap1\n          pop\n            /* \"#utility.yul\":7:82   */\n          swap1\n          jump\t// out\n            /* \"#utility.yul\":88:205   */\n        tag_42:\n            /* \"#utility.yul\":197:198   */\n          0x00\n            /* \"#utility.yul\":194:195   */\n          dup1\n            /* \"#utility.yul\":187:199   */\n          revert\n            /* \"#utility.yul\":211:328   */\n        tag_43:\n            /* \"#utility.yul\":320:321   */\n          0x00\n            /* \"#utility.yul\":317:318   */\n          dup1\n            /* \"#utility.yul\":310:322   */\n          revert\n            /* \"#utility.yul\":334:451   */\n        tag_44:\n            /* \"#utility.yul\":443:444   */\n          0x00\n            /* \"#utility.yul\":440:441   */\n          dup1\n            /* \"#utility.yul\":433:445   */\n          revert\n            /* \"#utility.yul\":457:574   */\n        tag_45:\n            /* \"#utility.yul\":566:567   */\n          0x00\n            /* \"#utility.yul\":563:564   */\n          dup1\n            /* \"#utility.yul\":556:568   */\n          revert\n            /* \"#utility.yul\":580:682   */\n        tag_46:\n            /* \"#utility.yul\":621:627   */\n          0x00\n            /* \"#utility.yul\":672:674   */\n          0x1f\n            /* \"#utility.yul\":668:675   */\n          not\n            /* \"#utility.yul\":663:665   */\n          0x1f\n            /* \"#utility.yul\":656:661   */\n          dup4\n            /* \"#utility.yul\":652:666   */\n          add\n            /* \"#utility.yul\":648:676   */\n          and\n            /* \"#utility.yul\":638:676   */\n          swap1\n          pop\n            /* \"#utility.yul\":580:682   */\n          swap2\n          swap1\n          pop\n          jump\t// out\n            /* \"#utility.yul\":688:868   */\n        tag_47:\n            /* \"#utility.yul\":736:813   */\n          0x4e487b7100000000000000000000000000000000000000000000000000000000\n            /* \"#utility.yul\":733:734   */\n          0x00\n            /* \"#utility.yul\":726:814   */\n          mstore\n            /* \"#utility.yul\":833:837   */\n          0x41\n            /* \"#utility.yul\":830:831   */\n          0x04\n            /* \"#utility.yul\":823:838   */\n          mstore\n            /* \"#utility.yul\":857:861   */\n          0x24\n            /* \"#utility.yul\":854:855   */\n          0x00\n            /* \"#utility.yul\":847:862   */\n          revert\n            /* \"#utility.yul\":874:1155   */\n        tag_48:\n            /* \"#utility.yul\":957:984   */\n          tag_91\n            /* \"#utility.yul\":979:983   */\n          dup3\n            /* \"#utility.yul\":957:984   */\n          tag_46\n          jump\t// in\n        tag_91:\n            /* \"#utility.yul\":949:955   */\n          dup2\n            /* \"#utility.yul\":945:985   */\n          add\n            /* \"#utility.yul\":1087:1093   */\n          dup2\n            /* \"#utility.yul\":1075:1085   */\n          dup2\n            /* \"#utility.yul\":1072:1094   */\n          lt\n            /* \"#utility.yul\":1051:1069   */\n          0xffffffffffffffff\n            /* \"#utility.yul\":1039:1049   */\n          dup3\n            /* \"#utility.yul\":1036:1070   */\n          gt\n            /* \"#utility.yul\":1033:1095   */\n          or\n            /* \"#utility.yul\":1030:1118   */\n          iszero\n          tag_92\n          jumpi\n            /* \"#utility.yul\":1098:1116   */\n          tag_93\n          tag_47\n          jump\t// in\n        tag_93:\n            /* \"#utility.yul\":1030:1118   */\n        tag_92:\n            /* \"#utility.yul\":1138:1148   */\n          dup1\n            /* \"#utility.yul\":1134:1136   */\n          0x40\n            /* \"#utility.yul\":1127:1149   */\n          mstore\n            /* \"#utility.yul\":917:1155   */\n          pop\n            /* \"#utility.yul\":874:1155   */\n          pop\n          pop\n          jump\t// out\n            /* \"#utility.yul\":1161:1290   */\n        tag_49:\n            /* \"#utility.yul\":1195:1201   */\n          0x00\n            /* \"#utility.yul\":1222:1242   */\n          tag_95\n          tag_41\n          jump\t// in\n        tag_95:\n            /* \"#utility.yul\":1212:1242   */\n          swap1\n          pop\n            /* \"#utility.yul\":1251:1284   */\n          tag_96\n            /* \"#utility.yul\":1279:1283   */\n          dup3\n            /* \"#utility.yul\":1271:1277   */\n          dup3\n            /* \"#utility.yul\":1251:1284   */\n          tag_48\n          jump\t// in\n        tag_96:\n            /* \"#utility.yul\":1161:1290   */\n          swap2\n          swap1\n          pop\n          jump\t// out\n            /* \"#utility.yul\":1296:1604   */\n        tag_50:\n            /* \"#utility.yul\":1358:1362   */\n          0x00\n            /* \"#utility.yul\":1448:1466   */\n          0xffffffffffffffff\n            /* \"#utility.yul\":1440:1446   */\n          dup3\n            /* \"#utility.yul\":1437:1467   */\n          gt\n            /* \"#utility.yul\":1434:1490   */\n          iszero\n          tag_98\n          jumpi\n            /* \"#utility.yul\":1470:1488   */\n          tag_99\n          tag_47\n          jump\t// in\n        tag_99:\n            /* \"#utility.yul\":1434:1490   */\n        tag_98:\n            /* \"#utility.yul\":1508:1537   */\n          tag_100\n            /* \"#utility.yul\":1530:1536   */\n          dup3\n            /* \"#utility.yul\":1508:1537   */\n          tag_46\n          jump\t// in\n        tag_100:\n            /* \"#utility.yul\":1500:1537   */\n          swap1\n          pop\n            /* \"#utility.yul\":1592:1596   */\n          0x20\n            /* \"#utility.yul\":1586:1590   */\n          dup2\n            /* \"#utility.yul\":1582:1597   */\n          add\n            /* \"#utility.yul\":1574:1597   */\n          swap1\n          pop\n            /* \"#utility.yul\":1296:1604   */\n          swap2\n          swap1\n          pop\n          jump\t// out\n            /* \"#utility.yul\":1610:1856   */\n        tag_51:\n            /* \"#utility.yul\":1691:1692   */\n          0x00\n            /* \"#utility.yul\":1701:1814   */\n        tag_102:\n            /* \"#utility.yul\":1715:1721   */\n          dup4\n            /* \"#utility.yul\":1712:1713   */\n          dup2\n            /* \"#utility.yul\":1709:1722   */\n          lt\n            /* \"#utility.yul\":1701:1814   */\n          iszero\n          tag_104\n          jumpi\n            /* \"#utility.yul\":1800:1801   */\n          dup1\n            /* \"#utility.yul\":1795:1798   */\n          dup3\n            /* \"#utility.yul\":1791:1802   */\n          add\n            /* \"#utility.yul\":1785:1803   */\n          mload\n            /* \"#utility.yul\":1781:1782   */\n          dup2\n            /* \"#utility.yul\":1776:1779   */\n          dup5\n            /* \"#utility.yul\":1772:1783   */\n          add\n            /* \"#utility.yul\":1765:1804   */\n          mstore\n            /* \"#utility.yul\":1737:1739   */\n          0x20\n            /* \"#utility.yul\":1734:1735   */\n          dup2\n            /* \"#utility.yul\":1730:1740   */\n          add\n            /* \"#utility.yul\":1725:1740   */\n          swap1\n          pop\n            /* \"#utility.yul\":1701:1814   */\n          jump(tag_102)\n        tag_104:\n            /* \"#utility.yul\":1848:1849   */\n          0x00\n            /* \"#utility.yul\":1839:1845   */\n          dup5\n            /* \"#utility.yul\":1834:1837   */\n          dup5\n            /* \"#utility.yul\":1830:1846   */\n          add\n            /* \"#utility.yul\":1823:1850   */\n          mstore\n            /* \"#utility.yul\":1672:1856   */\n          pop\n            /* \"#utility.yul\":1610:1856   */\n          pop\n          pop\n          pop\n          jump\t// out\n            /* \"#utility.yul\":1862:2296   */\n        tag_52:\n            /* \"#utility.yul\":1951:1956   */\n          0x00\n            /* \"#utility.yul\":1976:2042   */\n          tag_106\n            /* \"#utility.yul\":1992:2041   */\n          tag_107\n            /* \"#utility.yul\":2034:2040   */\n          dup5\n            /* \"#utility.yul\":1992:2041   */\n          tag_50\n          jump\t// in\n        tag_107:\n            /* \"#utility.yul\":1976:2042   */\n          tag_49\n          jump\t// in\n        tag_106:\n            /* \"#utility.yul\":1967:2042   */\n          swap1\n          pop\n            /* \"#utility.yul\":2065:2071   */\n          dup3\n            /* \"#utility.yul\":2058:2063   */\n          dup2\n            /* \"#utility.yul\":2051:2072   */\n          mstore\n            /* \"#utility.yul\":2103:2107   */\n          0x20\n            /* \"#utility.yul\":2096:2101   */\n          dup2\n            /* \"#utility.yul\":2092:2108   */\n          add\n            /* \"#utility.yul\":2141:2144   */\n          dup5\n            /* \"#utility.yul\":2132:2138   */\n          dup5\n            /* \"#utility.yul\":2127:2130   */\n          dup5\n            /* \"#utility.yul\":2123:2139   */\n          add\n            /* \"#utility.yul\":2120:2145   */\n          gt\n            /* \"#utility.yul\":2117:2229   */\n          iszero\n          tag_108\n          jumpi\n            /* \"#utility.yul\":2148:2227   */\n          tag_109\n          tag_45\n          jump\t// in\n        tag_109:\n            /* \"#utility.yul\":2117:2229   */\n        tag_108:\n            /* \"#utility.yul\":2238:2290   */\n          tag_110\n            /* \"#utility.yul\":2283:2289   */\n          dup5\n            /* \"#utility.yul\":2278:2281   */\n          dup3\n            /* \"#utility.yul\":2273:2276   */\n          dup6\n            /* \"#utility.yul\":2238:2290   */\n          tag_51\n          jump\t// in\n        tag_110:\n            /* \"#utility.yul\":1957:2296   */\n          pop\n            /* \"#utility.yul\":1862:2296   */\n          swap4\n          swap3\n          pop\n          pop\n          pop\n          jump\t// out\n            /* \"#utility.yul\":2316:2671   */\n        tag_53:\n            /* \"#utility.yul\":2383:2388   */\n          0x00\n            /* \"#utility.yul\":2432:2435   */\n          dup3\n            /* \"#utility.yul\":2425:2429   */\n          0x1f\n            /* \"#utility.yul\":2417:2423   */\n          dup4\n            /* \"#utility.yul\":2413:2430   */\n          add\n            /* \"#utility.yul\":2409:2436   */\n          slt\n            /* \"#utility.yul\":2399:2521   */\n          tag_112\n          jumpi\n            /* \"#utility.yul\":2440:2519   */\n          tag_113\n          tag_44\n          jump\t// in\n        tag_113:\n            /* \"#utility.yul\":2399:2521   */\n        tag_112:\n            /* \"#utility.yul\":2550:2556   */\n          dup2\n            /* \"#utility.yul\":2544:2557   */\n          mload\n            /* \"#utility.yul\":2575:2665   */\n          tag_114\n            /* \"#utility.yul\":2661:2664   */\n          dup5\n            /* \"#utility.yul\":2653:2659   */\n          dup3\n            /* \"#utility.yul\":2646:2650   */\n          0x20\n            /* \"#utility.yul\":2638:2644   */\n          dup7\n            /* \"#utility.yul\":2634:2651   */\n          add\n            /* \"#utility.yul\":2575:2665   */\n          tag_52\n          jump\t// in\n        tag_114:\n            /* \"#utility.yul\":2566:2665   */\n          swap2\n          pop\n            /* \"#utility.yul\":2389:2671   */\n          pop\n            /* \"#utility.yul\":2316:2671   */\n          swap3\n          swap2\n          pop\n          pop\n          jump\t// out\n            /* \"#utility.yul\":2677:2754   */\n        tag_54:\n            /* \"#utility.yul\":2714:2721   */\n          0x00\n            /* \"#utility.yul\":2743:2748   */\n          dup2\n            /* \"#utility.yul\":2732:2748   */\n          swap1\n          pop\n            /* \"#utility.yul\":2677:2754   */\n          swap2\n          swap1\n          pop\n          jump\t// out\n            /* \"#utility.yul\":2760:2882   */\n        tag_55:\n            /* \"#utility.yul\":2833:2857   */\n          tag_117\n            /* \"#utility.yul\":2851:2856   */\n          dup2\n            /* \"#utility.yul\":2833:2857   */\n          tag_54\n          jump\t// in\n        tag_117:\n            /* \"#utility.yul\":2826:2831   */\n          dup2\n            /* \"#utility.yul\":2823:2858   */\n          eq\n            /* \"#utility.yul\":2813:2876   */\n          tag_118\n          jumpi\n            /* \"#utility.yul\":2872:2873   */\n          0x00\n            /* \"#utility.yul\":2869:2870   */\n          dup1\n            /* \"#utility.yul\":2862:2874   */\n          revert\n            /* \"#utility.yul\":2813:2876   */\n        tag_118:\n            /* \"#utility.yul\":2760:2882   */\n          pop\n          jump\t// out\n            /* \"#utility.yul\":2888:3031   */\n        tag_56:\n            /* \"#utility.yul\":2945:2950   */\n          0x00\n            /* \"#utility.yul\":2976:2982   */\n          dup2\n            /* \"#utility.yul\":2970:2983   */\n          mload\n            /* \"#utility.yul\":2961:2983   */\n          swap1\n          pop\n            /* \"#utility.yul\":2992:3025   */\n          tag_120\n            /* \"#utility.yul\":3019:3024   */\n          dup2\n            /* \"#utility.yul\":2992:3025   */\n          tag_55\n          jump\t// in\n        tag_120:\n            /* \"#utility.yul\":2888:3031   */\n          swap3\n          swap2\n          pop\n          pop\n          jump\t// out\n            /* \"#utility.yul\":3037:3163   */\n        tag_57:\n            /* \"#utility.yul\":3074:3081   */\n          0x00\n            /* \"#utility.yul\":3114:3156   */\n          0xffffffffffffffffffffffffffffffffffffffff\n            /* \"#utility.yul\":3107:3112   */\n          dup3\n            /* \"#utility.yul\":3103:3157   */\n          and\n            /* \"#utility.yul\":3092:3157   */\n          swap1\n          pop\n            /* \"#utility.yul\":3037:3163   */\n          swap2\n          swap1\n          pop\n          jump\t// out\n            /* \"#utility.yul\":3169:3265   */\n        tag_58:\n            /* \"#utility.yul\":3206:3213   */\n          0x00\n            /* \"#utility.yul\":3235:3259   */\n          tag_123\n            /* \"#utility.yul\":3253:3258   */\n          dup3\n            /* \"#utility.yul\":3235:3259   */\n          tag_57\n          jump\t// in\n        tag_123:\n            /* \"#utility.yul\":3224:3259   */\n          swap1\n          pop\n            /* \"#utility.yul\":3169:3265   */\n          swap2\n          swap1\n          pop\n          jump\t// out\n            /* \"#utility.yul\":3271:3393   */\n        tag_59:\n            /* \"#utility.yul\":3344:3368   */\n          tag_125\n            /* \"#utility.yul\":3362:3367   */\n          dup2\n            /* \"#utility.yul\":3344:3368   */\n          tag_58\n          jump\t// in\n        tag_125:\n            /* \"#utility.yul\":3337:3342   */\n          dup2\n            /* \"#utility.yul\":3334:3369   */\n          eq\n            /* \"#utility.yul\":3324:3387   */\n          tag_126\n          jumpi\n            /* \"#utility.yul\":3383:3384   */\n          0x00\n            /* \"#utility.yul\":3380:3381   */\n          dup1\n            /* \"#utility.yul\":3373:3385   */\n          revert\n            /* \"#utility.yul\":3324:3387   */\n        tag_126:\n            /* \"#utility.yul\":3271:3393   */\n          pop\n          jump\t// out\n            /* \"#utility.yul\":3399:3542   */\n        tag_60:\n            /* \"#utility.yul\":3456:3461   */\n          0x00\n            /* \"#utility.yul\":3487:3493   */\n          dup2\n            /* \"#utility.yul\":3481:3494   */\n          mload\n            /* \"#utility.yul\":3472:3494   */\n          swap1\n          pop\n            /* \"#utility.yul\":3503:3536   */\n          tag_128\n            /* \"#utility.yul\":3530:3535   */\n          dup2\n            /* \"#utility.yul\":3503:3536   */\n          tag_59\n          jump\t// in\n        tag_128:\n            /* \"#utility.yul\":3399:3542   */\n          swap3\n          swap2\n          pop\n          pop\n          jump\t// out\n            /* \"#utility.yul\":3548:4714   */\n        tag_3:\n            /* \"#utility.yul\":3665:3671   */\n          0x00\n            /* \"#utility.yul\":3673:3679   */\n          dup1\n            /* \"#utility.yul\":3681:3687   */\n          0x00\n            /* \"#utility.yul\":3689:3695   */\n          dup1\n            /* \"#utility.yul\":3738:3741   */\n          0x80\n            /* \"#utility.yul\":3726:3735   */\n          dup6\n            /* \"#utility.yul\":3717:3724   */\n          dup8\n            /* \"#utility.yul\":3713:3736   */\n          sub\n            /* \"#utility.yul\":3709:3742   */\n          slt\n            /* \"#utility.yul\":3706:3826   */\n          iszero\n          tag_130\n          jumpi\n            /* \"#utility.yul\":3745:3824   */\n          tag_131\n          tag_42\n          jump\t// in\n        tag_131:\n            /* \"#utility.yul\":3706:3826   */\n        tag_130:\n            /* \"#utility.yul\":3886:3887   */\n          0x00\n            /* \"#utility.yul\":3875:3884   */\n          dup6\n            /* \"#utility.yul\":3871:3888   */\n          add\n            /* \"#utility.yul\":3865:3889   */\n          mload\n            /* \"#utility.yul\":3916:3934   */\n          0xffffffffffffffff\n            /* \"#utility.yul\":3908:3914   */\n          dup2\n            /* \"#utility.yul\":3905:3935   */\n          gt\n            /* \"#utility.yul\":3902:4019   */\n          iszero\n          tag_132\n          jumpi\n            /* \"#utility.yul\":3938:4017   */\n          tag_133\n          tag_43\n          jump\t// in\n        tag_133:\n            /* \"#utility.yul\":3902:4019   */\n        tag_132:\n            /* \"#utility.yul\":4043:4117   */\n          tag_134\n            /* \"#utility.yul\":4109:4116   */\n          dup8\n            /* \"#utility.yul\":4100:4106   */\n          dup3\n            /* \"#utility.yul\":4089:4098   */\n          dup9\n            /* \"#utility.yul\":4085:4107   */\n          add\n            /* \"#utility.yul\":4043:4117   */\n          tag_53\n          jump\t// in\n        tag_134:\n            /* \"#utility.yul\":4033:4117   */\n          swap5\n          pop\n            /* \"#utility.yul\":3836:4127   */\n          pop\n            /* \"#utility.yul\":4187:4189   */\n          0x20\n            /* \"#utility.yul\":4176:4185   */\n          dup6\n            /* \"#utility.yul\":4172:4190   */\n          add\n            /* \"#utility.yul\":4166:4191   */\n          mload\n            /* \"#utility.yul\":4218:4236   */\n          0xffffffffffffffff\n            /* \"#utility.yul\":4210:4216   */\n          dup2\n            /* \"#utility.yul\":4207:4237   */\n          gt\n            /* \"#utility.yul\":4204:4321   */\n          iszero\n          tag_135\n          jumpi\n            /* \"#utility.yul\":4240:4319   */\n          tag_136\n          tag_43\n          jump\t// in\n        tag_136:\n            /* \"#utility.yul\":4204:4321   */\n        tag_135:\n            /* \"#utility.yul\":4345:4419   */\n          tag_137\n            /* \"#utility.yul\":4411:4418   */\n          dup8\n            /* \"#utility.yul\":4402:4408   */\n          dup3\n            /* \"#utility.yul\":4391:4400   */\n          dup9\n            /* \"#utility.yul\":4387:4409   */\n          add\n            /* \"#utility.yul\":4345:4419   */\n          tag_53\n          jump\t// in\n        tag_137:\n            /* \"#utility.yul\":4335:4419   */\n          swap4\n          pop\n            /* \"#utility.yul\":4137:4429   */\n          pop\n            /* \"#utility.yul\":4468:4470   */\n          0x40\n            /* \"#utility.yul\":4494:4558   */\n          tag_138\n            /* \"#utility.yul\":4550:4557   */\n          dup8\n            /* \"#utility.yul\":4541:4547   */\n          dup3\n            /* \"#utility.yul\":4530:4539   */\n          dup9\n            /* \"#utility.yul\":4526:4548   */\n          add\n            /* \"#utility.yul\":4494:4558   */\n          tag_56\n          jump\t// in\n        tag_138:\n            /* \"#utility.yul\":4484:4558   */\n          swap3\n          pop\n            /* \"#utility.yul\":4439:4568   */\n          pop\n            /* \"#utility.yul\":4607:4609   */\n          0x60\n            /* \"#utility.yul\":4633:4697   */\n          tag_139\n            /* \"#utility.yul\":4689:4696   */\n          dup8\n            /* \"#utility.yul\":4680:4686   */\n          dup3\n            /* \"#utility.yul\":4669:4678   */\n          dup9\n            /* \"#utility.yul\":4665:4687   */\n          add\n            /* \"#utility.yul\":4633:4697   */\n          tag_60\n          jump\t// in\n        tag_139:\n            /* \"#utility.yul\":4623:4697   */\n          swap2\n          pop\n            /* \"#utility.yul\":4578:4707   */\n          pop\n            /* \"#utility.yul\":3548:4714   */\n          swap3\n          swap6\n          swap2\n          swap5\n          pop\n          swap3\n          pop\n          jump\t// out\n            /* \"#utility.yul\":4720:4819   */\n        tag_61:\n            /* \"#utility.yul\":4772:4778   */\n          0x00\n            /* \"#utility.yul\":4806:4811   */\n          dup2\n            /* \"#utility.yul\":4800:4812   */\n          mload\n            /* \"#utility.yul\":4790:4812   */\n          swap1\n          pop\n            /* \"#utility.yul\":4720:4819   */\n          swap2\n          swap1\n          pop\n          jump\t// out\n            /* \"#utility.yul\":4825:5005   */\n        tag_62:\n            /* \"#utility.yul\":4873:4950   */\n          0x4e487b7100000000000000000000000000000000000000000000000000000000\n            /* \"#utility.yul\":4870:4871   */\n          0x00\n            /* \"#utility.yul\":4863:4951   */\n          mstore\n            /* \"#utility.yul\":4970:4974   */\n          0x22\n            /* \"#utility.yul\":4967:4968   */\n          0x04\n            /* \"#utility.yul\":4960:4975   */\n          mstore\n            /* \"#utility.yul\":4994:4998   */\n          0x24\n            /* \"#utility.yul\":4991:4992   */\n          0x00\n            /* \"#utility.yul\":4984:4999   */\n          revert\n            /* \"#utility.yul\":5011:5331   */\n        tag_63:\n            /* \"#utility.yul\":5055:5061   */\n          0x00\n            /* \"#utility.yul\":5092:5093   */\n          0x02\n            /* \"#utility.yul\":5086:5090   */\n          dup3\n            /* \"#utility.yul\":5082:5094   */\n          div\n            /* \"#utility.yul\":5072:5094   */\n          swap1\n          pop\n            /* \"#utility.yul\":5139:5140   */\n          0x01\n            /* \"#utility.yul\":5133:5137   */\n          dup3\n            /* \"#utility.yul\":5129:5141   */\n          and\n            /* \"#utility.yul\":5160:5178   */\n          dup1\n            /* \"#utility.yul\":5150:5231   */\n          tag_143\n          jumpi\n            /* \"#utility.yul\":5216:5220   */\n          0x7f\n            /* \"#utility.yul\":5208:5214   */\n          dup3\n            /* \"#utility.yul\":5204:5221   */\n          and\n            /* \"#utility.yul\":5194:5221   */\n          swap2\n          pop\n            /* \"#utility.yul\":5150:5231   */\n        tag_143:\n            /* \"#utility.yul\":5278:5280   */\n          0x20\n            /* \"#utility.yul\":5270:5276   */\n          dup3\n            /* \"#utility.yul\":5267:5281   */\n          lt\n            /* \"#utility.yul\":5247:5265   */\n          dup2\n            /* \"#utility.yul\":5244:5282   */\n          sub\n            /* \"#utility.yul\":5241:5325   */\n          tag_144\n          jumpi\n            /* \"#utility.yul\":5297:5315   */\n          tag_145\n          tag_62\n          jump\t// in\n        tag_145:\n            /* \"#utility.yul\":5241:5325   */\n        tag_144:\n            /* \"#utility.yul\":5062:5331   */\n          pop\n            /* \"#utility.yul\":5011:5331   */\n          swap2\n          swap1\n          pop\n          jump\t// out\n            /* \"#utility.yul\":5337:5478   */\n        tag_64:\n            /* \"#utility.yul\":5386:5390   */\n          0x00\n            /* \"#utility.yul\":5409:5412   */\n          dup2\n            /* \"#utility.yul\":5401:5412   */\n          swap1\n          pop\n            /* \"#utility.yul\":5432:5435   */\n          dup2\n            /* \"#utility.yul\":5429:5430   */\n          0x00\n            /* \"#utility.yul\":5422:5436   */\n          mstore\n            /* \"#utility.yul\":5466:5470   */\n          0x20\n            /* \"#utility.yul\":5463:5464   */\n          0x00\n            /* \"#utility.yul\":5453:5471   */\n          keccak256\n            /* \"#utility.yul\":5445:5471   */\n          swap1\n          pop\n            /* \"#utility.yul\":5337:5478   */\n          swap2\n          swap1\n          pop\n          jump\t// out\n            /* \"#utility.yul\":5484:5577   */\n        tag_65:\n            /* \"#utility.yul\":5521:5527   */\n          0x00\n            /* \"#utility.yul\":5568:5570   */\n          0x20\n            /* \"#utility.yul\":5563:5565   */\n          0x1f\n            /* \"#utility.yul\":5556:5561   */\n          dup4\n            /* \"#utility.yul\":5552:5566   */\n          add\n            /* \"#utility.yul\":5548:5571   */\n          div\n            /* \"#utility.yul\":5538:5571   */\n          swap1\n          pop\n            /* \"#utility.yul\":5484:5577   */\n          swap2\n          swap1\n          pop\n          jump\t// out\n            /* \"#utility.yul\":5583:5690   */\n        tag_66:\n            /* \"#utility.yul\":5627:5635   */\n          0x00\n            /* \"#utility.yul\":5677:5682   */\n          dup3\n            /* \"#utility.yul\":5671:5675   */\n          dup3\n            /* \"#utility.yul\":5667:5683   */\n          shl\n            /* \"#utility.yul\":5646:5683   */\n          swap1\n          pop\n            /* \"#utility.yul\":5583:5690   */\n          swap3\n          swap2\n          pop\n          pop\n          jump\t// out\n            /* \"#utility.yul\":5696:6089   */\n        tag_67:\n            /* \"#utility.yul\":5765:5771   */\n          0x00\n            /* \"#utility.yul\":5815:5816   */\n          0x08\n            /* \"#utility.yul\":5803:5813   */\n          dup4\n            /* \"#utility.yul\":5799:5817   */\n          mul\n            /* \"#utility.yul\":5838:5935   */\n          tag_150\n            /* \"#utility.yul\":5868:5934   */\n          0xffffffffffffffffffffffffffffffffffffffffffffffffffffffffffffffff\n            /* \"#utility.yul\":5857:5866   */\n          dup3\n            /* \"#utility.yul\":5838:5935   */\n          tag_66\n          jump\t// in\n        tag_150:\n            /* \"#utility.yul\":5956:5995   */\n          tag_151\n            /* \"#utility.yul\":5986:5994   */\n          dup7\n            /* \"#utility.yul\":5975:5984   */\n          dup4\n            /* \"#utility.yul\":5956:5995   */\n          tag_66\n          jump\t// in\n        tag_151:\n            /* \"#utility.yul\":5944:5995   */\n          swap6\n          pop\n            /* \"#utility.yul\":6028:6032   */\n          dup1\n            /* \"#utility.yul\":6024:6033   */\n          not\n            /* \"#utility.yul\":6017:6022   */\n          dup5\n            /* \"#utility.yul\":6013:6034   */\n          and\n            /* \"#utility.yul\":6004:6034   */\n          swap4\n          pop\n            /* \"#utility.yul\":6077:6081   */\n          dup1\n            /* \"#utility.yul\":6067:6075   */\n          dup7\n            /* \"#utility.yul\":6063:6082   */\n          and\n            /* \"#utility.yul\":6056:6061   */\n          dup5\n            /* \"#utility.yul\":6053:6083   */\n          or\n            /* \"#utility.yul\":6043:6083   */\n          swap3\n          pop\n            /* \"#utility.yul\":5772:6089   */\n          pop\n          pop\n            /* \"#utility.yul\":5696:6089   */\n          swap4\n          swap3\n          pop\n          pop\n          pop\n          jump\t// out\n            /* \"#utility.yul\":6095:6155   */\n        tag_68:\n            /* \"#utility.yul\":6123:6126   */\n          0x00\n            /* \"#utility.yul\":6144:6149   */\n          dup2\n            /* \"#utility.yul\":6137:6149   */\n          swap1\n          pop\n            /* \"#utility.yul\":6095:6155   */\n          swap2\n          swap1\n          pop\n          jump\t// out\n            /* \"#utility.yul\":6161:6303   */\n        tag_69:\n            /* \"#utility.yul\":6211:6220   */\n          0x00\n            /* \"#utility.yul\":6244:6297   */\n          tag_154\n            /* \"#utility.yul\":6262:6296   */\n          tag_155\n            /* \"#utility.yul\":6271:6295   */\n          tag_156\n            /* \"#utility.yul\":6289:6294   */\n          dup5\n            /* \"#utility.yul\":6271:6295   */\n          tag_54\n          jump\t// in\n        tag_156:\n            /* \"#utility.yul\":6262:6296   */\n          tag_68\n          jump\t// in\n        tag_155:\n            /* \"#utility.yul\":6244:6297   */\n          tag_54\n          jump\t// in\n        tag_154:\n            /* \"#utility.yul\":6231:6297   */\n          swap1\n          pop\n            /* \"#utility.yul\":6161:6303   */\n          swap2\n          swap1\n          pop\n          jump\t// out\n            /* \"#utility.yul\":6309:6384   */\n        tag_70:\n            /* \"#utility.yul\":6352:6355   */\n          0x00\n            /* \"#utility.yul\":6373:6378   */\n          dup2\n            /* \"#utility.yul\":6366:6378   */\n          swap1\n          pop\n            /* \"#utility.yul\":6309:6384   */\n          swap2\n          swap1\n          pop\n          jump\t// out\n            /* \"#utility.yul\":6390:6659   */\n        tag_71:\n            /* \"#utility.yul\":6500:6539   */\n          tag_159\n            /* \"#utility.yul\":6531:6538   */\n          dup4\n            /* \"#utility.yul\":6500:6539   */\n          tag_69\n          jump\t// in\n        tag_159:\n            /* \"#utility.yul\":6561:6652   */\n          tag_160\n            /* \"#utility.yul\":6610:6651   */\n          tag_161\n            /* \"#utility.yul\":6634:6650   */\n          dup3\n            /* \"#utility.yul\":6610:6651   */\n          tag_70\n          jump\t// in\n        tag_161:\n            /* \"#utility.yul\":6602:6608   */\n          dup5\n            /* \"#utility.yul\":6595:6599   */\n          dup5\n            /* \"#utility.yul\":6589:6600   */\n          sload\n            /* \"#utility.yul\":6561:6652   */\n          tag_67\n          jump\t// in\n        tag_160:\n            /* \"#utility.yul\":6555:6559   */\n          dup3\n            /* \"#utility.yul\":6548:6653   */\n          sstore\n            /* \"#utility.yul\":6466:6659   */\n          pop\n            /* \"#utility.yul\":6390:6659   */\n          pop\n          pop\n          pop\n          jump\t// out\n            /* \"#utility.yul\":6665:6738   */\n        tag_72:\n            /* \"#utility.yul\":6710:6713   */\n          0x00\n            /* \"#utility.yul\":6665:6738   */\n          swap1\n          jump\t// out\n            /* \"#utility.yul\":6744:6933   */\n        tag_73:\n            /* \"#utility.yul\":6821:6853   */\n          tag_164\n          tag_72\n          jump\t// in\n        tag_164:\n            /* \"#utility.yul\":6862:6927   */\n          tag_165\n            /* \"#utility.yul\":6920:6926   */\n          dup2\n            /* \"#utility.yul\":6912:6918   */\n          dup5\n            /* \"#utility.yul\":6906:6910   */\n          dup5\n            /* \"#utility.yul\":6862:6927   */\n          tag_71\n          jump\t// in\n        tag_165:\n            /* \"#utility.yul\":6797:6933   */\n          pop\n            /* \"#utility.yul\":6744:6933   */\n          pop\n          pop\n          jump\t// out\n            /* \"#utility.yul\":6939:7125   */\n        tag_74:\n            /* \"#utility.yul\":6999:7119   */\n        tag_167:\n            /* \"#utility.yul\":7016:7019   */\n          dup2\n            /* \"#utility.yul\":7009:7014   */\n          dup2\n            /* \"#utility.yul\":7006:7020   */\n          lt\n            /* \"#utility.yul\":6999:7119   */\n          iszero\n          tag_169\n          jumpi\n            /* \"#utility.yul\":7070:7109   */\n          tag_170\n            /* \"#utility.yul\":7107:7108   */\n          0x00\n            /* \"#utility.yul\":7100:7105   */\n          dup3\n            /* \"#utility.yul\":7070:7109   */\n          tag_73\n          jump\t// in\n        tag_170:\n            /* \"#utility.yul\":7043:7044   */\n          0x01\n            /* \"#utility.yul\":7036:7041   */\n          dup2\n            /* \"#utility.yul\":7032:7045   */\n          add\n            /* \"#utility.yul\":7023:7045   */\n          swap1\n          pop\n            /* \"#utility.yul\":6999:7119   */\n          jump(tag_167)\n        tag_169:\n            /* \"#utility.yul\":6939:7125   */\n          pop\n          pop\n          jump\t// out\n            /* \"#utility.yul\":7131:7674   */\n        tag_75:\n            /* \"#utility.yul\":7232:7234   */\n          0x1f\n            /* \"#utility.yul\":7227:7230   */\n          dup3\n            /* \"#utility.yul\":7224:7235   */\n          gt\n            /* \"#utility.yul\":7221:7667   */\n          iszero\n          tag_172\n          jumpi\n            /* \"#utility.yul\":7266:7304   */\n          tag_173\n            /* \"#utility.yul\":7298:7303   */\n          dup2\n            /* \"#utility.yul\":7266:7304   */\n          tag_64\n          jump\t// in\n        tag_173:\n            /* \"#utility.yul\":7350:7379   */\n          tag_174\n            /* \"#utility.yul\":7368:7378   */\n          dup5\n            /* \"#utility.yul\":7350:7379   */\n          tag_65\n          jump\t// in\n        tag_174:\n            /* \"#utility.yul\":7340:7348   */\n          dup2\n            /* \"#utility.yul\":7336:7380   */\n          add\n            /* \"#utility.yul\":7533:7535   */\n          0x20\n            /* \"#utility.yul\":7521:7531   */\n          dup6\n            /* \"#utility.yul\":7518:7536   */\n          lt\n            /* \"#utility.yul\":7515:7564   */\n          iszero\n          tag_175\n          jumpi\n            /* \"#utility.yul\":7554:7562   */\n          dup2\n            /* \"#utility.yul\":7539:7562   */\n          swap1\n          pop\n            /* \"#utility.yul\":7515:7564   */\n        tag_175:\n            /* \"#utility.yul\":7577:7657   */\n          tag_176\n            /* \"#utility.yul\":7633:7655   */\n          tag_177\n            /* \"#utility.yul\":7651:7654   */\n          dup6\n            /* \"#utility.yul\":7633:7655   */\n          tag_65\n          jump\t// in\n        tag_177:\n            /* \"#utility.yul\":7623:7631   */\n          dup4\n            /* \"#utility.yul\":7619:7656   */\n          add\n            /* \"#utility.yul\":7606:7617   */\n          dup3\n            /* \"#utility.yul\":7577:7657   */\n          tag_74\n          jump\t// in\n        tag_176:\n            /* \"#utility.yul\":7236:7667   */\n          pop\n          pop\n            /* \"#utility.yul\":7221:7667   */\n        tag_172:\n            /* \"#utility.yul\":7131:7674   */\n          pop\n          pop\n          pop\n          jump\t// out\n            /* \"#utility.yul\":7680:7797   */\n        tag_76:\n            /* \"#utility.yul\":7734:7742   */\n          0x00\n            /* \"#utility.yul\":7784:7789   */\n          dup3\n            /* \"#utility.yul\":7778:7782   */\n          dup3\n            /* \"#utility.yul\":7774:7790   */\n          shr\n            /* \"#utility.yul\":7753:7790   */\n          swap1\n          pop\n            /* \"#utility.yul\":7680:7797   */\n          swap3\n          swap2\n          pop\n          pop\n          jump\t// out\n            /* \"#utility.yul\":7803:7972   */\n        tag_77:\n            /* \"#utility.yul\":7847:7853   */\n          0x00\n            /* \"#utility.yul\":7880:7931   */\n          tag_180\n            /* \"#utility.yul\":7928:7929   */\n          0x00\n            /* \"#utility.yul\":7924:7930   */\n          not\n            /* \"#utility.yul\":7916:7921   */\n          dup5\n            /* \"#utility.yul\":7913:7914   */\n          0x08\n            /* \"#utility.yul\":7909:7922   */\n          mul\n            /* \"#utility.yul\":7880:7931   */\n          tag_76\n          jump\t// in\n        tag_180:\n            /* \"#utility.yul\":7876:7932   */\n          not\n            /* \"#utility.yul\":7961:7965   */\n          dup1\n            /* \"#utility.yul\":7955:7959   */\n          dup4\n            /* \"#utility.yul\":7951:7966   */\n          and\n            /* \"#utility.yul\":7941:7966   */\n          swap2\n          pop\n            /* \"#utility.yul\":7854:7972   */\n          pop\n            /* \"#utility.yul\":7803:7972   */\n          swap3\n          swap2\n          pop\n          pop\n          jump\t// out\n            /* \"#utility.yul\":7977:8272   */\n        tag_78:\n            /* \"#utility.yul\":8053:8057   */\n          0x00\n            /* \"#utility.yul\":8199:8228   */\n          tag_182\n            /* \"#utility.yul\":8224:8227   */\n          dup4\n            /* \"#utility.yul\":8218:8222   */\n          dup4\n            /* \"#utility.yul\":8199:8228   */\n          tag_77\n          jump\t// in\n        tag_182:\n            /* \"#utility.yul\":8191:8228   */\n          swap2\n          pop\n            /* \"#utility.yul\":8261:8264   */\n          dup3\n            /* \"#utility.yul\":8258:8259   */\n          0x02\n            /* \"#utility.yul\":8254:8265   */\n          mul\n            /* \"#utility.yul\":8248:8252   */\n          dup3\n            /* \"#utility.yul\":8245:8266   */\n          or\n            /* \"#utility.yul\":8237:8266   */\n          swap1\n          pop\n            /* \"#utility.yul\":7977:8272   */\n          swap3\n          swap2\n          pop\n          pop\n          jump\t// out\n            /* \"#utility.yul\":8277:9672   */\n        tag_9:\n            /* \"#utility.yul\":8394:8431   */\n          tag_184\n            /* \"#utility.yul\":8427:8430   */\n          dup3\n            /* \"#utility.yul\":8394:8431   */\n          tag_61\n          jump\t// in\n        tag_184:\n            /* \"#utility.yul\":8496:8514   */\n          0xffffffffffffffff\n            /* \"#utility.yul\":8488:8494   */\n          dup2\n            /* \"#utility.yul\":8485:8515   */\n          gt\n            /* \"#utility.yul\":8482:8538   */\n          iszero\n          tag_185\n          jumpi\n            /* \"#utility.yul\":8518:8536   */\n          tag_186\n          tag_47\n          jump\t// in\n        tag_186:\n            /* \"#utility.yul\":8482:8538   */\n        tag_185:\n            /* \"#utility.yul\":8562:8600   */\n          tag_187\n            /* \"#utility.yul\":8594:8598   */\n          dup3\n            /* \"#utility.yul\":8588:8599   */\n          sload\n            /* \"#utility.yul\":8562:8600   */\n          tag_63\n          jump\t// in\n        tag_187:\n            /* \"#utility.yul\":8647:8714   */\n          tag_188\n            /* \"#utility.yul\":8707:8713   */\n          dup3\n            /* \"#utility.yul\":8699:8705   */\n          dup3\n            /* \"#utility.yul\":8693:8697   */\n          dup6\n            /* \"#utility.yul\":8647:8714   */\n          tag_75\n          jump\t// in\n        tag_188:\n            /* \"#utility.yul\":8741:8742   */\n          0x00\n            /* \"#utility.yul\":8765:8769   */\n          0x20\n            /* \"#utility.yul\":8752:8769   */\n          swap1\n          pop\n            /* \"#utility.yul\":8797:8799   */\n          0x1f\n            /* \"#utility.yul\":8789:8795   */\n          dup4\n            /* \"#utility.yul\":8786:8800   */\n          gt\n            /* \"#utility.yul\":8814:8815   */\n          0x01\n            /* \"#utility.yul\":8809:9427   */\n          dup2\n          eq\n          tag_190\n          jumpi\n            /* \"#utility.yul\":9471:9472   */\n          0x00\n            /* \"#utility.yul\":9488:9494   */\n          dup5\n            /* \"#utility.yul\":9485:9562   */\n          iszero\n          tag_191\n          jumpi\n            /* \"#utility.yul\":9537:9546   */\n          dup3\n            /* \"#utility.yul\":9532:9535   */\n          dup8\n            /* \"#utility.yul\":9528:9547   */\n          add\n            /* \"#utility.yul\":9522:9548   */\n          mload\n            /* \"#utility.yul\":9513:9548   */\n          swap1\n          pop\n            /* \"#utility.yul\":9485:9562   */\n        tag_191:\n            /* \"#utility.yul\":9588:9655   */\n          tag_192\n            /* \"#utility.yul\":9648:9654   */\n          dup6\n            /* \"#utility.yul\":9641:9646   */\n          dup3\n            /* \"#utility.yul\":9588:9655   */\n          tag_78\n          jump\t// in\n        tag_192:\n            /* \"#utility.yul\":9582:9586   */\n          dup7\n            /* \"#utility.yul\":9575:9656   */\n          sstore\n            /* \"#utility.yul\":9444:9666   */\n          pop\n            /* \"#utility.yul\":8779:9666   */\n          jump(tag_189)\n            /* \"#utility.yul\":8809:9427   */\n        tag_190:\n            /* \"#utility.yul\":8861:8865   */\n          0x1f\n            /* \"#utility.yul\":8857:8866   */\n          not\n            /* \"#utility.yul\":8849:8855   */\n          dup5\n            /* \"#utility.yul\":8845:8867   */\n          and\n            /* \"#utility.yul\":8895:8932   */\n          tag_193\n            /* \"#utility.yul\":8927:8931   */\n          dup7\n            /* \"#utility.yul\":8895:8932   */\n          tag_64\n          jump\t// in\n        tag_193:\n            /* \"#utility.yul\":8954:8955   */\n          0x00\n            /* \"#utility.yul\":8968:9176   */\n        tag_194:\n            /* \"#utility.yul\":8982:8989   */\n          dup3\n            /* \"#utility.yul\":8979:8980   */\n          dup2\n            /* \"#utility.yul\":8976:8990   */\n          lt\n            /* \"#utility.yul\":8968:9176   */\n          iszero\n          tag_196\n          jumpi\n            /* \"#utility.yul\":9061:9070   */\n          dup5\n            /* \"#utility.yul\":9056:9059   */\n          dup10\n            /* \"#utility.yul\":9052:9071   */\n          add\n            /* \"#utility.yul\":9046:9072   */\n          mload\n            /* \"#utility.yul\":9038:9044   */\n          dup3\n            /* \"#utility.yul\":9031:9073   */\n          sstore\n            /* \"#utility.yul\":9112:9113   */\n          0x01\n            /* \"#utility.yul\":9104:9110   */\n          dup3\n            /* \"#utility.yul\":9100:9114   */\n          add\n            /* \"#utility.yul\":9090:9114   */\n          swap2\n          pop\n            /* \"#utility.yul\":9159:9161   */\n          0x20\n            /* \"#utility.yul\":9148:9157   */\n          dup6\n            /* \"#utility.yul\":9144:9162   */\n          add\n            /* \"#utility.yul\":9131:9162   */\n          swap5\n          pop\n            /* \"#utility.yul\":9005:9009   */\n          0x20\n            /* \"#utility.yul\":9002:9003   */\n          dup2\n            /* \"#utility.yul\":8998:9010   */\n          add\n            /* \"#utility.yul\":8993:9010   */\n          swap1\n          pop\n            /* \"#utility.yul\":8968:9176   */\n          jump(tag_194)\n        tag_196:\n            /* \"#utility.yul\":9204:9210   */\n          dup7\n            /* \"#utility.yul\":9195:9202   */\n          dup4\n            /* \"#utility.yul\":9192:9211   */\n          lt\n            /* \"#utility.yul\":9189:9368   */\n          iszero\n          tag_197\n          jumpi\n            /* \"#utility.yul\":9262:9271   */\n          dup5\n            /* \"#utility.yul\":9257:9260   */\n          dup10\n            /* \"#utility.yul\":9253:9272   */\n          add\n            /* \"#utility.yul\":9247:9273   */\n          mload\n            /* \"#utility.yul\":9305:9353   */\n          tag_198\n            /* \"#utility.yul\":9347:9351   */\n          0x1f\n            /* \"#utility.yul\":9339:9345   */\n          dup10\n            /* \"#utility.yul\":9335:9352   */\n          and\n            /* \"#utility.yul\":9324:9333   */\n          dup3\n            /* \"#utility.yul\":9305:9353   */\n          tag_77\n          jump\t// in\n        tag_198:\n            /* \"#utility.yul\":9297:9303   */\n          dup4\n            /* \"#utility.yul\":9290:9354   */\n          sstore\n            /* \"#utility.yul\":9212:9368   */\n          pop\n            /* \"#utility.yul\":9189:9368   */\n        tag_197:\n            /* \"#utility.yul\":9414:9415   */\n          0x01\n            /* \"#utility.yul\":9410:9411   */\n          0x02\n            /* \"#utility.yul\":9402:9408   */\n          dup9\n            /* \"#utility.yul\":9398:9412   */\n          mul\n            /* \"#utility.yul\":9394:9416   */\n          add\n            /* \"#utility.yul\":9388:9392   */\n          dup9\n            /* \"#utility.yul\":9381:9417   */\n          sstore\n            /* \"#utility.yul\":8816:9427   */\n          pop\n          pop\n          pop\n            /* \"#utility.yul\":8779:9666   */\n        tag_189:\n          pop\n            /* \"#utility.yul\":8369:9672   */\n          pop\n          pop\n          pop\n            /* \"#utility.yul\":8277:9672   */\n          pop\n          pop\n          jump\t// out\n            /* \"#utility.yul\":9678:9796   */\n        tag_79:\n            /* \"#utility.yul\":9765:9789   */\n          tag_200\n            /* \"#utility.yul\":9783:9788   */\n          dup2\n            /* \"#utility.yul\":9765:9789   */\n          tag_58\n          jump\t// in\n        tag_200:\n            /* \"#utility.yul\":9760:9763   */\n          dup3\n            /* \"#utility.yul\":9753:9790   */\n          mstore\n            /* \"#utility.yul\":9678:9796   */\n          pop\n          pop\n          jump\t// out\n            /* \"#utility.yul\":9802:10024   */\n        tag_14:\n            /* \"#utility.yul\":9895:9899   */\n          0x00\n            /* \"#utility.yul\":9933:9935   */\n          0x20\n            /* \"#utility.yul\":9922:9931   */\n          dup3\n            /* \"#utility.yul\":9918:9936   */\n          add\n            /* \"#utility.yul\":9910:9936   */\n          swap1\n          pop\n            /* \"#utility.yul\":9946:10017   */\n          tag_202\n            /* \"#utility.yul\":10014:10015   */\n          0x00\n            /* \"#utility.yul\":10003:10012   */\n          dup4\n            /* \"#utility.yul\":9999:10016   */\n          add\n            /* \"#utility.yul\":9990:9996   */\n          dup5\n            /* \"#utility.yul\":9946:10017   */\n          tag_79\n          jump\t// in\n        tag_202:\n            /* \"#utility.yul\":9802:10024   */\n          swap3\n          swap2\n          pop\n          pop\n          jump\t// out\n            /* \"#utility.yul\":10030:10210   */\n        tag_80:\n            /* \"#utility.yul\":10078:10155   */\n          0x4e487b7100000000000000000000000000000000000000000000000000000000\n            /* \"#utility.yul\":10075:10076   */\n          0x00\n            /* \"#utility.yul\":10068:10156   */\n          mstore\n            /* \"#utility.yul\":10175:10179   */\n          0x11\n            /* \"#utility.yul\":10172:10173   */\n          0x04\n            /* \"#utility.yul\":10165:10180   */\n          mstore\n            /* \"#utility.yul\":10199:10203   */\n          0x24\n            /* \"#utility.yul\":10196:10197   */\n          0x00\n            /* \"#utility.yul\":10189:10204   */\n          revert\n            /* \"#utility.yul\":10216:10626   */\n        tag_20:\n            /* \"#utility.yul\":10256:10263   */\n          0x00\n            /* \"#utility.yul\":10279:10299   */\n          tag_205\n            /* \"#utility.yul\":10297:10298   */\n          dup3\n            /* \"#utility.yul\":10279:10299   */\n          tag_54\n          jump\t// in\n        tag_205:\n            /* \"#utility.yul\":10274:10299   */\n          swap2\n          pop\n            /* \"#utility.yul\":10313:10333   */\n          tag_206\n            /* \"#utility.yul\":10331:10332   */\n          dup4\n            /* \"#utility.yul\":10313:10333   */\n          tag_54\n          jump\t// in\n        tag_206:\n            /* \"#utility.yul\":10308:10333   */\n          swap3\n          pop\n            /* \"#utility.yul\":10368:10369   */\n          dup3\n            /* \"#utility.yul\":10365:10366   */\n          dup3\n            /* \"#utility.yul\":10361:10370   */\n          mul\n            /* \"#utility.yul\":10390:10420   */\n          tag_207\n            /* \"#utility.yul\":10408:10419   */\n          dup2\n            /* \"#utility.yul\":10390:10420   */\n          tag_54\n          jump\t// in\n        tag_207:\n            /* \"#utility.yul\":10379:10420   */\n          swap2\n          pop\n            /* \"#utility.yul\":10569:10570   */\n          dup3\n            /* \"#utility.yul\":10560:10567   */\n          dup3\n            /* \"#utility.yul\":10556:10571   */\n          div\n            /* \"#utility.yul\":10553:10554   */\n          dup5\n            /* \"#utility.yul\":10550:10572   */\n          eq\n            /* \"#utility.yul\":10530:10531   */\n          dup4\n            /* \"#utility.yul\":10523:10532   */\n          iszero\n            /* \"#utility.yul\":10503:10586   */\n          or\n            /* \"#utility.yul\":10480:10619   */\n          tag_208\n          jumpi\n            /* \"#utility.yul\":10599:10617   */\n          tag_209\n          tag_80\n          jump\t// in\n        tag_209:\n            /* \"#utility.yul\":10480:10619   */\n        tag_208:\n            /* \"#utility.yul\":10264:10626   */\n          pop\n            /* \"#utility.yul\":10216:10626   */\n          swap3\n          swap2\n          pop\n          pop\n          jump\t// out\n            /* \"#utility.yul\":10632:10823   */\n        tag_32:\n            /* \"#utility.yul\":10672:10675   */\n          0x00\n            /* \"#utility.yul\":10691:10711   */\n          tag_211\n            /* \"#utility.yul\":10709:10710   */\n          dup3\n            /* \"#utility.yul\":10691:10711   */\n          tag_54\n          jump\t// in\n        tag_211:\n            /* \"#utility.yul\":10686:10711   */\n          swap2\n          pop\n            /* \"#utility.yul\":10725:10745   */\n          tag_212\n            /* \"#utility.yul\":10743:10744   */\n          dup4\n            /* \"#utility.yul\":10725:10745   */\n          tag_54\n          jump\t// in\n        tag_212:\n            /* \"#utility.yul\":10720:10745   */\n          swap3\n          pop\n            /* \"#utility.yul\":10768:10769   */\n          dup3\n            /* \"#utility.yul\":10765:10766   */\n          dup3\n            /* \"#utility.yul\":10761:10770   */\n          add\n            /* \"#utility.yul\":10754:10770   */\n          swap1\n          pop\n            /* \"#utility.yul\":10789:10792   */\n          dup1\n            /* \"#utility.yul\":10786:10787   */\n          dup3\n            /* \"#utility.yul\":10783:10793   */\n          gt\n            /* \"#utility.yul\":10780:10816   */\n          iszero\n          tag_213\n          jumpi\n            /* \"#utility.yul\":10796:10814   */\n          tag_214\n          tag_80\n          jump\t// in\n        tag_214:\n            /* \"#utility.yul\":10780:10816   */\n        tag_213:\n            /* \"#utility.yul\":10632:10823   */\n          swap3\n          swap2\n          pop\n          pop\n          jump\t// out\n            /* \"#utility.yul\":10829:10947   */\n        tag_81:\n            /* \"#utility.yul\":10916:10940   */\n          tag_216\n            /* \"#utility.yul\":10934:10939   */\n          dup2\n            /* \"#utility.yul\":10916:10940   */\n          tag_54\n          jump\t// in\n        tag_216:\n            /* \"#utility.yul\":10911:10914   */\n          dup3\n            /* \"#utility.yul\":10904:10941   */\n          mstore\n            /* \"#utility.yul\":10829:10947   */\n          pop\n          pop\n          jump\t// out\n            /* \"#utility.yul\":10953:11395   */\n        tag_36:\n            /* \"#utility.yul\":11102:11106   */\n          0x00\n            /* \"#utility.yul\":11140:11142   */\n          0x60\n            /* \"#utility.yul\":11129:11138   */\n          dup3\n            /* \"#utility.yul\":11125:11143   */\n          add\n            /* \"#utility.yul\":11117:11143   */\n          swap1\n          pop\n            /* \"#utility.yul\":11153:11224   */\n          tag_218\n            /* \"#utility.yul\":11221:11222   */\n          0x00\n            /* \"#utility.yul\":11210:11219   */\n          dup4\n            /* \"#utility.yul\":11206:11223   */\n          add\n            /* \"#utility.yul\":11197:11203   */\n          dup7\n            /* \"#utility.yul\":11153:11224   */\n          tag_79\n          jump\t// in\n        tag_218:\n            /* \"#utility.yul\":11234:11306   */\n          tag_219\n            /* \"#utility.yul\":11302:11304   */\n          0x20\n            /* \"#utility.yul\":11291:11300   */\n          dup4\n            /* \"#utility.yul\":11287:11305   */\n          add\n            /* \"#utility.yul\":11278:11284   */\n          dup6\n            /* \"#utility.yul\":11234:11306   */\n          tag_81\n          jump\t// in\n        tag_219:\n            /* \"#utility.yul\":11316:11388   */\n          tag_220\n            /* \"#utility.yul\":11384:11386   */\n          0x40\n            /* \"#utility.yul\":11373:11382   */\n          dup4\n            /* \"#utility.yul\":11369:11387   */\n          add\n            /* \"#utility.yul\":11360:11366   */\n          dup5\n            /* \"#utility.yul\":11316:11388   */\n          tag_81\n          jump\t// in\n        tag_220:\n            /* \"#utility.yul\":10953:11395   */\n          swap5\n          swap4\n          pop\n          pop\n          pop\n          pop\n          jump\t// out\n            /* \"#utility.yul\":11401:11623   */\n        tag_40:\n            /* \"#utility.yul\":11494:11498   */\n          0x00\n            /* \"#utility.yul\":11532:11534   */\n          0x20\n            /* \"#utility.yul\":11521:11530   */\n          dup3\n            /* \"#utility.yul\":11517:11535   */\n          add\n            /* \"#utility.yul\":11509:11535   */\n          swap1\n          pop\n            /* \"#utility.yul\":11545:11616   */\n          tag_222\n            /* \"#utility.yul\":11613:11614   */\n          0x00\n            /* \"#utility.yul\":11602:11611   */\n          dup4\n            /* \"#utility.yul\":11598:11615   */\n          add\n            /* \"#utility.yul\":11589:11595   */\n          dup5\n            /* \"#utility.yul\":11545:11616   */\n          tag_81\n          jump\t// in\n        tag_222:\n            /* \"#utility.yul\":11401:11623   */\n          swap3\n          swap2\n          pop\n          pop\n          jump\t// out\n            /* \"contract/memecoin.sol\":138:948  contract memecoin is ERC20,Ownable{... */\n        tag_22:\n          dataSize(sub_0)\n          dup1\n          dataOffset(sub_0)\n          0x00\n          codecopy\n          0x00\n          return\n        stop\n\n        sub_0: assembly {\n                /* \"contract/memecoin.sol\":138:948  contract memecoin is ERC20,Ownable{... */\n              mstore(0x40, 0x80)\n              callvalue\n              dup1\n              iszero\n              tag_1\n              jumpi\n              0x00\n              dup1\n              revert\n            tag_1:\n              pop\n              jumpi(tag_2, lt(calldatasize, 0x04))\n              shr(0xe0, calldataload(0x00))\n              dup1\n              0x715018a6\n              gt\n              tag_19\n              jumpi\n              dup1\n              0x9bd0bd8a\n              gt\n              tag_20\n              jumpi\n              dup1\n              0x9bd0bd8a\n              eq\n              tag_15\n              jumpi\n              dup1\n              0xa9059cbb\n              eq\n              tag_16\n              jumpi\n              dup1\n              0xdd62ed3e\n              eq\n              tag_17\n              jumpi\n              dup1\n              0xf2fde38b\n              eq\n              tag_18\n              jumpi\n              jump(tag_2)\n            tag_20:\n              dup1\n              0x715018a6\n              eq\n              tag_11\n              jumpi\n              dup1\n              0x8da5cb5b\n              eq\n              tag_12\n              jumpi\n              dup1\n              0x93e8ec86\n              eq\n              tag_13\n              jumpi\n              dup1\n              0x95d89b41\n              eq\n              tag_14\n              jumpi\n              jump(tag_2)\n            tag_19:\n              dup1\n              0x313ce567\n              gt\n              tag_21\n              jumpi\n              dup1\n              0x313ce567\n              eq\n              tag_7\n              jumpi\n              dup1\n              0x34fcf437\n              eq\n              tag_8\n              jumpi\n              dup1\n              0x6cccff09\n              eq\n              tag_9\n              jumpi\n              dup1\n              0x70a08231\n              eq\n              tag_10\n              jumpi\n              jump(tag_2)\n            tag_21:\n              dup1\n              0x06fdde03\n              eq\n              tag_3\n              jumpi\n              dup1\n              0x095ea7b3\n              eq\n              tag_4\n              jumpi\n              dup1\n              0x18160ddd\n              eq\n              tag_5\n              jumpi\n              dup1\n              0x23b872dd\n              eq\n              tag_6\n              jumpi\n            tag_2:\n              0x00\n              dup1\n              revert\n                /* \"@openzeppelin/contracts/token/ERC20/ERC20.sol\":2074:2163  function name() public view virtual returns (string memory) {... */\n            tag_3:\n              tag_22\n              tag_23\n              jump\t// in\n            tag_22:\n              mload(0x40)\n              tag_24\n              swap2\n              swap1\n              tag_25\n              jump\t// in\n            tag_24:\n              mload(0x40)\n              dup1\n              swap2\n              sub\n              swap1\n              return\n                /* \"@openzeppelin/contracts/token/ERC20/ERC20.sol\":4293:4479  function approve(address spender, uint256 value) public virtual returns (bool) {... */\n            tag_4:\n              tag_26\n              0x04\n              dup1\n              calldatasize\n              sub\n              dup2\n              add\n              swap1\n              tag_27\n              swap2\n              swap1\n              tag_28\n              jump\t// in\n            tag_27:\n              tag_29\n              jump\t// in\n            tag_26:\n              mload(0x40)\n              tag_30\n              swap2\n              swap1\n              tag_31\n              jump\t// in\n            tag_30:\n              mload(0x40)\n              dup1\n              swap2\n              sub\n              swap1\n              return\n                /* \"@openzeppelin/contracts/token/ERC20/ERC20.sol\":3144:3241  function totalSupply() public view virtual returns (uint256) {... */\n            tag_5:\n              tag_32\n              tag_33\n              jump\t// in\n            tag_32:\n              mload(0x40)\n              tag_34\n              swap2\n              swap1\n              tag_35\n              jump\t// in\n            tag_34:\n              mload(0x40)\n              dup1\n              swap2\n              sub\n              swap1\n              return\n                /* \"@openzeppelin/contracts/token/ERC20/ERC20.sol\":5039:5283  function transferFrom(address from, address to, uint256 value) public virtual returns (bool) {... */\n            tag_6:\n              tag_36\n              0x04\n              dup1\n              calldatasize\n              sub\n              dup2\n              add\n              swap1\n              tag_37\n              swap2\n              swap1\n              tag_38\n              jump\t// in\n            tag_37:\n              tag_39\n              jump\t// in\n            tag_36:\n              mload(0x40)\n              tag_40\n              swap2\n              swap1\n              tag_31\n              jump\t// in\n            tag_40:\n              mload(0x40)\n              dup1\n              swap2\n              sub\n              swap1\n              return\n                /* \"@openzeppelin/contracts/token/ERC20/ERC20.sol\":3002:3084  function decimals() public view virtual returns (uint8) {... */\n            tag_7:\n              tag_41\n              tag_42\n              jump\t// in\n            tag_41:\n              mload(0x40)\n              tag_43\n              swap2\n              swap1\n              tag_44\n              jump\t// in\n            tag_43:\n              mload(0x40)\n              dup1\n              swap2\n              sub\n              swap1\n              return\n                /* \"contract/memecoin.sol\":419:509  function setRate(uint _rate)public onlyOwner{... */\n            tag_8:\n              tag_45\n              0x04\n              dup1\n              calldatasize\n              sub\n              dup2\n              add\n              swap1\n              tag_46\n              swap2\n              swap1\n              tag_47\n              jump\t// in\n            tag_46:\n              tag_48\n              jump\t// in\n            tag_45:\n              stop\n                /* \"contract/memecoin.sol\":557:641  function convertFraxToMeme(uint amount)public view returns(uint) {... */\n            tag_9:\n              tag_49\n              0x04\n              dup1\n              calldatasize\n              sub\n              dup2\n              add\n              swap1\n              tag_50\n              swap2\n              swap1\n              tag_47\n              jump\t// in\n            tag_50:\n              tag_51\n              jump\t// in\n            tag_49:\n              mload(0x40)\n              tag_52\n              swap2\n              swap1\n              tag_35\n              jump\t// in\n            tag_52:\n              mload(0x40)\n              dup1\n              swap2\n              sub\n              swap1\n              return\n                /* \"@openzeppelin/contracts/token/ERC20/ERC20.sol\":3299:3415  function balanceOf(address account) public view virtual returns (uint256) {... */\n            tag_10:\n              tag_53\n              0x04\n              dup1\n              calldatasize\n              sub\n              dup2\n              add\n              swap1\n              tag_54\n              swap2\n              swap1\n              tag_55\n              jump\t// in\n            tag_54:\n              tag_56\n              jump\t// in\n            tag_53:\n              mload(0x40)\n              tag_57\n              swap2\n              swap1\n              tag_35\n              jump\t// in\n            tag_57:\n              mload(0x40)\n              dup1\n              swap2\n              sub\n              swap1\n              return\n                /* \"@openzeppelin/contracts/access/Ownable.sol\":2293:2394  function renounceOwnership() public virtual onlyOwner {... */\n            tag_11:\n              tag_58\n              tag_59\n              jump\t// in\n            tag_58:\n              stop\n                /* \"@openzeppelin/contracts/access/Ownable.sol\":1638:1723  function owner() public view virtual returns (address) {... */\n            tag_12:\n              tag_60\n              tag_61\n              jump\t// in\n            tag_60:\n              mload(0x40)\n              tag_62\n              swap2\n              swap1\n              tag_63\n              jump\t// in\n            tag_62:\n              mload(0x40)\n              dup1\n              swap2\n              sub\n              swap1\n              return\n                /* \"contract/memecoin.sol\":686:856  function convertMemeToFrax(uint amount)public view returns(uint) {... */\n            tag_13:\n              tag_64\n              0x04\n              dup1\n              calldatasize\n              sub\n              dup2\n              add\n              swap1\n              tag_65\n              swap2\n              swap1\n              tag_47\n              jump\t// in\n            tag_65:\n              tag_66\n              jump\t// in\n            tag_64:\n              mload(0x40)\n              tag_67\n              swap2\n              swap1\n              tag_35\n              jump\t// in\n            tag_67:\n              mload(0x40)\n              dup1\n              swap2\n              sub\n              swap1\n              return\n                /* \"@openzeppelin/contracts/token/ERC20/ERC20.sol\":2276:2369  function symbol() public view virtual returns (string memory) {... */\n            tag_14:\n              tag_68\n              tag_69\n              jump\t// in\n            tag_68:\n              mload(0x40)\n              tag_70\n              swap2\n              swap1\n              tag_25\n              jump\t// in\n            tag_70:\n              mload(0x40)\n              dup1\n              swap2\n              sub\n              swap1\n              return\n                /* \"contract/memecoin.sol\":865:940  function buyMeme(uint amount)public {... */\n            tag_15:\n              tag_71\n              0x04\n              dup1\n              calldatasize\n              sub\n              dup2\n              add\n              swap1\n              tag_72\n              swap2\n              swap1\n              tag_47\n              jump\t// in\n            tag_72:\n              tag_73\n              jump\t// in\n            tag_71:\n              stop\n                /* \"@openzeppelin/contracts/token/ERC20/ERC20.sol\":3610:3788  function transfer(address to, uint256 value) public virtual returns (bool) {... */\n            tag_16:\n              tag_74\n              0x04\n              dup1\n              calldatasize\n              sub\n              dup2\n              add\n              swap1\n              tag_75\n              swap2\n              swap1\n              tag_28\n              jump\t// in\n            tag_75:\n              tag_76\n              jump\t// in\n            tag_74:\n              mload(0x40)\n              tag_77\n              swap2\n              swap1\n              tag_31\n              jump\t// in\n            tag_77:\n              mload(0x40)\n              dup1\n              swap2\n              sub\n              swap1\n              return\n                /* \"@openzeppelin/contracts/token/ERC20/ERC20.sol\":3846:3986  function allowance(address owner, address spender) public view virtual returns (uint256) {... */\n            tag_17:\n              tag_78\n              0x04\n              dup1\n              calldatasize\n              sub\n              dup2\n              add\n              swap1\n              tag_79\n              swap2\n              swap1\n              tag_80\n              jump\t// in\n            tag_79:\n              tag_81\n              jump\t// in\n            tag_78:\n              mload(0x40)\n              tag_82\n              swap2\n              swap1\n              tag_35\n              jump\t// in\n            tag_82:\n              mload(0x40)\n              dup1\n              swap2\n              sub\n              swap1\n              return\n                /* \"@openzeppelin/contracts/access/Ownable.sol\":2543:2758  function transferOwnership(address newOwner) public virtual onlyOwner {... */\n            tag_18:\n              tag_83\n              0x04\n              dup1\n              calldatasize\n              sub\n              dup2\n              add\n              swap1\n              tag_84\n              swap2\n              swap1\n              tag_55\n              jump\t// in\n            tag_84:\n              tag_85\n              jump\t// in\n            tag_83:\n              stop\n                /* \"@openzeppelin/contracts/token/ERC20/ERC20.sol\":2074:2163  function name() public view virtual returns (string memory) {... */\n            tag_23:\n                /* \"@openzeppelin/contracts/token/ERC20/ERC20.sol\":2119:2132  string memory */\n              0x60\n                /* \"@openzeppelin/contracts/token/ERC20/ERC20.sol\":2151:2156  _name */\n              0x03\n                /* \"@openzeppelin/contracts/token/ERC20/ERC20.sol\":2144:2156  return _name */\n              dup1\n              sload\n              tag_87\n              swap1\n              tag_88\n              jump\t// in\n            tag_87:\n              dup1\n              0x1f\n              add\n              0x20\n              dup1\n              swap2\n              div\n              mul\n              0x20\n              add\n              mload(0x40)\n              swap1\n              dup2\n              add\n              0x40\n              mstore\n              dup1\n              swap3\n              swap2\n              swap1\n              dup2\n              dup2\n              mstore\n              0x20\n              add\n              dup3\n              dup1\n              sload\n              tag_89\n              swap1\n              tag_88\n              jump\t// in\n            tag_89:\n              dup1\n              iszero\n              tag_90\n              jumpi\n              dup1\n              0x1f\n              lt\n              tag_91\n              jumpi\n              0x0100\n              dup1\n              dup4\n              sload\n              div\n              mul\n              dup4\n              mstore\n              swap2\n              0x20\n              add\n              swap2\n              jump(tag_90)\n            tag_91:\n              dup3\n              add\n              swap2\n              swap1\n              0x00\n              mstore\n              keccak256(0x00, 0x20)\n              swap1\n            tag_92:\n              dup2\n              sload\n              dup2\n              mstore\n              swap1\n              0x01\n              add\n              swap1\n              0x20\n              add\n              dup1\n              dup4\n              gt\n              tag_92\n              jumpi\n              dup3\n              swap1\n              sub\n              0x1f\n              and\n              dup3\n              add\n              swap2\n            tag_90:\n              pop\n              pop\n              pop\n              pop\n              pop\n              swap1\n              pop\n                /* \"@openzeppelin/contracts/token/ERC20/ERC20.sol\":2074:2163  function name() public view virtual returns (string memory) {... */\n              swap1\n              jump\t// out\n                /* \"@openzeppelin/contracts/token/ERC20/ERC20.sol\":4293:4479  function approve(address spender, uint256 value) public virtual returns (bool) {... */\n            tag_29:\n                /* \"@openzeppelin/contracts/token/ERC20/ERC20.sol\":4366:4370  bool */\n              0x00\n                /* \"@openzeppelin/contracts/token/ERC20/ERC20.sol\":4382:4395  address owner */\n              dup1\n                /* \"@openzeppelin/contracts/token/ERC20/ERC20.sol\":4398:4410  _msgSender() */\n              tag_94\n                /* \"@openzeppelin/contracts/token/ERC20/ERC20.sol\":4398:4408  _msgSender */\n              tag_95\n                /* \"@openzeppelin/contracts/token/ERC20/ERC20.sol\":4398:4410  _msgSender() */\n              jump\t// in\n            tag_94:\n                /* \"@openzeppelin/contracts/token/ERC20/ERC20.sol\":4382:4410  address owner = _msgSender() */\n              swap1\n              pop\n                /* \"@openzeppelin/contracts/token/ERC20/ERC20.sol\":4420:4451  _approve(owner, spender, value) */\n              tag_96\n                /* \"@openzeppelin/contracts/token/ERC20/ERC20.sol\":4429:4434  owner */\n              dup2\n                /* \"@openzeppelin/contracts/token/ERC20/ERC20.sol\":4436:4443  spender */\n              dup6\n                /* \"@openzeppelin/contracts/token/ERC20/ERC20.sol\":4445:4450  value */\n              dup6\n                /* \"@openzeppelin/contracts/token/ERC20/ERC20.sol\":4420:4428  _approve */\n              tag_97\n                /* \"@openzeppelin/contracts/token/ERC20/ERC20.sol\":4420:4451  _approve(owner, spender, value) */\n              jump\t// in\n            tag_96:\n                /* \"@openzeppelin/contracts/token/ERC20/ERC20.sol\":4468:4472  true */\n              0x01\n                /* \"@openzeppelin/contracts/token/ERC20/ERC20.sol\":4461:4472  return true */\n              swap2\n              pop\n              pop\n                /* \"@openzeppelin/contracts/token/ERC20/ERC20.sol\":4293:4479  function approve(address spender, uint256 value) public virtual returns (bool) {... */\n              swap3\n              swap2\n              pop\n              pop\n              jump\t// out\n                /* \"@openzeppelin/contracts/token/ERC20/ERC20.sol\":3144:3241  function totalSupply() public view virtual returns (uint256) {... */\n            tag_33:\n                /* \"@openzeppelin/contracts/token/ERC20/ERC20.sol\":3196:3203  uint256 */\n              0x00\n                /* \"@openzeppelin/contracts/token/ERC20/ERC20.sol\":3222:3234  _totalSupply */\n              sload(0x02)\n                /* \"@openzeppelin/contracts/token/ERC20/ERC20.sol\":3215:3234  return _totalSupply */\n              swap1\n              pop\n                /* \"@openzeppelin/contracts/token/ERC20/ERC20.sol\":3144:3241  function totalSupply() public view virtual returns (uint256) {... */\n              swap1\n              jump\t// out\n                /* \"@openzeppelin/contracts/token/ERC20/ERC20.sol\":5039:5283  function transferFrom(address from, address to, uint256 value) public virtual returns (bool) {... */\n            tag_39:\n                /* \"@openzeppelin/contracts/token/ERC20/ERC20.sol\":5126:5130  bool */\n              0x00\n                /* \"@openzeppelin/contracts/token/ERC20/ERC20.sol\":5142:5157  address spender */\n              dup1\n                /* \"@openzeppelin/contracts/token/ERC20/ERC20.sol\":5160:5172  _msgSender() */\n              tag_100\n                /* \"@openzeppelin/contracts/token/ERC20/ERC20.sol\":5160:5170  _msgSender */\n              tag_95\n                /* \"@openzeppelin/contracts/token/ERC20/ERC20.sol\":5160:5172  _msgSender() */\n              jump\t// in\n            tag_100:\n                /* \"@openzeppelin/contracts/token/ERC20/ERC20.sol\":5142:5172  address spender = _msgSender() */\n              swap1\n              pop\n                /* \"@openzeppelin/contracts/token/ERC20/ERC20.sol\":5182:5219  _spendAllowance(from, spender, value) */\n              tag_101\n                /* \"@openzeppelin/contracts/token/ERC20/ERC20.sol\":5198:5202  from */\n              dup6\n                /* \"@openzeppelin/contracts/token/ERC20/ERC20.sol\":5204:5211  spender */\n              dup3\n                /* \"@openzeppelin/contracts/token/ERC20/ERC20.sol\":5213:5218  value */\n              dup6\n                /* \"@openzeppelin/contracts/token/ERC20/ERC20.sol\":5182:5197  _spendAllowance */\n              tag_102\n                /* \"@openzeppelin/contracts/token/ERC20/ERC20.sol\":5182:5219  _spendAllowance(from, spender, value) */\n              jump\t// in\n            tag_101:\n                /* \"@openzeppelin/contracts/token/ERC20/ERC20.sol\":5229:5255  _transfer(from, to, value) */\n              tag_103\n                /* \"@openzeppelin/contracts/token/ERC20/ERC20.sol\":5239:5243  from */\n              dup6\n                /* \"@openzeppelin/contracts/token/ERC20/ERC20.sol\":5245:5247  to */\n              dup6\n                /* \"@openzeppelin/contracts/token/ERC20/ERC20.sol\":5249:5254  value */\n              dup6\n                /* \"@openzeppelin/contracts/token/ERC20/ERC20.sol\":5229:5238  _transfer */\n              tag_104\n                /* \"@openzeppelin/contracts/token/ERC20/ERC20.sol\":5229:5255  _transfer(from, to, value) */\n              jump\t// in\n            tag_103:\n                /* \"@openzeppelin/contracts/token/ERC20/ERC20.sol\":5272:5276  true */\n              0x01\n                /* \"@openzeppelin/contracts/token/ERC20/ERC20.sol\":5265:5276  return true */\n              swap2\n              pop\n              pop\n                /* \"@openzeppelin/contracts/token/ERC20/ERC20.sol\":5039:5283  function transferFrom(address from, address to, uint256 value) public virtual returns (bool) {... */\n              swap4\n              swap3\n              pop\n              pop\n              pop\n              jump\t// out\n                /* \"@openzeppelin/contracts/token/ERC20/ERC20.sol\":3002:3084  function decimals() public view virtual returns (uint8) {... */\n            tag_42:\n                /* \"@openzeppelin/contracts/token/ERC20/ERC20.sol\":3051:3056  uint8 */\n              0x00\n                /* \"@openzeppelin/contracts/token/ERC20/ERC20.sol\":3075:3077  18 */\n              0x12\n                /* \"@openzeppelin/contracts/token/ERC20/ERC20.sol\":3068:3077  return 18 */\n              swap1\n              pop\n                /* \"@openzeppelin/contracts/token/ERC20/ERC20.sol\":3002:3084  function decimals() public view virtual returns (uint8) {... */\n              swap1\n              jump\t// out\n                /* \"contract/memecoin.sol\":419:509  function setRate(uint _rate)public onlyOwner{... */\n            tag_48:\n                /* \"@openzeppelin/contracts/access/Ownable.sol\":1531:1544  _checkOwner() */\n              tag_107\n                /* \"@openzeppelin/contracts/access/Ownable.sol\":1531:1542  _checkOwner */\n              tag_108\n                /* \"@openzeppelin/contracts/access/Ownable.sol\":1531:1544  _checkOwner() */\n              jump\t// in\n            tag_107:\n                /* \"contract/memecoin.sol\":491:501  decimals() */\n              tag_110\n                /* \"contract/memecoin.sol\":491:499  decimals */\n              tag_42\n                /* \"contract/memecoin.sol\":491:501  decimals() */\n              jump\t// in\n            tag_110:\n                /* \"contract/memecoin.sol\":487:489  10 */\n              0x0a\n                /* \"contract/memecoin.sol\":487:501  10**decimals() */\n              tag_111\n              swap2\n              swap1\n              tag_112\n              jump\t// in\n            tag_111:\n                /* \"contract/memecoin.sol\":481:486  _rate */\n              dup2\n                /* \"contract/memecoin.sol\":481:501  _rate*10**decimals() */\n              tag_113\n              swap2\n              swap1\n              tag_114\n              jump\t// in\n            tag_113:\n                /* \"contract/memecoin.sol\":474:478  rate */\n              0x06\n                /* \"contract/memecoin.sol\":474:501  rate = _rate*10**decimals() */\n              dup2\n              swap1\n              sstore\n              pop\n                /* \"contract/memecoin.sol\":419:509  function setRate(uint _rate)public onlyOwner{... */\n              pop\n              jump\t// out\n                /* \"contract/memecoin.sol\":557:641  function convertFraxToMeme(uint amount)public view returns(uint) {... */\n            tag_51:\n                /* \"contract/memecoin.sol\":616:620  uint */\n              0x00\n                /* \"contract/memecoin.sol\":557:641  function convertFraxToMeme(uint amount)public view returns(uint) {... */\n              swap2\n              swap1\n              pop\n              jump\t// out\n                /* \"@openzeppelin/contracts/token/ERC20/ERC20.sol\":3299:3415  function balanceOf(address account) public view virtual returns (uint256) {... */\n            tag_56:\n                /* \"@openzeppelin/contracts/token/ERC20/ERC20.sol\":3364:3371  uint256 */\n              0x00\n                /* \"@openzeppelin/contracts/token/ERC20/ERC20.sol\":3390:3399  _balances */\n              dup1\n                /* \"@openzeppelin/contracts/token/ERC20/ERC20.sol\":3390:3408  _balances[account] */\n              0x00\n                /* \"@openzeppelin/contracts/token/ERC20/ERC20.sol\":3400:3407  account */\n              dup4\n                /* \"@openzeppelin/contracts/token/ERC20/ERC20.sol\":3390:3408  _balances[account] */\n              0xffffffffffffffffffffffffffffffffffffffff\n              and\n              0xffffffffffffffffffffffffffffffffffffffff\n              and\n              dup2\n              mstore\n              0x20\n              add\n              swap1\n              dup2\n              mstore\n              0x20\n              add\n              0x00\n              keccak256\n              sload\n                /* \"@openzeppelin/contracts/token/ERC20/ERC20.sol\":3383:3408  return _balances[account] */\n              swap1\n              pop\n                /* \"@openzeppelin/contracts/token/ERC20/ERC20.sol\":3299:3415  function balanceOf(address account) public view virtual returns (uint256) {... */\n              swap2\n              swap1\n              pop\n              jump\t// out\n                /* \"@openzeppelin/contracts/access/Ownable.sol\":2293:2394  function renounceOwnership() public virtual onlyOwner {... */\n            tag_59:\n                /* \"@openzeppelin/contracts/access/Ownable.sol\":1531:1544  _checkOwner() */\n              tag_118\n                /* \"@openzeppelin/contracts/access/Ownable.sol\":1531:1542  _checkOwner */\n              tag_108\n                /* \"@openzeppelin/contracts/access/Ownable.sol\":1531:1544  _checkOwner() */\n              jump\t// in\n            tag_118:\n                /* \"@openzeppelin/contracts/access/Ownable.sol\":2357:2387  _transferOwnership(address(0)) */\n              tag_120\n                /* \"@openzeppelin/contracts/access/Ownable.sol\":2384:2385  0 */\n              0x00\n                /* \"@openzeppelin/contracts/access/Ownable.sol\":2357:2375  _transferOwnership */\n              tag_121\n                /* \"@openzeppelin/contracts/access/Ownable.sol\":2357:2387  _transferOwnership(address(0)) */\n              jump\t// in\n            tag_120:\n                /* \"@openzeppelin/contracts/access/Ownable.sol\":2293:2394  function renounceOwnership() public virtual onlyOwner {... */\n              jump\t// out\n                /* \"@openzeppelin/contracts/access/Ownable.sol\":1638:1723  function owner() public view virtual returns (address) {... */\n            tag_61:\n                /* \"@openzeppelin/contracts/access/Ownable.sol\":1684:1691  address */\n              0x00\n                /* \"@openzeppelin/contracts/access/Ownable.sol\":1710:1716  _owner */\n              0x05\n              0x00\n              swap1\n              sload\n              swap1\n              0x0100\n              exp\n              swap1\n              div\n              0xffffffffffffffffffffffffffffffffffffffff\n              and\n                /* \"@openzeppelin/contracts/access/Ownable.sol\":1703:1716  return _owner */\n              swap1\n              pop\n                /* \"@openzeppelin/contracts/access/Ownable.sol\":1638:1723  function owner() public view virtual returns (address) {... */\n              swap1\n              jump\t// out\n                /* \"contract/memecoin.sol\":686:856  function convertMemeToFrax(uint amount)public view returns(uint) {... */\n            tag_66:\n                /* \"contract/memecoin.sol\":745:749  uint */\n              0x00\n                /* \"contract/memecoin.sol\":763:778  uint fraxamount */\n              dup1\n                /* \"contract/memecoin.sol\":815:819  rate */\n              sload(0x06)\n                /* \"contract/memecoin.sol\":806:813  1 ether */\n              0x0de0b6b3a7640000\n                /* \"contract/memecoin.sol\":793:803  decimals() */\n              tag_124\n                /* \"contract/memecoin.sol\":793:801  decimals */\n              tag_42\n                /* \"contract/memecoin.sol\":793:803  decimals() */\n              jump\t// in\n            tag_124:\n                /* \"contract/memecoin.sol\":789:791  10 */\n              0x0a\n                /* \"contract/memecoin.sol\":789:803  10**decimals() */\n              tag_125\n              swap2\n              swap1\n              tag_112\n              jump\t// in\n            tag_125:\n                /* \"contract/memecoin.sol\":782:788  amount */\n              dup6\n                /* \"contract/memecoin.sol\":782:803  amount*10**decimals() */\n              tag_126\n              swap2\n              swap1\n              tag_114\n              jump\t// in\n            tag_126:\n                /* \"contract/memecoin.sol\":782:813  amount*10**decimals() * 1 ether */\n              tag_127\n              swap2\n              swap1\n              tag_114\n              jump\t// in\n            tag_127:\n                /* \"contract/memecoin.sol\":781:819  (amount*10**decimals() * 1 ether)/rate */\n              tag_128\n              swap2\n              swap1\n              tag_129\n              jump\t// in\n            tag_128:\n                /* \"contract/memecoin.sol\":763:819  uint fraxamount = (amount*10**decimals() * 1 ether)/rate */\n              swap1\n              pop\n                /* \"contract/memecoin.sol\":838:848  fraxamount */\n              dup1\n                /* \"contract/memecoin.sol\":831:848  return fraxamount */\n              swap2\n              pop\n              pop\n                /* \"contract/memecoin.sol\":686:856  function convertMemeToFrax(uint amount)public view returns(uint) {... */\n              swap2\n              swap1\n              pop\n              jump\t// out\n                /* \"@openzeppelin/contracts/token/ERC20/ERC20.sol\":2276:2369  function symbol() public view virtual returns (string memory) {... */\n            tag_69:\n                /* \"@openzeppelin/contracts/token/ERC20/ERC20.sol\":2323:2336  string memory */\n              0x60\n                /* \"@openzeppelin/contracts/token/ERC20/ERC20.sol\":2355:2362  _symbol */\n              0x04\n                /* \"@openzeppelin/contracts/token/ERC20/ERC20.sol\":2348:2362  return _symbol */\n              dup1\n              sload\n              tag_131\n              swap1\n              tag_88\n              jump\t// in\n            tag_131:\n              dup1\n              0x1f\n              add\n              0x20\n              dup1\n              swap2\n              div\n              mul\n              0x20\n              add\n              mload(0x40)\n              swap1\n              dup2\n              add\n              0x40\n              mstore\n              dup1\n              swap3\n              swap2\n              swap1\n              dup2\n              dup2\n              mstore\n              0x20\n              add\n              dup3\n              dup1\n              sload\n              tag_132\n              swap1\n              tag_88\n              jump\t// in\n            tag_132:\n              dup1\n              iszero\n              tag_133\n              jumpi\n              dup1\n              0x1f\n              lt\n              tag_134\n              jumpi\n              0x0100\n              dup1\n              dup4\n              sload\n              div\n              mul\n              dup4\n              mstore\n              swap2\n              0x20\n              add\n              swap2\n              jump(tag_133)\n            tag_134:\n              dup3\n              add\n              swap2\n              swap1\n              0x00\n              mstore\n              keccak256(0x00, 0x20)\n              swap1\n            tag_135:\n              dup2\n              sload\n              dup2\n              mstore\n              swap1\n              0x01\n              add\n              swap1\n              0x20\n              add\n              dup1\n              dup4\n              gt\n              tag_135\n              jumpi\n              dup3\n              swap1\n              sub\n              0x1f\n              and\n              dup3\n              add\n              swap2\n            tag_133:\n              pop\n              pop\n              pop\n              pop\n              pop\n              swap1\n              pop\n                /* \"@openzeppelin/contracts/token/ERC20/ERC20.sol\":2276:2369  function symbol() public view virtual returns (string memory) {... */\n              swap1\n              jump\t// out\n                /* \"contract/memecoin.sol\":865:940  function buyMeme(uint amount)public {... */\n            tag_73:\n              pop\n              jump\t// out\n                /* \"@openzeppelin/contracts/token/ERC20/ERC20.sol\":3610:3788  function transfer(address to, uint256 value) public virtual returns (bool) {... */\n            tag_76:\n                /* \"@openzeppelin/contracts/token/ERC20/ERC20.sol\":3679:3683  bool */\n              0x00\n                /* \"@openzeppelin/contracts/token/ERC20/ERC20.sol\":3695:3708  address owner */\n              dup1\n                /* \"@openzeppelin/contracts/token/ERC20/ERC20.sol\":3711:3723  _msgSender() */\n              tag_138\n                /* \"@openzeppelin/contracts/token/ERC20/ERC20.sol\":3711:3721  _msgSender */\n              tag_95\n                /* \"@openzeppelin/contracts/token/ERC20/ERC20.sol\":3711:3723  _msgSender() */\n              jump\t// in\n            tag_138:\n                /* \"@openzeppelin/contracts/token/ERC20/ERC20.sol\":3695:3723  address owner = _msgSender() */\n              swap1\n              pop\n                /* \"@openzeppelin/contracts/token/ERC20/ERC20.sol\":3733:3760  _transfer(owner, to, value) */\n              tag_139\n                /* \"@openzeppelin/contracts/token/ERC20/ERC20.sol\":3743:3748  owner */\n              dup2\n                /* \"@openzeppelin/contracts/token/ERC20/ERC20.sol\":3750:3752  to */\n              dup6\n                /* \"@openzeppelin/contracts/token/ERC20/ERC20.sol\":3754:3759  value */\n              dup6\n                /* \"@openzeppelin/contracts/token/ERC20/ERC20.sol\":3733:3742  _transfer */\n              tag_104\n                /* \"@openzeppelin/contracts/token/ERC20/ERC20.sol\":3733:3760  _transfer(owner, to, value) */\n              jump\t// in\n            tag_139:\n                /* \"@openzeppelin/contracts/token/ERC20/ERC20.sol\":3777:3781  true */\n              0x01\n                /* \"@openzeppelin/contracts/token/ERC20/ERC20.sol\":3770:3781  return true */\n              swap2\n              pop\n              pop\n                /* \"@openzeppelin/contracts/token/ERC20/ERC20.sol\":3610:3788  function transfer(address to, uint256 value) public virtual returns (bool) {... */\n              swap3\n              swap2\n              pop\n              pop\n              jump\t// out\n                /* \"@openzeppelin/contracts/token/ERC20/ERC20.sol\":3846:3986  function allowance(address owner, address spender) public view virtual returns (uint256) {... */\n            tag_81:\n                /* \"@openzeppelin/contracts/token/ERC20/ERC20.sol\":3926:3933  uint256 */\n              0x00\n                /* \"@openzeppelin/contracts/token/ERC20/ERC20.sol\":3952:3963  _allowances */\n              0x01\n                /* \"@openzeppelin/contracts/token/ERC20/ERC20.sol\":3952:3970  _allowances[owner] */\n              0x00\n                /* \"@openzeppelin/contracts/token/ERC20/ERC20.sol\":3964:3969  owner */\n              dup5\n                /* \"@openzeppelin/contracts/token/ERC20/ERC20.sol\":3952:3970  _allowances[owner] */\n              0xffffffffffffffffffffffffffffffffffffffff\n              and\n              0xffffffffffffffffffffffffffffffffffffffff\n              and\n              dup2\n              mstore\n              0x20\n              add\n              swap1\n              dup2\n              mstore\n              0x20\n              add\n              0x00\n              keccak256\n                /* \"@openzeppelin/contracts/token/ERC20/ERC20.sol\":3952:3979  _allowances[owner][spender] */\n              0x00\n                /* \"@openzeppelin/contracts/token/ERC20/ERC20.sol\":3971:3978  spender */\n              dup4\n                /* \"@openzeppelin/contracts/token/ERC20/ERC20.sol\":3952:3979  _allowances[owner][spender] */\n              0xffffffffffffffffffffffffffffffffffffffff\n              and\n              0xffffffffffffffffffffffffffffffffffffffff\n              and\n              dup2\n              mstore\n              0x20\n              add\n              swap1\n              dup2\n              mstore\n              0x20\n              add\n              0x00\n              keccak256\n              sload\n                /* \"@openzeppelin/contracts/token/ERC20/ERC20.sol\":3945:3979  return _allowances[owner][spender] */\n              swap1\n              pop\n                /* \"@openzeppelin/contracts/token/ERC20/ERC20.sol\":3846:3986  function allowance(address owner, address spender) public view virtual returns (uint256) {... */\n              swap3\n              swap2\n              pop\n              pop\n              jump\t// out\n                /* \"@openzeppelin/contracts/access/Ownable.sol\":2543:2758  function transferOwnership(address newOwner) public virtual onlyOwner {... */\n            tag_85:\n                /* \"@openzeppelin/contracts/access/Ownable.sol\":1531:1544  _checkOwner() */\n              tag_142\n                /* \"@openzeppelin/contracts/access/Ownable.sol\":1531:1542  _checkOwner */\n              tag_108\n                /* \"@openzeppelin/contracts/access/Ownable.sol\":1531:1544  _checkOwner() */\n              jump\t// in\n            tag_142:\n                /* \"@openzeppelin/contracts/access/Ownable.sol\":2647:2648  0 */\n              0x00\n                /* \"@openzeppelin/contracts/access/Ownable.sol\":2627:2649  newOwner == address(0) */\n              0xffffffffffffffffffffffffffffffffffffffff\n              and\n                /* \"@openzeppelin/contracts/access/Ownable.sol\":2627:2635  newOwner */\n              dup2\n                /* \"@openzeppelin/contracts/access/Ownable.sol\":2627:2649  newOwner == address(0) */\n              0xffffffffffffffffffffffffffffffffffffffff\n              and\n              sub\n                /* \"@openzeppelin/contracts/access/Ownable.sol\":2623:2714  if (newOwner == address(0)) {... */\n              tag_144\n              jumpi\n                /* \"@openzeppelin/contracts/access/Ownable.sol\":2700:2701  0 */\n              0x00\n                /* \"@openzeppelin/contracts/access/Ownable.sol\":2672:2703  OwnableInvalidOwner(address(0)) */\n              mload(0x40)\n              0x1e4fbdf700000000000000000000000000000000000000000000000000000000\n              dup2\n              mstore\n              0x04\n              add\n              tag_145\n              swap2\n              swap1\n              tag_63\n              jump\t// in\n            tag_145:\n              mload(0x40)\n              dup1\n              swap2\n              sub\n              swap1\n              revert\n                /* \"@openzeppelin/contracts/access/Ownable.sol\":2623:2714  if (newOwner == address(0)) {... */\n            tag_144:\n                /* \"@openzeppelin/contracts/access/Ownable.sol\":2723:2751  _transferOwnership(newOwner) */\n              tag_146\n                /* \"@openzeppelin/contracts/access/Ownable.sol\":2742:2750  newOwner */\n              dup2\n                /* \"@openzeppelin/contracts/access/Ownable.sol\":2723:2741  _transferOwnership */\n              tag_121\n                /* \"@openzeppelin/contracts/access/Ownable.sol\":2723:2751  _transferOwnership(newOwner) */\n              jump\t// in\n            tag_146:\n                /* \"@openzeppelin/contracts/access/Ownable.sol\":2543:2758  function transferOwnership(address newOwner) public virtual onlyOwner {... */\n              pop\n              jump\t// out\n                /* \"@openzeppelin/contracts/utils/Context.sol\":656:752  function _msgSender() internal view virtual returns (address) {... */\n            tag_95:\n                /* \"@openzeppelin/contracts/utils/Context.sol\":709:716  address */\n              0x00\n                /* \"@openzeppelin/contracts/utils/Context.sol\":735:745  msg.sender */\n              caller\n                /* \"@openzeppelin/contracts/utils/Context.sol\":728:745  return msg.sender */\n              swap1\n              pop\n                /* \"@openzeppelin/contracts/utils/Context.sol\":656:752  function _msgSender() internal view virtual returns (address) {... */\n              swap1\n              jump\t// out\n                /* \"@openzeppelin/contracts/token/ERC20/ERC20.sol\":8989:9117  function _approve(address owner, address spender, uint256 value) internal {... */\n            tag_97:\n                /* \"@openzeppelin/contracts/token/ERC20/ERC20.sol\":9073:9110  _approve(owner, spender, value, true) */\n              tag_149\n                /* \"@openzeppelin/contracts/token/ERC20/ERC20.sol\":9082:9087  owner */\n              dup4\n                /* \"@openzeppelin/contracts/token/ERC20/ERC20.sol\":9089:9096  spender */\n              dup4\n                /* \"@openzeppelin/contracts/token/ERC20/ERC20.sol\":9098:9103  value */\n              dup4\n                /* \"@openzeppelin/contracts/token/ERC20/ERC20.sol\":9105:9109  true */\n              0x01\n                /* \"@openzeppelin/contracts/token/ERC20/ERC20.sol\":9073:9081  _approve */\n              tag_150\n                /* \"@openzeppelin/contracts/token/ERC20/ERC20.sol\":9073:9110  _approve(owner, spender, value, true) */\n              jump\t// in\n            tag_149:\n                /* \"@openzeppelin/contracts/token/ERC20/ERC20.sol\":8989:9117  function _approve(address owner, address spender, uint256 value) internal {... */\n              pop\n              pop\n              pop\n              jump\t// out\n                /* \"@openzeppelin/contracts/token/ERC20/ERC20.sol\":10663:11140  function _spendAllowance(address owner, address spender, uint256 value) internal virtual {... */\n            tag_102:\n                /* \"@openzeppelin/contracts/token/ERC20/ERC20.sol\":10762:10786  uint256 currentAllowance */\n              0x00\n                /* \"@openzeppelin/contracts/token/ERC20/ERC20.sol\":10789:10814  allowance(owner, spender) */\n              tag_152\n                /* \"@openzeppelin/contracts/token/ERC20/ERC20.sol\":10799:10804  owner */\n              dup5\n                /* \"@openzeppelin/contracts/token/ERC20/ERC20.sol\":10806:10813  spender */\n              dup5\n                /* \"@openzeppelin/contracts/token/ERC20/ERC20.sol\":10789:10798  allowance */\n              tag_81\n                /* \"@openzeppelin/contracts/token/ERC20/ERC20.sol\":10789:10814  allowance(owner, spender) */\n              jump\t// in\n            tag_152:\n                /* \"@openzeppelin/contracts/token/ERC20/ERC20.sol\":10762:10814  uint256 currentAllowance = allowance(owner, spender) */\n              swap1\n              pop\n                /* \"@openzeppelin/contracts/token/ERC20/ERC20.sol\":10848:10865  type(uint256).max */\n              0xffffffffffffffffffffffffffffffffffffffffffffffffffffffffffffffff\n                /* \"@openzeppelin/contracts/token/ERC20/ERC20.sol\":10828:10844  currentAllowance */\n              dup2\n                /* \"@openzeppelin/contracts/token/ERC20/ERC20.sol\":10828:10865  currentAllowance != type(uint256).max */\n              eq\n                /* \"@openzeppelin/contracts/token/ERC20/ERC20.sol\":10824:11134  if (currentAllowance != type(uint256).max) {... */\n              tag_153\n              jumpi\n                /* \"@openzeppelin/contracts/token/ERC20/ERC20.sol\":10904:10909  value */\n              dup2\n                /* \"@openzeppelin/contracts/token/ERC20/ERC20.sol\":10885:10901  currentAllowance */\n              dup2\n                /* \"@openzeppelin/contracts/token/ERC20/ERC20.sol\":10885:10909  currentAllowance < value */\n              lt\n                /* \"@openzeppelin/contracts/token/ERC20/ERC20.sol\":10881:11011  if (currentAllowance < value) {... */\n              iszero\n              tag_154\n              jumpi\n                /* \"@openzeppelin/contracts/token/ERC20/ERC20.sol\":10963:10970  spender */\n              dup3\n                /* \"@openzeppelin/contracts/token/ERC20/ERC20.sol\":10972:10988  currentAllowance */\n              dup2\n                /* \"@openzeppelin/contracts/token/ERC20/ERC20.sol\":10990:10995  value */\n              dup4\n                /* \"@openzeppelin/contracts/token/ERC20/ERC20.sol\":10936:10996  ERC20InsufficientAllowance(spender, currentAllowance, value) */\n              mload(0x40)\n              0xfb8f41b200000000000000000000000000000000000000000000000000000000\n              dup2\n              mstore\n              0x04\n              add\n              tag_155\n              swap4\n              swap3\n              swap2\n              swap1\n              tag_156\n              jump\t// in\n            tag_155:\n              mload(0x40)\n              dup1\n              swap2\n              sub\n              swap1\n              revert\n                /* \"@openzeppelin/contracts/token/ERC20/ERC20.sol\":10881:11011  if (currentAllowance < value) {... */\n            tag_154:\n                /* \"@openzeppelin/contracts/token/ERC20/ERC20.sol\":11052:11109  _approve(owner, spender, currentAllowance - value, false) */\n              tag_157\n                /* \"@openzeppelin/contracts/token/ERC20/ERC20.sol\":11061:11066  owner */\n              dup5\n                /* \"@openzeppelin/contracts/token/ERC20/ERC20.sol\":11068:11075  spender */\n              dup5\n                /* \"@openzeppelin/contracts/token/ERC20/ERC20.sol\":11096:11101  value */\n              dup5\n                /* \"@openzeppelin/contracts/token/ERC20/ERC20.sol\":11077:11093  currentAllowance */\n              dup5\n                /* \"@openzeppelin/contracts/token/ERC20/ERC20.sol\":11077:11101  currentAllowance - value */\n              sub\n                /* \"@openzeppelin/contracts/token/ERC20/ERC20.sol\":11103:11108  false */\n              0x00\n                /* \"@openzeppelin/contracts/token/ERC20/ERC20.sol\":11052:11060  _approve */\n              tag_150\n                /* \"@openzeppelin/contracts/token/ERC20/ERC20.sol\":11052:11109  _approve(owner, spender, currentAllowance - value, false) */\n              jump\t// in\n            tag_157:\n                /* \"@openzeppelin/contracts/token/ERC20/ERC20.sol\":10824:11134  if (currentAllowance != type(uint256).max) {... */\n            tag_153:\n                /* \"@openzeppelin/contracts/token/ERC20/ERC20.sol\":10752:11140  {... */\n              pop\n                /* \"@openzeppelin/contracts/token/ERC20/ERC20.sol\":10663:11140  function _spendAllowance(address owner, address spender, uint256 value) internal virtual {... */\n              pop\n              pop\n              pop\n              jump\t// out\n                /* \"@openzeppelin/contracts/token/ERC20/ERC20.sol\":5656:5956  function _transfer(address from, address to, uint256 value) internal {... */\n            tag_104:\n                /* \"@openzeppelin/contracts/token/ERC20/ERC20.sol\":5755:5756  0 */\n              0x00\n                /* \"@openzeppelin/contracts/token/ERC20/ERC20.sol\":5739:5757  from == address(0) */\n              0xffffffffffffffffffffffffffffffffffffffff\n              and\n                /* \"@openzeppelin/contracts/token/ERC20/ERC20.sol\":5739:5743  from */\n              dup4\n                /* \"@openzeppelin/contracts/token/ERC20/ERC20.sol\":5739:5757  from == address(0) */\n              0xffffffffffffffffffffffffffffffffffffffff\n              and\n              sub\n                /* \"@openzeppelin/contracts/token/ERC20/ERC20.sol\":5735:5821  if (from == address(0)) {... */\n              tag_159\n              jumpi\n                /* \"@openzeppelin/contracts/token/ERC20/ERC20.sol\":5807:5808  0 */\n              0x00\n                /* \"@openzeppelin/contracts/token/ERC20/ERC20.sol\":5780:5810  ERC20InvalidSender(address(0)) */\n              mload(0x40)\n              0x96c6fd1e00000000000000000000000000000000000000000000000000000000\n              dup2\n              mstore\n              0x04\n              add\n              tag_160\n              swap2\n              swap1\n              tag_63\n              jump\t// in\n            tag_160:\n              mload(0x40)\n              dup1\n              swap2\n              sub\n              swap1\n              revert\n                /* \"@openzeppelin/contracts/token/ERC20/ERC20.sol\":5735:5821  if (from == address(0)) {... */\n            tag_159:\n                /* \"@openzeppelin/contracts/token/ERC20/ERC20.sol\":5848:5849  0 */\n              0x00\n                /* \"@openzeppelin/contracts/token/ERC20/ERC20.sol\":5834:5850  to == address(0) */\n              0xffffffffffffffffffffffffffffffffffffffff\n              and\n                /* \"@openzeppelin/contracts/token/ERC20/ERC20.sol\":5834:5836  to */\n              dup3\n                /* \"@openzeppelin/contracts/token/ERC20/ERC20.sol\":5834:5850  to == address(0) */\n              0xffffffffffffffffffffffffffffffffffffffff\n              and\n              sub\n                /* \"@openzeppelin/contracts/token/ERC20/ERC20.sol\":5830:5916  if (to == address(0)) {... */\n              tag_161\n              jumpi\n                /* \"@openzeppelin/contracts/token/ERC20/ERC20.sol\":5902:5903  0 */\n              0x00\n                /* \"@openzeppelin/contracts/token/ERC20/ERC20.sol\":5873:5905  ERC20InvalidReceiver(address(0)) */\n              mload(0x40)\n              0xec442f0500000000000000000000000000000000000000000000000000000000\n              dup2\n              mstore\n              0x04\n              add\n              tag_162\n              swap2\n              swap1\n              tag_63\n              jump\t// in\n            tag_162:\n              mload(0x40)\n              dup1\n              swap2\n              sub\n              swap1\n              revert\n                /* \"@openzeppelin/contracts/token/ERC20/ERC20.sol\":5830:5916  if (to == address(0)) {... */\n            tag_161:\n                /* \"@openzeppelin/contracts/token/ERC20/ERC20.sol\":5925:5949  _update(from, to, value) */\n              tag_163\n                /* \"@openzeppelin/contracts/token/ERC20/ERC20.sol\":5933:5937  from */\n              dup4\n                /* \"@openzeppelin/contracts/token/ERC20/ERC20.sol\":5939:5941  to */\n              dup4\n                /* \"@openzeppelin/contracts/token/ERC20/ERC20.sol\":5943:5948  value */\n              dup4\n                /* \"@openzeppelin/contracts/token/ERC20/ERC20.sol\":5925:5932  _update */\n              tag_164\n                /* \"@openzeppelin/contracts/token/ERC20/ERC20.sol\":5925:5949  _update(from, to, value) */\n              jump\t// in\n            tag_163:\n                /* \"@openzeppelin/contracts/token/ERC20/ERC20.sol\":5656:5956  function _transfer(address from, address to, uint256 value) internal {... */\n              pop\n              pop\n              pop\n              jump\t// out\n                /* \"@openzeppelin/contracts/access/Ownable.sol\":1796:1958  function _checkOwner() internal view virtual {... */\n            tag_108:\n                /* \"@openzeppelin/contracts/access/Ownable.sol\":1866:1878  _msgSender() */\n              tag_166\n                /* \"@openzeppelin/contracts/access/Ownable.sol\":1866:1876  _msgSender */\n              tag_95\n                /* \"@openzeppelin/contracts/access/Ownable.sol\":1866:1878  _msgSender() */\n              jump\t// in\n            tag_166:\n                /* \"@openzeppelin/contracts/access/Ownable.sol\":1855:1878  owner() != _msgSender() */\n              0xffffffffffffffffffffffffffffffffffffffff\n              and\n                /* \"@openzeppelin/contracts/access/Ownable.sol\":1855:1862  owner() */\n              tag_167\n                /* \"@openzeppelin/contracts/access/Ownable.sol\":1855:1860  owner */\n              tag_61\n                /* \"@openzeppelin/contracts/access/Ownable.sol\":1855:1862  owner() */\n              jump\t// in\n            tag_167:\n                /* \"@openzeppelin/contracts/access/Ownable.sol\":1855:1878  owner() != _msgSender() */\n              0xffffffffffffffffffffffffffffffffffffffff\n              and\n              eq\n                /* \"@openzeppelin/contracts/access/Ownable.sol\":1851:1952  if (owner() != _msgSender()) {... */\n              tag_168\n              jumpi\n                /* \"@openzeppelin/contracts/access/Ownable.sol\":1928:1940  _msgSender() */\n              tag_169\n                /* \"@openzeppelin/contracts/access/Ownable.sol\":1928:1938  _msgSender */\n              tag_95\n                /* \"@openzeppelin/contracts/access/Ownable.sol\":1928:1940  _msgSender() */\n              jump\t// in\n            tag_169:\n                /* \"@openzeppelin/contracts/access/Ownable.sol\":1901:1941  OwnableUnauthorizedAccount(_msgSender()) */\n              mload(0x40)\n              0x118cdaa700000000000000000000000000000000000000000000000000000000\n              dup2\n              mstore\n              0x04\n              add\n              tag_170\n              swap2\n              swap1\n              tag_63\n              jump\t// in\n            tag_170:\n              mload(0x40)\n              dup1\n              swap2\n              sub\n              swap1\n              revert\n                /* \"@openzeppelin/contracts/access/Ownable.sol\":1851:1952  if (owner() != _msgSender()) {... */\n            tag_168:\n                /* \"@openzeppelin/contracts/access/Ownable.sol\":1796:1958  function _checkOwner() internal view virtual {... */\n              jump\t// out\n                /* \"@openzeppelin/contracts/access/Ownable.sol\":2912:3099  function _transferOwnership(address newOwner) internal virtual {... */\n            tag_121:\n                /* \"@openzeppelin/contracts/access/Ownable.sol\":2985:3001  address oldOwner */\n              0x00\n                /* \"@openzeppelin/contracts/access/Ownable.sol\":3004:3010  _owner */\n              0x05\n              0x00\n              swap1\n              sload\n              swap1\n              0x0100\n              exp\n              swap1\n              div\n              0xffffffffffffffffffffffffffffffffffffffff\n              and\n                /* \"@openzeppelin/contracts/access/Ownable.sol\":2985:3010  address oldOwner = _owner */\n              swap1\n              pop\n                /* \"@openzeppelin/contracts/access/Ownable.sol\":3029:3037  newOwner */\n              dup2\n                /* \"@openzeppelin/contracts/access/Ownable.sol\":3020:3026  _owner */\n              0x05\n              0x00\n                /* \"@openzeppelin/contracts/access/Ownable.sol\":3020:3037  _owner = newOwner */\n              0x0100\n              exp\n              dup2\n              sload\n              dup2\n              0xffffffffffffffffffffffffffffffffffffffff\n              mul\n              not\n              and\n              swap1\n              dup4\n              0xffffffffffffffffffffffffffffffffffffffff\n              and\n              mul\n              or\n              swap1\n              sstore\n              pop\n                /* \"@openzeppelin/contracts/access/Ownable.sol\":3083:3091  newOwner */\n              dup2\n                /* \"@openzeppelin/contracts/access/Ownable.sol\":3052:3092  OwnershipTransferred(oldOwner, newOwner) */\n              0xffffffffffffffffffffffffffffffffffffffff\n              and\n                /* \"@openzeppelin/contracts/access/Ownable.sol\":3073:3081  oldOwner */\n              dup2\n                /* \"@openzeppelin/contracts/access/Ownable.sol\":3052:3092  OwnershipTransferred(oldOwner, newOwner) */\n              0xffffffffffffffffffffffffffffffffffffffff\n              and\n              0x8be0079c531659141344cd1fd0a4f28419497f9722a3daafe3b4186f6b6457e0\n              mload(0x40)\n              mload(0x40)\n              dup1\n              swap2\n              sub\n              swap1\n              log3\n                /* \"@openzeppelin/contracts/access/Ownable.sol\":2975:3099  {... */\n              pop\n                /* \"@openzeppelin/contracts/access/Ownable.sol\":2912:3099  function _transferOwnership(address newOwner) internal virtual {... */\n              pop\n              jump\t// out\n                /* \"@openzeppelin/contracts/token/ERC20/ERC20.sol\":9949:10381  function _approve(address owner, address spender, uint256 value, bool emitEvent) internal virtual {... */\n            tag_150:\n                /* \"@openzeppelin/contracts/token/ERC20/ERC20.sol\":10078:10079  0 */\n              0x00\n                /* \"@openzeppelin/contracts/token/ERC20/ERC20.sol\":10061:10080  owner == address(0) */\n              0xffffffffffffffffffffffffffffffffffffffff\n              and\n                /* \"@openzeppelin/contracts/token/ERC20/ERC20.sol\":10061:10066  owner */\n              dup5\n                /* \"@openzeppelin/contracts/token/ERC20/ERC20.sol\":10061:10080  owner == address(0) */\n              0xffffffffffffffffffffffffffffffffffffffff\n              and\n              sub\n                /* \"@openzeppelin/contracts/token/ERC20/ERC20.sol\":10057:10146  if (owner == address(0)) {... */\n              tag_173\n              jumpi\n                /* \"@openzeppelin/contracts/token/ERC20/ERC20.sol\":10132:10133  0 */\n              0x00\n                /* \"@openzeppelin/contracts/token/ERC20/ERC20.sol\":10103:10135  ERC20InvalidApprover(address(0)) */\n              mload(0x40)\n              0xe602df0500000000000000000000000000000000000000000000000000000000\n              dup2\n              mstore\n              0x04\n              add\n              tag_174\n              swap2\n              swap1\n              tag_63\n              jump\t// in\n            tag_174:\n              mload(0x40)\n              dup1\n              swap2\n              sub\n              swap1\n              revert\n                /* \"@openzeppelin/contracts/token/ERC20/ERC20.sol\":10057:10146  if (owner == address(0)) {... */\n            tag_173:\n                /* \"@openzeppelin/contracts/token/ERC20/ERC20.sol\":10178:10179  0 */\n              0x00\n                /* \"@openzeppelin/contracts/token/ERC20/ERC20.sol\":10159:10180  spender == address(0) */\n              0xffffffffffffffffffffffffffffffffffffffff\n              and\n                /* \"@openzeppelin/contracts/token/ERC20/ERC20.sol\":10159:10166  spender */\n              dup4\n                /* \"@openzeppelin/contracts/token/ERC20/ERC20.sol\":10159:10180  spender == address(0) */\n              0xffffffffffffffffffffffffffffffffffffffff\n              and\n              sub\n                /* \"@openzeppelin/contracts/token/ERC20/ERC20.sol\":10155:10245  if (spender == address(0)) {... */\n              tag_175\n              jumpi\n                /* \"@openzeppelin/contracts/token/ERC20/ERC20.sol\":10231:10232  0 */\n              0x00\n                /* \"@openzeppelin/contracts/token/ERC20/ERC20.sol\":10203:10234  ERC20InvalidSpender(address(0)) */\n              mload(0x40)\n              0x94280d6200000000000000000000000000000000000000000000000000000000\n              dup2\n              mstore\n              0x04\n              add\n              tag_176\n              swap2\n              swap1\n              tag_63\n              jump\t// in\n            tag_176:\n              mload(0x40)\n              dup1\n              swap2\n              sub\n              swap1\n              revert\n                /* \"@openzeppelin/contracts/token/ERC20/ERC20.sol\":10155:10245  if (spender == address(0)) {... */\n            tag_175:\n                /* \"@openzeppelin/contracts/token/ERC20/ERC20.sol\":10284:10289  value */\n              dup2\n                /* \"@openzeppelin/contracts/token/ERC20/ERC20.sol\":10254:10265  _allowances */\n              0x01\n                /* \"@openzeppelin/contracts/token/ERC20/ERC20.sol\":10254:10272  _allowances[owner] */\n              0x00\n                /* \"@openzeppelin/contracts/token/ERC20/ERC20.sol\":10266:10271  owner */\n              dup7\n                /* \"@openzeppelin/contracts/token/ERC20/ERC20.sol\":10254:10272  _allowances[owner] */\n              0xffffffffffffffffffffffffffffffffffffffff\n              and\n              0xffffffffffffffffffffffffffffffffffffffff\n              and\n              dup2\n              mstore\n              0x20\n              add\n              swap1\n              dup2\n              mstore\n              0x20\n              add\n              0x00\n              keccak256\n                /* \"@openzeppelin/contracts/token/ERC20/ERC20.sol\":10254:10281  _allowances[owner][spender] */\n              0x00\n                /* \"@openzeppelin/contracts/token/ERC20/ERC20.sol\":10273:10280  spender */\n              dup6\n                /* \"@openzeppelin/contracts/token/ERC20/ERC20.sol\":10254:10281  _allowances[owner][spender] */\n              0xffffffffffffffffffffffffffffffffffffffff\n              and\n              0xffffffffffffffffffffffffffffffffffffffff\n              and\n              dup2\n              mstore\n              0x20\n              add\n              swap1\n              dup2\n              mstore\n              0x20\n              add\n              0x00\n              keccak256\n                /* \"@openzeppelin/contracts/token/ERC20/ERC20.sol\":10254:10289  _allowances[owner][spender] = value */\n              dup2\n              swap1\n              sstore\n              pop\n                /* \"@openzeppelin/contracts/token/ERC20/ERC20.sol\":10303:10312  emitEvent */\n              dup1\n                /* \"@openzeppelin/contracts/token/ERC20/ERC20.sol\":10299:10375  if (emitEvent) {... */\n              iszero\n              tag_177\n              jumpi\n                /* \"@openzeppelin/contracts/token/ERC20/ERC20.sol\":10349:10356  spender */\n              dup3\n                /* \"@openzeppelin/contracts/token/ERC20/ERC20.sol\":10333:10364  Approval(owner, spender, value) */\n              0xffffffffffffffffffffffffffffffffffffffff\n              and\n                /* \"@openzeppelin/contracts/token/ERC20/ERC20.sol\":10342:10347  owner */\n              dup5\n                /* \"@openzeppelin/contracts/token/ERC20/ERC20.sol\":10333:10364  Approval(owner, spender, value) */\n              0xffffffffffffffffffffffffffffffffffffffff\n              and\n              0x8c5be1e5ebec7d5bd14f71427d1e84f3dd0314c0f7b2291e5b200ac8c7c3b925\n                /* \"@openzeppelin/contracts/token/ERC20/ERC20.sol\":10358:10363  value */\n              dup5\n                /* \"@openzeppelin/contracts/token/ERC20/ERC20.sol\":10333:10364  Approval(owner, spender, value) */\n              mload(0x40)\n              tag_178\n              swap2\n              swap1\n              tag_35\n              jump\t// in\n            tag_178:\n              mload(0x40)\n              dup1\n              swap2\n              sub\n              swap1\n              log3\n                /* \"@openzeppelin/contracts/token/ERC20/ERC20.sol\":10299:10375  if (emitEvent) {... */\n            tag_177:\n                /* \"@openzeppelin/contracts/token/ERC20/ERC20.sol\":9949:10381  function _approve(address owner, address spender, uint256 value, bool emitEvent) internal virtual {... */\n              pop\n              pop\n              pop\n              pop\n              jump\t// out\n                /* \"@openzeppelin/contracts/token/ERC20/ERC20.sol\":6271:7378  function _update(address from, address to, uint256 value) internal virtual {... */\n            tag_164:\n                /* \"@openzeppelin/contracts/token/ERC20/ERC20.sol\":6376:6377  0 */\n              0x00\n                /* \"@openzeppelin/contracts/token/ERC20/ERC20.sol\":6360:6378  from == address(0) */\n              0xffffffffffffffffffffffffffffffffffffffff\n              and\n                /* \"@openzeppelin/contracts/token/ERC20/ERC20.sol\":6360:6364  from */\n              dup4\n                /* \"@openzeppelin/contracts/token/ERC20/ERC20.sol\":6360:6378  from == address(0) */\n              0xffffffffffffffffffffffffffffffffffffffff\n              and\n              sub\n                /* \"@openzeppelin/contracts/token/ERC20/ERC20.sol\":6356:6896  if (from == address(0)) {... */\n              tag_180\n              jumpi\n                /* \"@openzeppelin/contracts/token/ERC20/ERC20.sol\":6512:6517  value */\n              dup1\n                /* \"@openzeppelin/contracts/token/ERC20/ERC20.sol\":6496:6508  _totalSupply */\n              0x02\n              0x00\n                /* \"@openzeppelin/contracts/token/ERC20/ERC20.sol\":6496:6517  _totalSupply += value */\n              dup3\n              dup3\n              sload\n              tag_181\n              swap2\n              swap1\n              tag_182\n              jump\t// in\n            tag_181:\n              swap3\n              pop\n              pop\n              dup2\n              swap1\n              sstore\n              pop\n                /* \"@openzeppelin/contracts/token/ERC20/ERC20.sol\":6356:6896  if (from == address(0)) {... */\n              jump(tag_183)\n            tag_180:\n                /* \"@openzeppelin/contracts/token/ERC20/ERC20.sol\":6548:6567  uint256 fromBalance */\n              0x00\n                /* \"@openzeppelin/contracts/token/ERC20/ERC20.sol\":6570:6579  _balances */\n              dup1\n                /* \"@openzeppelin/contracts/token/ERC20/ERC20.sol\":6570:6585  _balances[from] */\n              0x00\n                /* \"@openzeppelin/contracts/token/ERC20/ERC20.sol\":6580:6584  from */\n              dup6\n                /* \"@openzeppelin/contracts/token/ERC20/ERC20.sol\":6570:6585  _balances[from] */\n              0xffffffffffffffffffffffffffffffffffffffff\n              and\n              0xffffffffffffffffffffffffffffffffffffffff\n              and\n              dup2\n              mstore\n              0x20\n              add\n              swap1\n              dup2\n              mstore\n              0x20\n              add\n              0x00\n              keccak256\n              sload\n                /* \"@openzeppelin/contracts/token/ERC20/ERC20.sol\":6548:6585  uint256 fromBalance = _balances[from] */\n              swap1\n              pop\n                /* \"@openzeppelin/contracts/token/ERC20/ERC20.sol\":6617:6622  value */\n              dup2\n                /* \"@openzeppelin/contracts/token/ERC20/ERC20.sol\":6603:6614  fromBalance */\n              dup2\n                /* \"@openzeppelin/contracts/token/ERC20/ERC20.sol\":6603:6622  fromBalance < value */\n              lt\n                /* \"@openzeppelin/contracts/token/ERC20/ERC20.sol\":6599:6714  if (fromBalance < value) {... */\n              iszero\n              tag_184\n              jumpi\n                /* \"@openzeppelin/contracts/token/ERC20/ERC20.sol\":6674:6678  from */\n              dup4\n                /* \"@openzeppelin/contracts/token/ERC20/ERC20.sol\":6680:6691  fromBalance */\n              dup2\n                /* \"@openzeppelin/contracts/token/ERC20/ERC20.sol\":6693:6698  value */\n              dup4\n                /* \"@openzeppelin/contracts/token/ERC20/ERC20.sol\":6649:6699  ERC20InsufficientBalance(from, fromBalance, value) */\n              mload(0x40)\n              0xe450d38c00000000000000000000000000000000000000000000000000000000\n              dup2\n              mstore\n              0x04\n              add\n              tag_185\n              swap4\n              swap3\n              swap2\n              swap1\n              tag_156\n              jump\t// in\n            tag_185:\n              mload(0x40)\n              dup1\n              swap2\n              sub\n              swap1\n              revert\n                /* \"@openzeppelin/contracts/token/ERC20/ERC20.sol\":6599:6714  if (fromBalance < value) {... */\n            tag_184:\n                /* \"@openzeppelin/contracts/token/ERC20/ERC20.sol\":6866:6871  value */\n              dup2\n                /* \"@openzeppelin/contracts/token/ERC20/ERC20.sol\":6852:6863  fromBalance */\n              dup2\n                /* \"@openzeppelin/contracts/token/ERC20/ERC20.sol\":6852:6871  fromBalance - value */\n              sub\n                /* \"@openzeppelin/contracts/token/ERC20/ERC20.sol\":6834:6843  _balances */\n              0x00\n                /* \"@openzeppelin/contracts/token/ERC20/ERC20.sol\":6834:6849  _balances[from] */\n              dup1\n                /* \"@openzeppelin/contracts/token/ERC20/ERC20.sol\":6844:6848  from */\n              dup7\n                /* \"@openzeppelin/contracts/token/ERC20/ERC20.sol\":6834:6849  _balances[from] */\n              0xffffffffffffffffffffffffffffffffffffffff\n              and\n              0xffffffffffffffffffffffffffffffffffffffff\n              and\n              dup2\n              mstore\n              0x20\n              add\n              swap1\n              dup2\n              mstore\n              0x20\n              add\n              0x00\n              keccak256\n                /* \"@openzeppelin/contracts/token/ERC20/ERC20.sol\":6834:6871  _balances[from] = fromBalance - value */\n              dup2\n              swap1\n              sstore\n              pop\n                /* \"@openzeppelin/contracts/token/ERC20/ERC20.sol\":6534:6896  {... */\n              pop\n                /* \"@openzeppelin/contracts/token/ERC20/ERC20.sol\":6356:6896  if (from == address(0)) {... */\n            tag_183:\n                /* \"@openzeppelin/contracts/token/ERC20/ERC20.sol\":6924:6925  0 */\n              0x00\n                /* \"@openzeppelin/contracts/token/ERC20/ERC20.sol\":6910:6926  to == address(0) */\n              0xffffffffffffffffffffffffffffffffffffffff\n              and\n                /* \"@openzeppelin/contracts/token/ERC20/ERC20.sol\":6910:6912  to */\n              dup3\n                /* \"@openzeppelin/contracts/token/ERC20/ERC20.sol\":6910:6926  to == address(0) */\n              0xffffffffffffffffffffffffffffffffffffffff\n              and\n              sub\n                /* \"@openzeppelin/contracts/token/ERC20/ERC20.sol\":6906:7331  if (to == address(0)) {... */\n              tag_186\n              jumpi\n                /* \"@openzeppelin/contracts/token/ERC20/ERC20.sol\":7089:7094  value */\n              dup1\n                /* \"@openzeppelin/contracts/token/ERC20/ERC20.sol\":7073:7085  _totalSupply */\n              0x02\n              0x00\n                /* \"@openzeppelin/contracts/token/ERC20/ERC20.sol\":7073:7094  _totalSupply -= value */\n              dup3\n              dup3\n              sload\n              sub\n              swap3\n              pop\n              pop\n              dup2\n              swap1\n              sstore\n              pop\n                /* \"@openzeppelin/contracts/token/ERC20/ERC20.sol\":6906:7331  if (to == address(0)) {... */\n              jump(tag_187)\n            tag_186:\n                /* \"@openzeppelin/contracts/token/ERC20/ERC20.sol\":7301:7306  value */\n              dup1\n                /* \"@openzeppelin/contracts/token/ERC20/ERC20.sol\":7284:7293  _balances */\n              0x00\n                /* \"@openzeppelin/contracts/token/ERC20/ERC20.sol\":7284:7297  _balances[to] */\n              dup1\n                /* \"@openzeppelin/contracts/token/ERC20/ERC20.sol\":7294:7296  to */\n              dup5\n                /* \"@openzeppelin/contracts/token/ERC20/ERC20.sol\":7284:7297  _balances[to] */\n              0xffffffffffffffffffffffffffffffffffffffff\n              and\n              0xffffffffffffffffffffffffffffffffffffffff\n              and\n              dup2\n              mstore\n              0x20\n              add\n              swap1\n              dup2\n              mstore\n              0x20\n              add\n              0x00\n              keccak256\n              0x00\n                /* \"@openzeppelin/contracts/token/ERC20/ERC20.sol\":7284:7306  _balances[to] += value */\n              dup3\n              dup3\n              sload\n              add\n              swap3\n              pop\n              pop\n              dup2\n              swap1\n              sstore\n              pop\n                /* \"@openzeppelin/contracts/token/ERC20/ERC20.sol\":6906:7331  if (to == address(0)) {... */\n            tag_187:\n                /* \"@openzeppelin/contracts/token/ERC20/ERC20.sol\":7361:7363  to */\n              dup2\n                /* \"@openzeppelin/contracts/token/ERC20/ERC20.sol\":7346:7371  Transfer(from, to, value) */\n              0xffffffffffffffffffffffffffffffffffffffff\n              and\n                /* \"@openzeppelin/contracts/token/ERC20/ERC20.sol\":7355:7359  from */\n              dup4\n                /* \"@openzeppelin/contracts/token/ERC20/ERC20.sol\":7346:7371  Transfer(from, to, value) */\n              0xffffffffffffffffffffffffffffffffffffffff\n              and\n              0xddf252ad1be2c89b69c2b068fc378daa952ba7f163c4a11628f55a4df523b3ef\n                /* \"@openzeppelin/contracts/token/ERC20/ERC20.sol\":7365:7370  value */\n              dup4\n                /* \"@openzeppelin/contracts/token/ERC20/ERC20.sol\":7346:7371  Transfer(from, to, value) */\n              mload(0x40)\n              tag_188\n              swap2\n              swap1\n              tag_35\n              jump\t// in\n            tag_188:\n              mload(0x40)\n              dup1\n              swap2\n              sub\n              swap1\n              log3\n                /* \"@openzeppelin/contracts/token/ERC20/ERC20.sol\":6271:7378  function _update(address from, address to, uint256 value) internal virtual {... */\n              pop\n              pop\n              pop\n              jump\t// out\n                /* \"#utility.yul\":7:106   */\n            tag_189:\n                /* \"#utility.yul\":59:65   */\n              0x00\n                /* \"#utility.yul\":93:98   */\n              dup2\n                /* \"#utility.yul\":87:99   */\n              mload\n                /* \"#utility.yul\":77:99   */\n              swap1\n              pop\n                /* \"#utility.yul\":7:106   */\n              swap2\n              swap1\n              pop\n              jump\t// out\n                /* \"#utility.yul\":112:281   */\n            tag_190:\n                /* \"#utility.yul\":196:207   */\n              0x00\n                /* \"#utility.yul\":230:236   */\n              dup3\n                /* \"#utility.yul\":225:228   */\n              dup3\n                /* \"#utility.yul\":218:237   */\n              mstore\n                /* \"#utility.yul\":270:274   */\n              0x20\n                /* \"#utility.yul\":265:268   */\n              dup3\n                /* \"#utility.yul\":261:275   */\n              add\n                /* \"#utility.yul\":246:275   */\n              swap1\n              pop\n                /* \"#utility.yul\":112:281   */\n              swap3\n              swap2\n              pop\n              pop\n              jump\t// out\n                /* \"#utility.yul\":287:533   */\n            tag_191:\n                /* \"#utility.yul\":368:369   */\n              0x00\n                /* \"#utility.yul\":378:491   */\n            tag_220:\n                /* \"#utility.yul\":392:398   */\n              dup4\n                /* \"#utility.yul\":389:390   */\n              dup2\n                /* \"#utility.yul\":386:399   */\n              lt\n                /* \"#utility.yul\":378:491   */\n              iszero\n              tag_222\n              jumpi\n                /* \"#utility.yul\":477:478   */\n              dup1\n                /* \"#utility.yul\":472:475   */\n              dup3\n                /* \"#utility.yul\":468:479   */\n              add\n                /* \"#utility.yul\":462:480   */\n              mload\n                /* \"#utility.yul\":458:459   */\n              dup2\n                /* \"#utility.yul\":453:456   */\n              dup5\n                /* \"#utility.yul\":449:460   */\n              add\n                /* \"#utility.yul\":442:481   */\n              mstore\n                /* \"#utility.yul\":414:416   */\n              0x20\n                /* \"#utility.yul\":411:412   */\n              dup2\n                /* \"#utility.yul\":407:417   */\n              add\n                /* \"#utility.yul\":402:417   */\n              swap1\n              pop\n                /* \"#utility.yul\":378:491   */\n              jump(tag_220)\n            tag_222:\n                /* \"#utility.yul\":525:526   */\n              0x00\n                /* \"#utility.yul\":516:522   */\n              dup5\n                /* \"#utility.yul\":511:514   */\n              dup5\n                /* \"#utility.yul\":507:523   */\n              add\n                /* \"#utility.yul\":500:527   */\n              mstore\n                /* \"#utility.yul\":349:533   */\n              pop\n                /* \"#utility.yul\":287:533   */\n              pop\n              pop\n              pop\n              jump\t// out\n                /* \"#utility.yul\":539:641   */\n            tag_192:\n                /* \"#utility.yul\":580:586   */\n              0x00\n                /* \"#utility.yul\":631:633   */\n              0x1f\n                /* \"#utility.yul\":627:634   */\n              not\n                /* \"#utility.yul\":622:624   */\n              0x1f\n                /* \"#utility.yul\":615:620   */\n              dup4\n                /* \"#utility.yul\":611:625   */\n              add\n                /* \"#utility.yul\":607:635   */\n              and\n                /* \"#utility.yul\":597:635   */\n              swap1\n              pop\n                /* \"#utility.yul\":539:641   */\n              swap2\n              swap1\n              pop\n              jump\t// out\n                /* \"#utility.yul\":647:1024   */\n            tag_193:\n                /* \"#utility.yul\":735:738   */\n              0x00\n                /* \"#utility.yul\":763:802   */\n              tag_225\n                /* \"#utility.yul\":796:801   */\n              dup3\n                /* \"#utility.yul\":763:802   */\n              tag_189\n              jump\t// in\n            tag_225:\n                /* \"#utility.yul\":818:889   */\n              tag_226\n                /* \"#utility.yul\":882:888   */\n              dup2\n                /* \"#utility.yul\":877:880   */\n              dup6\n                /* \"#utility.yul\":818:889   */\n              tag_190\n              jump\t// in\n            tag_226:\n                /* \"#utility.yul\":811:889   */\n              swap4\n              pop\n                /* \"#utility.yul\":898:963   */\n              tag_227\n                /* \"#utility.yul\":956:962   */\n              dup2\n                /* \"#utility.yul\":951:954   */\n              dup6\n                /* \"#utility.yul\":944:948   */\n              0x20\n                /* \"#utility.yul\":937:942   */\n              dup7\n                /* \"#utility.yul\":933:949   */\n              add\n                /* \"#utility.yul\":898:963   */\n              tag_191\n              jump\t// in\n            tag_227:\n                /* \"#utility.yul\":988:1017   */\n              tag_228\n                /* \"#utility.yul\":1010:1016   */\n              dup2\n                /* \"#utility.yul\":988:1017   */\n              tag_192\n              jump\t// in\n            tag_228:\n                /* \"#utility.yul\":983:986   */\n              dup5\n                /* \"#utility.yul\":979:1018   */\n              add\n                /* \"#utility.yul\":972:1018   */\n              swap2\n              pop\n                /* \"#utility.yul\":739:1024   */\n              pop\n                /* \"#utility.yul\":647:1024   */\n              swap3\n              swap2\n              pop\n              pop\n              jump\t// out\n                /* \"#utility.yul\":1030:1343   */\n            tag_25:\n                /* \"#utility.yul\":1143:1147   */\n              0x00\n                /* \"#utility.yul\":1181:1183   */\n              0x20\n                /* \"#utility.yul\":1170:1179   */\n              dup3\n                /* \"#utility.yul\":1166:1184   */\n              add\n                /* \"#utility.yul\":1158:1184   */\n              swap1\n              pop\n                /* \"#utility.yul\":1230:1239   */\n              dup2\n                /* \"#utility.yul\":1224:1228   */\n              dup2\n                /* \"#utility.yul\":1220:1240   */\n              sub\n                /* \"#utility.yul\":1216:1217   */\n              0x00\n                /* \"#utility.yul\":1205:1214   */\n              dup4\n                /* \"#utility.yul\":1201:1218   */\n              add\n                /* \"#utility.yul\":1194:1241   */\n              mstore\n                /* \"#utility.yul\":1258:1336   */\n              tag_230\n                /* \"#utility.yul\":1331:1335   */\n              dup2\n                /* \"#utility.yul\":1322:1328   */\n              dup5\n                /* \"#utility.yul\":1258:1336   */\n              tag_193\n              jump\t// in\n            tag_230:\n                /* \"#utility.yul\":1250:1336   */\n              swap1\n              pop\n                /* \"#utility.yul\":1030:1343   */\n              swap3\n              swap2\n              pop\n              pop\n              jump\t// out\n                /* \"#utility.yul\":1430:1547   */\n            tag_195:\n                /* \"#utility.yul\":1539:1540   */\n              0x00\n                /* \"#utility.yul\":1536:1537   */\n              dup1\n                /* \"#utility.yul\":1529:1541   */\n              revert\n                /* \"#utility.yul\":1676:1802   */\n            tag_197:\n                /* \"#utility.yul\":1713:1720   */\n              0x00\n                /* \"#utility.yul\":1753:1795   */\n              0xffffffffffffffffffffffffffffffffffffffff\n                /* \"#utility.yul\":1746:1751   */\n              dup3\n                /* \"#utility.yul\":1742:1796   */\n              and\n                /* \"#utility.yul\":1731:1796   */\n              swap1\n              pop\n                /* \"#utility.yul\":1676:1802   */\n              swap2\n              swap1\n              pop\n              jump\t// out\n                /* \"#utility.yul\":1808:1904   */\n            tag_198:\n                /* \"#utility.yul\":1845:1852   */\n              0x00\n                /* \"#utility.yul\":1874:1898   */\n              tag_236\n                /* \"#utility.yul\":1892:1897   */\n              dup3\n                /* \"#utility.yul\":1874:1898   */\n              tag_197\n              jump\t// in\n            tag_236:\n                /* \"#utility.yul\":1863:1898   */\n              swap1\n              pop\n                /* \"#utility.yul\":1808:1904   */\n              swap2\n              swap1\n              pop\n              jump\t// out\n                /* \"#utility.yul\":1910:2032   */\n            tag_199:\n                /* \"#utility.yul\":1983:2007   */\n              tag_238\n                /* \"#utility.yul\":2001:2006   */\n              dup2\n                /* \"#utility.yul\":1983:2007   */\n              tag_198\n              jump\t// in\n            tag_238:\n                /* \"#utility.yul\":1976:1981   */\n              dup2\n                /* \"#utility.yul\":1973:2008   */\n              eq\n                /* \"#utility.yul\":1963:2026   */\n              tag_239\n              jumpi\n                /* \"#utility.yul\":2022:2023   */\n              0x00\n                /* \"#utility.yul\":2019:2020   */\n              dup1\n                /* \"#utility.yul\":2012:2024   */\n              revert\n                /* \"#utility.yul\":1963:2026   */\n            tag_239:\n                /* \"#utility.yul\":1910:2032   */\n              pop\n              jump\t// out\n                /* \"#utility.yul\":2038:2177   */\n            tag_200:\n                /* \"#utility.yul\":2084:2089   */\n              0x00\n                /* \"#utility.yul\":2122:2128   */\n              dup2\n                /* \"#utility.yul\":2109:2129   */\n              calldataload\n                /* \"#utility.yul\":2100:2129   */\n              swap1\n              pop\n                /* \"#utility.yul\":2138:2171   */\n              tag_241\n                /* \"#utility.yul\":2165:2170   */\n              dup2\n                /* \"#utility.yul\":2138:2171   */\n              tag_199\n              jump\t// in\n            tag_241:\n                /* \"#utility.yul\":2038:2177   */\n              swap3\n              swap2\n              pop\n              pop\n              jump\t// out\n                /* \"#utility.yul\":2183:2260   */\n            tag_201:\n                /* \"#utility.yul\":2220:2227   */\n              0x00\n                /* \"#utility.yul\":2249:2254   */\n              dup2\n                /* \"#utility.yul\":2238:2254   */\n              swap1\n              pop\n                /* \"#utility.yul\":2183:2260   */\n              swap2\n              swap1\n              pop\n              jump\t// out\n                /* \"#utility.yul\":2266:2388   */\n            tag_202:\n                /* \"#utility.yul\":2339:2363   */\n              tag_244\n                /* \"#utility.yul\":2357:2362   */\n              dup2\n                /* \"#utility.yul\":2339:2363   */\n              tag_201\n              jump\t// in\n            tag_244:\n                /* \"#utility.yul\":2332:2337   */\n              dup2\n                /* \"#utility.yul\":2329:2364   */\n              eq\n                /* \"#utility.yul\":2319:2382   */\n              tag_245\n              jumpi\n                /* \"#utility.yul\":2378:2379   */\n              0x00\n                /* \"#utility.yul\":2375:2376   */\n              dup1\n                /* \"#utility.yul\":2368:2380   */\n              revert\n                /* \"#utility.yul\":2319:2382   */\n            tag_245:\n                /* \"#utility.yul\":2266:2388   */\n              pop\n              jump\t// out\n                /* \"#utility.yul\":2394:2533   */\n            tag_203:\n                /* \"#utility.yul\":2440:2445   */\n              0x00\n                /* \"#utility.yul\":2478:2484   */\n              dup2\n                /* \"#utility.yul\":2465:2485   */\n              calldataload\n                /* \"#utility.yul\":2456:2485   */\n              swap1\n              pop\n                /* \"#utility.yul\":2494:2527   */\n              tag_247\n                /* \"#utility.yul\":2521:2526   */\n              dup2\n                /* \"#utility.yul\":2494:2527   */\n              tag_202\n              jump\t// in\n            tag_247:\n                /* \"#utility.yul\":2394:2533   */\n              swap3\n              swap2\n              pop\n              pop\n              jump\t// out\n                /* \"#utility.yul\":2539:3013   */\n            tag_28:\n                /* \"#utility.yul\":2607:2613   */\n              0x00\n                /* \"#utility.yul\":2615:2621   */\n              dup1\n                /* \"#utility.yul\":2664:2666   */\n              0x40\n                /* \"#utility.yul\":2652:2661   */\n              dup4\n                /* \"#utility.yul\":2643:2650   */\n              dup6\n                /* \"#utility.yul\":2639:2662   */\n              sub\n                /* \"#utility.yul\":2635:2667   */\n              slt\n                /* \"#utility.yul\":2632:2751   */\n              iszero\n              tag_249\n              jumpi\n                /* \"#utility.yul\":2670:2749   */\n              tag_250\n              tag_195\n              jump\t// in\n            tag_250:\n                /* \"#utility.yul\":2632:2751   */\n            tag_249:\n                /* \"#utility.yul\":2790:2791   */\n              0x00\n                /* \"#utility.yul\":2815:2868   */\n              tag_251\n                /* \"#utility.yul\":2860:2867   */\n              dup6\n                /* \"#utility.yul\":2851:2857   */\n              dup3\n                /* \"#utility.yul\":2840:2849   */\n              dup7\n                /* \"#utility.yul\":2836:2858   */\n              add\n                /* \"#utility.yul\":2815:2868   */\n              tag_200\n              jump\t// in\n            tag_251:\n                /* \"#utility.yul\":2805:2868   */\n              swap3\n              pop\n                /* \"#utility.yul\":2761:2878   */\n              pop\n                /* \"#utility.yul\":2917:2919   */\n              0x20\n                /* \"#utility.yul\":2943:2996   */\n              tag_252\n                /* \"#utility.yul\":2988:2995   */\n              dup6\n                /* \"#utility.yul\":2979:2985   */\n              dup3\n                /* \"#utility.yul\":2968:2977   */\n              dup7\n                /* \"#utility.yul\":2964:2986   */\n              add\n                /* \"#utility.yul\":2943:2996   */\n              tag_203\n              jump\t// in\n            tag_252:\n                /* \"#utility.yul\":2933:2996   */\n              swap2\n              pop\n                /* \"#utility.yul\":2888:3006   */\n              pop\n                /* \"#utility.yul\":2539:3013   */\n              swap3\n              pop\n              swap3\n              swap1\n              pop\n              jump\t// out\n                /* \"#utility.yul\":3019:3109   */\n            tag_204:\n                /* \"#utility.yul\":3053:3060   */\n              0x00\n                /* \"#utility.yul\":3096:3101   */\n              dup2\n                /* \"#utility.yul\":3089:3102   */\n              iszero\n                /* \"#utility.yul\":3082:3103   */\n              iszero\n                /* \"#utility.yul\":3071:3103   */\n              swap1\n              pop\n                /* \"#utility.yul\":3019:3109   */\n              swap2\n              swap1\n              pop\n              jump\t// out\n                /* \"#utility.yul\":3115:3224   */\n            tag_205:\n                /* \"#utility.yul\":3196:3217   */\n              tag_255\n                /* \"#utility.yul\":3211:3216   */\n              dup2\n                /* \"#utility.yul\":3196:3217   */\n              tag_204\n              jump\t// in\n            tag_255:\n                /* \"#utility.yul\":3191:3194   */\n              dup3\n                /* \"#utility.yul\":3184:3218   */\n              mstore\n                /* \"#utility.yul\":3115:3224   */\n              pop\n              pop\n              jump\t// out\n                /* \"#utility.yul\":3230:3440   */\n            tag_31:\n                /* \"#utility.yul\":3317:3321   */\n              0x00\n                /* \"#utility.yul\":3355:3357   */\n              0x20\n                /* \"#utility.yul\":3344:3353   */\n              dup3\n                /* \"#utility.yul\":3340:3358   */\n              add\n                /* \"#utility.yul\":3332:3358   */\n              swap1\n              pop\n                /* \"#utility.yul\":3368:3433   */\n              tag_257\n                /* \"#utility.yul\":3430:3431   */\n              0x00\n                /* \"#utility.yul\":3419:3428   */\n              dup4\n                /* \"#utility.yul\":3415:3432   */\n              add\n                /* \"#utility.yul\":3406:3412   */\n              dup5\n                /* \"#utility.yul\":3368:3433   */\n              tag_205\n              jump\t// in\n            tag_257:\n                /* \"#utility.yul\":3230:3440   */\n              swap3\n              swap2\n              pop\n              pop\n              jump\t// out\n                /* \"#utility.yul\":3446:3564   */\n            tag_206:\n                /* \"#utility.yul\":3533:3557   */\n              tag_259\n                /* \"#utility.yul\":3551:3556   */\n              dup2\n                /* \"#utility.yul\":3533:3557   */\n              tag_201\n              jump\t// in\n            tag_259:\n                /* \"#utility.yul\":3528:3531   */\n              dup3\n                /* \"#utility.yul\":3521:3558   */\n              mstore\n                /* \"#utility.yul\":3446:3564   */\n              pop\n              pop\n              jump\t// out\n                /* \"#utility.yul\":3570:3792   */\n            tag_35:\n                /* \"#utility.yul\":3663:3667   */\n              0x00\n                /* \"#utility.yul\":3701:3703   */\n              0x20\n                /* \"#utility.yul\":3690:3699   */\n              dup3\n                /* \"#utility.yul\":3686:3704   */\n              add\n                /* \"#utility.yul\":3678:3704   */\n              swap1\n              pop\n                /* \"#utility.yul\":3714:3785   */\n              tag_261\n                /* \"#utility.yul\":3782:3783   */\n              0x00\n                /* \"#utility.yul\":3771:3780   */\n              dup4\n                /* \"#utility.yul\":3767:3784   */\n              add\n                /* \"#utility.yul\":3758:3764   */\n              dup5\n                /* \"#utility.yul\":3714:3785   */\n              tag_206\n              jump\t// in\n            tag_261:\n                /* \"#utility.yul\":3570:3792   */\n              swap3\n              swap2\n              pop\n              pop\n              jump\t// out\n                /* \"#utility.yul\":3798:4417   */\n            tag_38:\n                /* \"#utility.yul\":3875:3881   */\n              0x00\n                /* \"#utility.yul\":3883:3889   */\n              dup1\n                /* \"#utility.yul\":3891:3897   */\n              0x00\n                /* \"#utility.yul\":3940:3942   */\n              0x60\n                /* \"#utility.yul\":3928:3937   */\n              dup5\n                /* \"#utility.yul\":3919:3926   */\n              dup7\n                /* \"#utility.yul\":3915:3938   */\n              sub\n                /* \"#utility.yul\":3911:3943   */\n              slt\n                /* \"#utility.yul\":3908:4027   */\n              iszero\n              tag_263\n              jumpi\n                /* \"#utility.yul\":3946:4025   */\n              tag_264\n              tag_195\n              jump\t// in\n            tag_264:\n                /* \"#utility.yul\":3908:4027   */\n            tag_263:\n                /* \"#utility.yul\":4066:4067   */\n              0x00\n                /* \"#utility.yul\":4091:4144   */\n              tag_265\n                /* \"#utility.yul\":4136:4143   */\n              dup7\n                /* \"#utility.yul\":4127:4133   */\n              dup3\n                /* \"#utility.yul\":4116:4125   */\n              dup8\n                /* \"#utility.yul\":4112:4134   */\n              add\n                /* \"#utility.yul\":4091:4144   */\n              tag_200\n              jump\t// in\n            tag_265:\n                /* \"#utility.yul\":4081:4144   */\n              swap4\n              pop\n                /* \"#utility.yul\":4037:4154   */\n              pop\n                /* \"#utility.yul\":4193:4195   */\n              0x20\n                /* \"#utility.yul\":4219:4272   */\n              tag_266\n                /* \"#utility.yul\":4264:4271   */\n              dup7\n                /* \"#utility.yul\":4255:4261   */\n              dup3\n                /* \"#utility.yul\":4244:4253   */\n              dup8\n                /* \"#utility.yul\":4240:4262   */\n              add\n                /* \"#utility.yul\":4219:4272   */\n              tag_200\n              jump\t// in\n            tag_266:\n                /* \"#utility.yul\":4209:4272   */\n              swap3\n              pop\n                /* \"#utility.yul\":4164:4282   */\n              pop\n                /* \"#utility.yul\":4321:4323   */\n              0x40\n                /* \"#utility.yul\":4347:4400   */\n              tag_267\n                /* \"#utility.yul\":4392:4399   */\n              dup7\n                /* \"#utility.yul\":4383:4389   */\n              dup3\n                /* \"#utility.yul\":4372:4381   */\n              dup8\n                /* \"#utility.yul\":4368:4390   */\n              add\n                /* \"#utility.yul\":4347:4400   */\n              tag_203\n              jump\t// in\n            tag_267:\n                /* \"#utility.yul\":4337:4400   */\n              swap2\n              pop\n                /* \"#utility.yul\":4292:4410   */\n              pop\n                /* \"#utility.yul\":3798:4417   */\n              swap3\n              pop\n              swap3\n              pop\n              swap3\n              jump\t// out\n                /* \"#utility.yul\":4423:4509   */\n            tag_207:\n                /* \"#utility.yul\":4458:4465   */\n              0x00\n                /* \"#utility.yul\":4498:4502   */\n              0xff\n                /* \"#utility.yul\":4491:4496   */\n              dup3\n                /* \"#utility.yul\":4487:4503   */\n              and\n                /* \"#utility.yul\":4476:4503   */\n              swap1\n              pop\n                /* \"#utility.yul\":4423:4509   */\n              swap2\n              swap1\n              pop\n              jump\t// out\n                /* \"#utility.yul\":4515:4627   */\n            tag_208:\n                /* \"#utility.yul\":4598:4620   */\n              tag_270\n                /* \"#utility.yul\":4614:4619   */\n              dup2\n                /* \"#utility.yul\":4598:4620   */\n              tag_207\n              jump\t// in\n            tag_270:\n                /* \"#utility.yul\":4593:4596   */\n              dup3\n                /* \"#utility.yul\":4586:4621   */\n              mstore\n                /* \"#utility.yul\":4515:4627   */\n              pop\n              pop\n              jump\t// out\n                /* \"#utility.yul\":4633:4847   */\n            tag_44:\n                /* \"#utility.yul\":4722:4726   */\n              0x00\n                /* \"#utility.yul\":4760:4762   */\n              0x20\n                /* \"#utility.yul\":4749:4758   */\n              dup3\n                /* \"#utility.yul\":4745:4763   */\n              add\n                /* \"#utility.yul\":4737:4763   */\n              swap1\n              pop\n                /* \"#utility.yul\":4773:4840   */\n              tag_272\n                /* \"#utility.yul\":4837:4838   */\n              0x00\n                /* \"#utility.yul\":4826:4835   */\n              dup4\n                /* \"#utility.yul\":4822:4839   */\n              add\n                /* \"#utility.yul\":4813:4819   */\n              dup5\n                /* \"#utility.yul\":4773:4840   */\n              tag_208\n              jump\t// in\n            tag_272:\n                /* \"#utility.yul\":4633:4847   */\n              swap3\n              swap2\n              pop\n              pop\n              jump\t// out\n                /* \"#utility.yul\":4853:5182   */\n            tag_47:\n                /* \"#utility.yul\":4912:4918   */\n              0x00\n                /* \"#utility.yul\":4961:4963   */\n              0x20\n                /* \"#utility.yul\":4949:4958   */\n              dup3\n                /* \"#utility.yul\":4940:4947   */\n              dup5\n                /* \"#utility.yul\":4936:4959   */\n              sub\n                /* \"#utility.yul\":4932:4964   */\n              slt\n                /* \"#utility.yul\":4929:5048   */\n              iszero\n              tag_274\n              jumpi\n                /* \"#utility.yul\":4967:5046   */\n              tag_275\n              tag_195\n              jump\t// in\n            tag_275:\n                /* \"#utility.yul\":4929:5048   */\n            tag_274:\n                /* \"#utility.yul\":5087:5088   */\n              0x00\n                /* \"#utility.yul\":5112:5165   */\n              tag_276\n                /* \"#utility.yul\":5157:5164   */\n              dup5\n                /* \"#utility.yul\":5148:5154   */\n              dup3\n                /* \"#utility.yul\":5137:5146   */\n              dup6\n                /* \"#utility.yul\":5133:5155   */\n              add\n                /* \"#utility.yul\":5112:5165   */\n              tag_203\n              jump\t// in\n            tag_276:\n                /* \"#utility.yul\":5102:5165   */\n              swap2\n              pop\n                /* \"#utility.yul\":5058:5175   */\n              pop\n                /* \"#utility.yul\":4853:5182   */\n              swap3\n              swap2\n              pop\n              pop\n              jump\t// out\n                /* \"#utility.yul\":5188:5517   */\n            tag_55:\n                /* \"#utility.yul\":5247:5253   */\n              0x00\n                /* \"#utility.yul\":5296:5298   */\n              0x20\n                /* \"#utility.yul\":5284:5293   */\n              dup3\n                /* \"#utility.yul\":5275:5282   */\n              dup5\n                /* \"#utility.yul\":5271:5294   */\n              sub\n                /* \"#utility.yul\":5267:5299   */\n              slt\n                /* \"#utility.yul\":5264:5383   */\n              iszero\n              tag_278\n              jumpi\n                /* \"#utility.yul\":5302:5381   */\n              tag_279\n              tag_195\n              jump\t// in\n            tag_279:\n                /* \"#utility.yul\":5264:5383   */\n            tag_278:\n                /* \"#utility.yul\":5422:5423   */\n              0x00\n                /* \"#utility.yul\":5447:5500   */\n              tag_280\n                /* \"#utility.yul\":5492:5499   */\n              dup5\n                /* \"#utility.yul\":5483:5489   */\n              dup3\n                /* \"#utility.yul\":5472:5481   */\n              dup6\n                /* \"#utility.yul\":5468:5490   */\n              add\n                /* \"#utility.yul\":5447:5500   */\n              tag_200\n              jump\t// in\n            tag_280:\n                /* \"#utility.yul\":5437:5500   */\n              swap2\n              pop\n                /* \"#utility.yul\":5393:5510   */\n              pop\n                /* \"#utility.yul\":5188:5517   */\n              swap3\n              swap2\n              pop\n              pop\n              jump\t// out\n                /* \"#utility.yul\":5523:5641   */\n            tag_209:\n                /* \"#utility.yul\":5610:5634   */\n              tag_282\n                /* \"#utility.yul\":5628:5633   */\n              dup2\n                /* \"#utility.yul\":5610:5634   */\n              tag_198\n              jump\t// in\n            tag_282:\n                /* \"#utility.yul\":5605:5608   */\n              dup3\n                /* \"#utility.yul\":5598:5635   */\n              mstore\n                /* \"#utility.yul\":5523:5641   */\n              pop\n              pop\n              jump\t// out\n                /* \"#utility.yul\":5647:5869   */\n            tag_63:\n                /* \"#utility.yul\":5740:5744   */\n              0x00\n                /* \"#utility.yul\":5778:5780   */\n              0x20\n                /* \"#utility.yul\":5767:5776   */\n              dup3\n                /* \"#utility.yul\":5763:5781   */\n              add\n                /* \"#utility.yul\":5755:5781   */\n              swap1\n              pop\n                /* \"#utility.yul\":5791:5862   */\n              tag_284\n                /* \"#utility.yul\":5859:5860   */\n              0x00\n                /* \"#utility.yul\":5848:5857   */\n              dup4\n                /* \"#utility.yul\":5844:5861   */\n              add\n                /* \"#utility.yul\":5835:5841   */\n              dup5\n                /* \"#utility.yul\":5791:5862   */\n              tag_209\n              jump\t// in\n            tag_284:\n                /* \"#utility.yul\":5647:5869   */\n              swap3\n              swap2\n              pop\n              pop\n              jump\t// out\n                /* \"#utility.yul\":5875:6349   */\n            tag_80:\n                /* \"#utility.yul\":5943:5949   */\n              0x00\n                /* \"#utility.yul\":5951:5957   */\n              dup1\n                /* \"#utility.yul\":6000:6002   */\n              0x40\n                /* \"#utility.yul\":5988:5997   */\n              dup4\n                /* \"#utility.yul\":5979:5986   */\n              dup6\n                /* \"#utility.yul\":5975:5998   */\n              sub\n                /* \"#utility.yul\":5971:6003   */\n              slt\n                /* \"#utility.yul\":5968:6087   */\n              iszero\n              tag_286\n              jumpi\n                /* \"#utility.yul\":6006:6085   */\n              tag_287\n              tag_195\n              jump\t// in\n            tag_287:\n                /* \"#utility.yul\":5968:6087   */\n            tag_286:\n                /* \"#utility.yul\":6126:6127   */\n              0x00\n                /* \"#utility.yul\":6151:6204   */\n              tag_288\n                /* \"#utility.yul\":6196:6203   */\n              dup6\n                /* \"#utility.yul\":6187:6193   */\n              dup3\n                /* \"#utility.yul\":6176:6185   */\n              dup7\n                /* \"#utility.yul\":6172:6194   */\n              add\n                /* \"#utility.yul\":6151:6204   */\n              tag_200\n              jump\t// in\n            tag_288:\n                /* \"#utility.yul\":6141:6204   */\n              swap3\n              pop\n                /* \"#utility.yul\":6097:6214   */\n              pop\n                /* \"#utility.yul\":6253:6255   */\n              0x20\n                /* \"#utility.yul\":6279:6332   */\n              tag_289\n                /* \"#utility.yul\":6324:6331   */\n              dup6\n                /* \"#utility.yul\":6315:6321   */\n              dup3\n                /* \"#utility.yul\":6304:6313   */\n              dup7\n                /* \"#utility.yul\":6300:6322   */\n              add\n                /* \"#utility.yul\":6279:6332   */\n              tag_200\n              jump\t// in\n            tag_289:\n                /* \"#utility.yul\":6269:6332   */\n              swap2\n              pop\n                /* \"#utility.yul\":6224:6342   */\n              pop\n                /* \"#utility.yul\":5875:6349   */\n              swap3\n              pop\n              swap3\n              swap1\n              pop\n              jump\t// out\n                /* \"#utility.yul\":6355:6535   */\n            tag_210:\n                /* \"#utility.yul\":6403:6480   */\n              0x4e487b7100000000000000000000000000000000000000000000000000000000\n                /* \"#utility.yul\":6400:6401   */\n              0x00\n                /* \"#utility.yul\":6393:6481   */\n              mstore\n                /* \"#utility.yul\":6500:6504   */\n              0x22\n                /* \"#utility.yul\":6497:6498   */\n              0x04\n                /* \"#utility.yul\":6490:6505   */\n              mstore\n                /* \"#utility.yul\":6524:6528   */\n              0x24\n                /* \"#utility.yul\":6521:6522   */\n              0x00\n                /* \"#utility.yul\":6514:6529   */\n              revert\n                /* \"#utility.yul\":6541:6861   */\n            tag_88:\n                /* \"#utility.yul\":6585:6591   */\n              0x00\n                /* \"#utility.yul\":6622:6623   */\n              0x02\n                /* \"#utility.yul\":6616:6620   */\n              dup3\n                /* \"#utility.yul\":6612:6624   */\n              div\n                /* \"#utility.yul\":6602:6624   */\n              swap1\n              pop\n                /* \"#utility.yul\":6669:6670   */\n              0x01\n                /* \"#utility.yul\":6663:6667   */\n              dup3\n                /* \"#utility.yul\":6659:6671   */\n              and\n                /* \"#utility.yul\":6690:6708   */\n              dup1\n                /* \"#utility.yul\":6680:6761   */\n              tag_292\n              jumpi\n                /* \"#utility.yul\":6746:6750   */\n              0x7f\n                /* \"#utility.yul\":6738:6744   */\n              dup3\n                /* \"#utility.yul\":6734:6751   */\n              and\n                /* \"#utility.yul\":6724:6751   */\n              swap2\n              pop\n                /* \"#utility.yul\":6680:6761   */\n            tag_292:\n                /* \"#utility.yul\":6808:6810   */\n              0x20\n                /* \"#utility.yul\":6800:6806   */\n              dup3\n                /* \"#utility.yul\":6797:6811   */\n              lt\n                /* \"#utility.yul\":6777:6795   */\n              dup2\n                /* \"#utility.yul\":6774:6812   */\n              sub\n                /* \"#utility.yul\":6771:6855   */\n              tag_293\n              jumpi\n                /* \"#utility.yul\":6827:6845   */\n              tag_294\n              tag_210\n              jump\t// in\n            tag_294:\n                /* \"#utility.yul\":6771:6855   */\n            tag_293:\n                /* \"#utility.yul\":6592:6861   */\n              pop\n                /* \"#utility.yul\":6541:6861   */\n              swap2\n              swap1\n              pop\n              jump\t// out\n                /* \"#utility.yul\":6867:7047   */\n            tag_211:\n                /* \"#utility.yul\":6915:6992   */\n              0x4e487b7100000000000000000000000000000000000000000000000000000000\n                /* \"#utility.yul\":6912:6913   */\n              0x00\n                /* \"#utility.yul\":6905:6993   */\n              mstore\n                /* \"#utility.yul\":7012:7016   */\n              0x11\n                /* \"#utility.yul\":7009:7010   */\n              0x04\n                /* \"#utility.yul\":7002:7017   */\n              mstore\n                /* \"#utility.yul\":7036:7040   */\n              0x24\n                /* \"#utility.yul\":7033:7034   */\n              0x00\n                /* \"#utility.yul\":7026:7041   */\n              revert\n                /* \"#utility.yul\":7053:7155   */\n            tag_212:\n                /* \"#utility.yul\":7095:7103   */\n              0x00\n                /* \"#utility.yul\":7142:7147   */\n              dup2\n                /* \"#utility.yul\":7139:7140   */\n              0x01\n                /* \"#utility.yul\":7135:7148   */\n              shr\n                /* \"#utility.yul\":7114:7148   */\n              swap1\n              pop\n                /* \"#utility.yul\":7053:7155   */\n              swap2\n              swap1\n              pop\n              jump\t// out\n                /* \"#utility.yul\":7161:8009   */\n            tag_213:\n                /* \"#utility.yul\":7222:7227   */\n              0x00\n                /* \"#utility.yul\":7229:7233   */\n              dup1\n                /* \"#utility.yul\":7253:7259   */\n              dup3\n                /* \"#utility.yul\":7244:7259   */\n              swap2\n              pop\n                /* \"#utility.yul\":7277:7282   */\n              dup4\n                /* \"#utility.yul\":7268:7282   */\n              swap1\n              pop\n                /* \"#utility.yul\":7291:8003   */\n            tag_298:\n                /* \"#utility.yul\":7312:7313   */\n              0x01\n                /* \"#utility.yul\":7302:7310   */\n              dup6\n                /* \"#utility.yul\":7299:7314   */\n              gt\n                /* \"#utility.yul\":7291:8003   */\n              iszero\n              tag_300\n              jumpi\n                /* \"#utility.yul\":7407:7411   */\n              dup1\n                /* \"#utility.yul\":7402:7405   */\n              dup7\n                /* \"#utility.yul\":7398:7412   */\n              div\n                /* \"#utility.yul\":7392:7396   */\n              dup2\n                /* \"#utility.yul\":7389:7413   */\n              gt\n                /* \"#utility.yul\":7386:7436   */\n              iszero\n              tag_301\n              jumpi\n                /* \"#utility.yul\":7416:7434   */\n              tag_302\n              tag_211\n              jump\t// in\n            tag_302:\n                /* \"#utility.yul\":7386:7436   */\n            tag_301:\n                /* \"#utility.yul\":7466:7467   */\n              0x01\n                /* \"#utility.yul\":7456:7464   */\n              dup6\n                /* \"#utility.yul\":7452:7468   */\n              and\n                /* \"#utility.yul\":7449:7900   */\n              iszero\n              tag_303\n              jumpi\n                /* \"#utility.yul\":7881:7885   */\n              dup1\n                /* \"#utility.yul\":7874:7879   */\n              dup3\n                /* \"#utility.yul\":7870:7886   */\n              mul\n                /* \"#utility.yul\":7861:7886   */\n              swap2\n              pop\n                /* \"#utility.yul\":7449:7900   */\n            tag_303:\n                /* \"#utility.yul\":7931:7935   */\n              dup1\n                /* \"#utility.yul\":7925:7929   */\n              dup2\n                /* \"#utility.yul\":7921:7936   */\n              mul\n                /* \"#utility.yul\":7913:7936   */\n              swap1\n              pop\n                /* \"#utility.yul\":7961:7993   */\n              tag_304\n                /* \"#utility.yul\":7984:7992   */\n              dup6\n                /* \"#utility.yul\":7961:7993   */\n              tag_212\n              jump\t// in\n            tag_304:\n                /* \"#utility.yul\":7949:7993   */\n              swap5\n              pop\n                /* \"#utility.yul\":7291:8003   */\n              jump(tag_298)\n            tag_300:\n                /* \"#utility.yul\":7161:8009   */\n              swap5\n              pop\n              swap5\n              swap3\n              pop\n              pop\n              pop\n              jump\t// out\n                /* \"#utility.yul\":8015:9088   */\n            tag_214:\n                /* \"#utility.yul\":8069:8074   */\n              0x00\n                /* \"#utility.yul\":8260:8268   */\n              dup3\n                /* \"#utility.yul\":8250:8290   */\n              tag_306\n              jumpi\n                /* \"#utility.yul\":8281:8282   */\n              0x01\n                /* \"#utility.yul\":8272:8282   */\n              swap1\n              pop\n                /* \"#utility.yul\":8283:8288   */\n              jump(tag_305)\n                /* \"#utility.yul\":8250:8290   */\n            tag_306:\n                /* \"#utility.yul\":8309:8313   */\n              dup2\n                /* \"#utility.yul\":8299:8335   */\n              tag_307\n              jumpi\n                /* \"#utility.yul\":8326:8327   */\n              0x00\n                /* \"#utility.yul\":8317:8327   */\n              swap1\n              pop\n                /* \"#utility.yul\":8328:8333   */\n              jump(tag_305)\n                /* \"#utility.yul\":8299:8335   */\n            tag_307:\n                /* \"#utility.yul\":8395:8399   */\n              dup2\n                /* \"#utility.yul\":8443:8444   */\n              0x01\n                /* \"#utility.yul\":8438:8465   */\n              dup2\n              eq\n              tag_309\n              jumpi\n                /* \"#utility.yul\":8479:8480   */\n              0x02\n                /* \"#utility.yul\":8474:8665   */\n              dup2\n              eq\n              tag_310\n              jumpi\n                /* \"#utility.yul\":8388:8665   */\n              jump(tag_308)\n                /* \"#utility.yul\":8438:8465   */\n            tag_309:\n                /* \"#utility.yul\":8456:8457   */\n              0x01\n                /* \"#utility.yul\":8447:8457   */\n              swap2\n              pop\n                /* \"#utility.yul\":8458:8463   */\n              pop\n              jump(tag_305)\n                /* \"#utility.yul\":8474:8665   */\n            tag_310:\n                /* \"#utility.yul\":8519:8522   */\n              0xff\n                /* \"#utility.yul\":8509:8517   */\n              dup5\n                /* \"#utility.yul\":8506:8523   */\n              gt\n                /* \"#utility.yul\":8503:8546   */\n              iszero\n              tag_311\n              jumpi\n                /* \"#utility.yul\":8526:8544   */\n              tag_312\n              tag_211\n              jump\t// in\n            tag_312:\n                /* \"#utility.yul\":8503:8546   */\n            tag_311:\n                /* \"#utility.yul\":8575:8583   */\n              dup4\n                /* \"#utility.yul\":8572:8573   */\n              0x02\n                /* \"#utility.yul\":8568:8584   */\n              exp\n                /* \"#utility.yul\":8559:8584   */\n              swap2\n              pop\n                /* \"#utility.yul\":8610:8613   */\n              dup5\n                /* \"#utility.yul\":8603:8608   */\n              dup3\n                /* \"#utility.yul\":8600:8614   */\n              gt\n                /* \"#utility.yul\":8597:8637   */\n              iszero\n              tag_313\n              jumpi\n                /* \"#utility.yul\":8617:8635   */\n              tag_314\n              tag_211\n              jump\t// in\n            tag_314:\n                /* \"#utility.yul\":8597:8637   */\n            tag_313:\n                /* \"#utility.yul\":8650:8655   */\n              pop\n              jump(tag_305)\n                /* \"#utility.yul\":8388:8665   */\n            tag_308:\n              pop\n                /* \"#utility.yul\":8774:8776   */\n              0x20\n                /* \"#utility.yul\":8764:8772   */\n              dup4\n                /* \"#utility.yul\":8761:8777   */\n              lt\n                /* \"#utility.yul\":8755:8758   */\n              0x0133\n                /* \"#utility.yul\":8749:8753   */\n              dup4\n                /* \"#utility.yul\":8746:8759   */\n              lt\n                /* \"#utility.yul\":8742:8778   */\n              and\n                /* \"#utility.yul\":8724:8726   */\n              0x4e\n                /* \"#utility.yul\":8714:8722   */\n              dup5\n                /* \"#utility.yul\":8711:8727   */\n              lt\n                /* \"#utility.yul\":8706:8708   */\n              0x0b\n                /* \"#utility.yul\":8700:8704   */\n              dup5\n                /* \"#utility.yul\":8697:8709   */\n              lt\n                /* \"#utility.yul\":8693:8728   */\n              and\n                /* \"#utility.yul\":8677:8788   */\n              or\n                /* \"#utility.yul\":8674:8920   */\n              iszero\n              tag_315\n              jumpi\n                /* \"#utility.yul\":8830:8838   */\n              dup3\n                /* \"#utility.yul\":8824:8828   */\n              dup3\n                /* \"#utility.yul\":8820:8839   */\n              exp\n                /* \"#utility.yul\":8811:8839   */\n              swap1\n              pop\n                /* \"#utility.yul\":8865:8868   */\n              dup4\n                /* \"#utility.yul\":8858:8863   */\n              dup2\n                /* \"#utility.yul\":8855:8869   */\n              gt\n                /* \"#utility.yul\":8852:8892   */\n              iszero\n              tag_316\n              jumpi\n                /* \"#utility.yul\":8872:8890   */\n              tag_317\n              tag_211\n              jump\t// in\n            tag_317:\n                /* \"#utility.yul\":8852:8892   */\n            tag_316:\n                /* \"#utility.yul\":8905:8910   */\n              jump(tag_305)\n                /* \"#utility.yul\":8674:8920   */\n            tag_315:\n                /* \"#utility.yul\":8945:8987   */\n              tag_318\n                /* \"#utility.yul\":8983:8986   */\n              dup5\n                /* \"#utility.yul\":8973:8981   */\n              dup5\n                /* \"#utility.yul\":8967:8971   */\n              dup5\n                /* \"#utility.yul\":8964:8965   */\n              0x01\n                /* \"#utility.yul\":8945:8987   */\n              tag_213\n              jump\t// in\n            tag_318:\n                /* \"#utility.yul\":8930:8987   */\n              swap3\n              pop\n              swap1\n              pop\n                /* \"#utility.yul\":9019:9023   */\n              dup2\n                /* \"#utility.yul\":9014:9017   */\n              dup5\n                /* \"#utility.yul\":9010:9024   */\n              div\n                /* \"#utility.yul\":9003:9008   */\n              dup2\n                /* \"#utility.yul\":9000:9025   */\n              gt\n                /* \"#utility.yul\":8997:9048   */\n              iszero\n              tag_319\n              jumpi\n                /* \"#utility.yul\":9028:9046   */\n              tag_320\n              tag_211\n              jump\t// in\n            tag_320:\n                /* \"#utility.yul\":8997:9048   */\n            tag_319:\n                /* \"#utility.yul\":9077:9081   */\n              dup2\n                /* \"#utility.yul\":9070:9075   */\n              dup2\n                /* \"#utility.yul\":9066:9082   */\n              mul\n                /* \"#utility.yul\":9057:9082   */\n              swap1\n              pop\n                /* \"#utility.yul\":8015:9088   */\n            tag_305:\n              swap4\n              swap3\n              pop\n              pop\n              pop\n              jump\t// out\n                /* \"#utility.yul\":9094:9375   */\n            tag_112:\n                /* \"#utility.yul\":9152:9157   */\n              0x00\n                /* \"#utility.yul\":9176:9199   */\n              tag_322\n                /* \"#utility.yul\":9194:9198   */\n              dup3\n                /* \"#utility.yul\":9176:9199   */\n              tag_201\n              jump\t// in\n            tag_322:\n                /* \"#utility.yul\":9168:9199   */\n              swap2\n              pop\n                /* \"#utility.yul\":9220:9245   */\n              tag_323\n                /* \"#utility.yul\":9236:9244   */\n              dup4\n                /* \"#utility.yul\":9220:9245   */\n              tag_207\n              jump\t// in\n            tag_323:\n                /* \"#utility.yul\":9208:9245   */\n              swap3\n              pop\n                /* \"#utility.yul\":9264:9368   */\n              tag_324\n                /* \"#utility.yul\":9301:9367   */\n              0xffffffffffffffffffffffffffffffffffffffffffffffffffffffffffffffff\n                /* \"#utility.yul\":9291:9299   */\n              dup5\n                /* \"#utility.yul\":9285:9289   */\n              dup5\n                /* \"#utility.yul\":9264:9368   */\n              tag_214\n              jump\t// in\n            tag_324:\n                /* \"#utility.yul\":9255:9368   */\n              swap1\n              pop\n                /* \"#utility.yul\":9094:9375   */\n              swap3\n              swap2\n              pop\n              pop\n              jump\t// out\n                /* \"#utility.yul\":9381:9791   */\n            tag_114:\n                /* \"#utility.yul\":9421:9428   */\n              0x00\n                /* \"#utility.yul\":9444:9464   */\n              tag_326\n                /* \"#utility.yul\":9462:9463   */\n              dup3\n                /* \"#utility.yul\":9444:9464   */\n              tag_201\n              jump\t// in\n            tag_326:\n                /* \"#utility.yul\":9439:9464   */\n              swap2\n              pop\n                /* \"#utility.yul\":9478:9498   */\n              tag_327\n                /* \"#utility.yul\":9496:9497   */\n              dup4\n                /* \"#utility.yul\":9478:9498   */\n              tag_201\n              jump\t// in\n            tag_327:\n                /* \"#utility.yul\":9473:9498   */\n              swap3\n              pop\n                /* \"#utility.yul\":9533:9534   */\n              dup3\n                /* \"#utility.yul\":9530:9531   */\n              dup3\n                /* \"#utility.yul\":9526:9535   */\n              mul\n                /* \"#utility.yul\":9555:9585   */\n              tag_328\n                /* \"#utility.yul\":9573:9584   */\n              dup2\n                /* \"#utility.yul\":9555:9585   */\n              tag_201\n              jump\t// in\n            tag_328:\n                /* \"#utility.yul\":9544:9585   */\n              swap2\n              pop\n                /* \"#utility.yul\":9734:9735   */\n              dup3\n                /* \"#utility.yul\":9725:9732   */\n              dup3\n                /* \"#utility.yul\":9721:9736   */\n              div\n                /* \"#utility.yul\":9718:9719   */\n              dup5\n                /* \"#utility.yul\":9715:9737   */\n              eq\n                /* \"#utility.yul\":9695:9696   */\n              dup4\n                /* \"#utility.yul\":9688:9697   */\n              iszero\n                /* \"#utility.yul\":9668:9751   */\n              or\n                /* \"#utility.yul\":9645:9784   */\n              tag_329\n              jumpi\n                /* \"#utility.yul\":9764:9782   */\n              tag_330\n              tag_211\n              jump\t// in\n            tag_330:\n                /* \"#utility.yul\":9645:9784   */\n            tag_329:\n                /* \"#utility.yul\":9429:9791   */\n              pop\n                /* \"#utility.yul\":9381:9791   */\n              swap3\n              swap2\n              pop\n              pop\n              jump\t// out\n                /* \"#utility.yul\":9797:9977   */\n            tag_215:\n                /* \"#utility.yul\":9845:9922   */\n              0x4e487b7100000000000000000000000000000000000000000000000000000000\n                /* \"#utility.yul\":9842:9843   */\n              0x00\n                /* \"#utility.yul\":9835:9923   */\n              mstore\n                /* \"#utility.yul\":9942:9946   */\n              0x12\n                /* \"#utility.yul\":9939:9940   */\n              0x04\n                /* \"#utility.yul\":9932:9947   */\n              mstore\n                /* \"#utility.yul\":9966:9970   */\n              0x24\n                /* \"#utility.yul\":9963:9964   */\n              0x00\n                /* \"#utility.yul\":9956:9971   */\n              revert\n                /* \"#utility.yul\":9983:10168   */\n            tag_129:\n                /* \"#utility.yul\":10023:10024   */\n              0x00\n                /* \"#utility.yul\":10040:10060   */\n              tag_333\n                /* \"#utility.yul\":10058:10059   */\n              dup3\n                /* \"#utility.yul\":10040:10060   */\n              tag_201\n              jump\t// in\n            tag_333:\n                /* \"#utility.yul\":10035:10060   */\n              swap2\n              pop\n                /* \"#utility.yul\":10074:10094   */\n              tag_334\n                /* \"#utility.yul\":10092:10093   */\n              dup4\n                /* \"#utility.yul\":10074:10094   */\n              tag_201\n              jump\t// in\n            tag_334:\n                /* \"#utility.yul\":10069:10094   */\n              swap3\n              pop\n                /* \"#utility.yul\":10113:10114   */\n              dup3\n                /* \"#utility.yul\":10103:10138   */\n              tag_335\n              jumpi\n                /* \"#utility.yul\":10118:10136   */\n              tag_336\n              tag_215\n              jump\t// in\n            tag_336:\n                /* \"#utility.yul\":10103:10138   */\n            tag_335:\n                /* \"#utility.yul\":10160:10161   */\n              dup3\n                /* \"#utility.yul\":10157:10158   */\n              dup3\n                /* \"#utility.yul\":10153:10162   */\n              div\n                /* \"#utility.yul\":10148:10162   */\n              swap1\n              pop\n                /* \"#utility.yul\":9983:10168   */\n              swap3\n              swap2\n              pop\n              pop\n              jump\t// out\n                /* \"#utility.yul\":10174:10616   */\n            tag_156:\n                /* \"#utility.yul\":10323:10327   */\n              0x00\n                /* \"#utility.yul\":10361:10363   */\n              0x60\n                /* \"#utility.yul\":10350:10359   */\n              dup3\n                /* \"#utility.yul\":10346:10364   */\n              add\n                /* \"#utility.yul\":10338:10364   */\n              swap1\n              pop\n                /* \"#utility.yul\":10374:10445   */\n              tag_338\n                /* \"#utility.yul\":10442:10443   */\n              0x00\n                /* \"#utility.yul\":10431:10440   */\n              dup4\n                /* \"#utility.yul\":10427:10444   */\n              add\n                /* \"#utility.yul\":10418:10424   */\n              dup7\n                /* \"#utility.yul\":10374:10445   */\n              tag_209\n              jump\t// in\n            tag_338:\n                /* \"#utility.yul\":10455:10527   */\n              tag_339\n                /* \"#utility.yul\":10523:10525   */\n              0x20\n                /* \"#utility.yul\":10512:10521   */\n              dup4\n                /* \"#utility.yul\":10508:10526   */\n              add\n                /* \"#utility.yul\":10499:10505   */\n              dup6\n                /* \"#utility.yul\":10455:10527   */\n              tag_206\n              jump\t// in\n            tag_339:\n                /* \"#utility.yul\":10537:10609   */\n              tag_340\n                /* \"#utility.yul\":10605:10607   */\n              0x40\n                /* \"#utility.yul\":10594:10603   */\n              dup4\n                /* \"#utility.yul\":10590:10608   */\n              add\n                /* \"#utility.yul\":10581:10587   */\n              dup5\n                /* \"#utility.yul\":10537:10609   */\n              tag_206\n              jump\t// in\n            tag_340:\n                /* \"#utility.yul\":10174:10616   */\n              swap5\n              swap4\n              pop\n              pop\n              pop\n              pop\n              jump\t// out\n                /* \"#utility.yul\":10622:10813   */\n            tag_182:\n                /* \"#utility.yul\":10662:10665   */\n              0x00\n                /* \"#utility.yul\":10681:10701   */\n              tag_342\n                /* \"#utility.yul\":10699:10700   */\n              dup3\n                /* \"#utility.yul\":10681:10701   */\n              tag_201\n              jump\t// in\n            tag_342:\n                /* \"#utility.yul\":10676:10701   */\n              swap2\n              pop\n                /* \"#utility.yul\":10715:10735   */\n              tag_343\n                /* \"#utility.yul\":10733:10734   */\n              dup4\n                /* \"#utility.yul\":10715:10735   */\n              tag_201\n              jump\t// in\n            tag_343:\n                /* \"#utility.yul\":10710:10735   */\n              swap3\n              pop\n                /* \"#utility.yul\":10758:10759   */\n              dup3\n                /* \"#utility.yul\":10755:10756   */\n              dup3\n                /* \"#utility.yul\":10751:10760   */\n              add\n                /* \"#utility.yul\":10744:10760   */\n              swap1\n              pop\n                /* \"#utility.yul\":10779:10782   */\n              dup1\n                /* \"#utility.yul\":10776:10777   */\n              dup3\n                /* \"#utility.yul\":10773:10783   */\n              gt\n                /* \"#utility.yul\":10770:10806   */\n              iszero\n              tag_344\n              jumpi\n                /* \"#utility.yul\":10786:10804   */\n              tag_345\n              tag_211\n              jump\t// in\n            tag_345:\n                /* \"#utility.yul\":10770:10806   */\n            tag_344:\n                /* \"#utility.yul\":10622:10813   */\n              swap3\n              swap2\n              pop\n              pop\n              jump\t// out\n\n            auxdata: 0xa2646970667358221220833ef495b13a3185341dabcd15ce934f345ad9c356121ee626fb8fd2c30dbb5364736f6c63430008160033\n        }\n    }\n\n    auxdata: 0xa264697066735822122045ffc038dabb622e329c7f722b066acffff7b822606ea1cd5deb79e25dafcaef64736f6c63430008160033\n}\n",
				"bytecode": {
					"linkReferences": {},
					"object": "608060405260015f55348015610013575f80fd5b50612a15806100215f395ff3fe608060405234801562000010575f80fd5b506004361062000044575f3560e01c8063169aaad61462000048578063d0a5e51e1462000068578063f023664b146200008a575b5f80fd5b6200006660048036038101906200006091906200046c565b620000c1565b005b620000726200018a565b6040516200008191906200052a565b60405180910390f35b620000a86004803603810190620000a2919062000545565b6200018f565b604051620000b89291906200060a565b60405180910390f35b5f60015f805481526020019081526020015f2090505f85858585604051620000e9906200025c565b620000f894939291906200063c565b604051809103905ff08015801562000112573d5f803e3d5ffd5b50905080825f015f6101000a81548173ffffffffffffffffffffffffffffffffffffffff021916908373ffffffffffffffffffffffffffffffffffffffff16021790555085826001019081620001699190620008b9565b505f808154809291906200017d90620009ca565b9190505550505050505050565b5f5481565b6001602052805f5260405f205f91509050805f015f9054906101000a900473ffffffffffffffffffffffffffffffffffffffff1690806001018054620001d590620006c2565b80601f01602080910402602001604051908101604052809291908181526020018280546200020390620006c2565b8015620002525780601f10620002285761010080835404028352916020019162000252565b820191905f5260205f20905b8154815290600101906020018083116200023457829003601f168201915b5050505050905082565b611fc98062000a1783390190565b5f604051905090565b5f80fd5b5f80fd5b5f80fd5b5f80fd5b5f601f19601f8301169050919050565b7f4e487b71000000000000000000000000000000000000000000000000000000005f52604160045260245ffd5b620002cb8262000283565b810181811067ffffffffffffffff82111715620002ed57620002ec62000293565b5b80604052505050565b5f620003016200026a565b90506200030f8282620002c0565b919050565b5f67ffffffffffffffff82111562000331576200033062000293565b5b6200033c8262000283565b9050602081019050919050565b828183375f83830152505050565b5f6200036d620003678462000314565b620002f6565b9050828152602081018484840111156200038c576200038b6200027f565b5b6200039984828562000349565b509392505050565b5f82601f830112620003b857620003b76200027b565b5b8135620003ca84826020860162000357565b91505092915050565b5f819050919050565b620003e781620003d3565b8114620003f2575f80fd5b50565b5f813590506200040581620003dc565b92915050565b5f73ffffffffffffffffffffffffffffffffffffffff82169050919050565b5f62000436826200040b565b9050919050565b62000448816200042a565b811462000453575f80fd5b50565b5f8135905062000466816200043d565b92915050565b5f805f806080858703121562000487576200048662000273565b5b5f85013567ffffffffffffffff811115620004a757620004a662000277565b5b620004b587828801620003a1565b945050602085013567ffffffffffffffff811115620004d957620004d862000277565b5b620004e787828801620003a1565b9350506040620004fa87828801620003f5565b92505060606200050d8782880162000456565b91505092959194509250565b6200052481620003d3565b82525050565b5f6020820190506200053f5f83018462000519565b92915050565b5f602082840312156200055d576200055c62000273565b5b5f6200056c84828501620003f5565b91505092915050565b62000580816200042a565b82525050565b5f81519050919050565b5f82825260208201905092915050565b5f5b83811015620005bf578082015181840152602081019050620005a2565b5f8484015250505050565b5f620005d68262000586565b620005e2818562000590565b9350620005f4818560208601620005a0565b620005ff8162000283565b840191505092915050565b5f6040820190506200061f5f83018562000575565b8181036020830152620006338184620005ca565b90509392505050565b5f6080820190508181035f830152620006568187620005ca565b905081810360208301526200066c8186620005ca565b90506200067d604083018562000519565b6200068c606083018462000575565b95945050505050565b7f4e487b71000000000000000000000000000000000000000000000000000000005f52602260045260245ffd5b5f6002820490506001821680620006da57607f821691505b602082108103620006f057620006ef62000695565b5b50919050565b5f819050815f5260205f209050919050565b5f6020601f8301049050919050565b5f82821b905092915050565b5f60088302620007547fffffffffffffffffffffffffffffffffffffffffffffffffffffffffffffffff8262000717565b62000760868362000717565b95508019841693508086168417925050509392505050565b5f819050919050565b5f620007a16200079b6200079584620003d3565b62000778565b620003d3565b9050919050565b5f819050919050565b620007bc8362000781565b620007d4620007cb82620007a8565b84845462000723565b825550505050565b5f90565b620007ea620007dc565b620007f7818484620007b1565b505050565b5b818110156200081e57620008125f82620007e0565b600181019050620007fd565b5050565b601f8211156200086d576200083781620006f6565b620008428462000708565b8101602085101562000852578190505b6200086a620008618562000708565b830182620007fc565b50505b505050565b5f82821c905092915050565b5f6200088f5f198460080262000872565b1980831691505092915050565b5f620008a983836200087e565b9150826002028217905092915050565b620008c48262000586565b67ffffffffffffffff811115620008e057620008df62000293565b5b620008ec8254620006c2565b620008f982828562000822565b5f60209050601f8311600181146200092f575f84156200091a578287015190505b6200092685826200089c565b86555062000995565b601f1984166200093f86620006f6565b5f5b82811015620009685784890151825560018201915060208501945060208101905062000941565b8683101562000988578489015162000984601f8916826200087e565b8355505b6001600288020188555050505b505050505050565b7f4e487b71000000000000000000000000000000000000000000000000000000005f52601160045260245ffd5b5f620009d682620003d3565b91507fffffffffffffffffffffffffffffffffffffffffffffffffffffffffffffffff820362000a0b5762000a0a6200099d565b5b60018201905091905056fe608060405234801562000010575f80fd5b5060405162001fc938038062001fc98339818101604052810190620000369190620006a4565b80848481600390816200004a91906200097f565b5080600490816200005c91906200097f565b5050505f73ffffffffffffffffffffffffffffffffffffffff168173ffffffffffffffffffffffffffffffffffffffff1603620000d2575f6040517f1e4fbdf7000000000000000000000000000000000000000000000000000000008152600401620000c9919062000a74565b60405180910390fd5b620000e3816200011560201b60201c565b506200010b33670de0b6b3a764000084620000ff919062000abc565b620001d860201b60201c565b5050505062000ba7565b5f60055f9054906101000a900473ffffffffffffffffffffffffffffffffffffffff1690508160055f6101000a81548173ffffffffffffffffffffffffffffffffffffffff021916908373ffffffffffffffffffffffffffffffffffffffff1602179055508173ffffffffffffffffffffffffffffffffffffffff168173ffffffffffffffffffffffffffffffffffffffff167f8be0079c531659141344cd1fd0a4f28419497f9722a3daafe3b4186f6b6457e060405160405180910390a35050565b5f73ffffffffffffffffffffffffffffffffffffffff168273ffffffffffffffffffffffffffffffffffffffff16036200024b575f6040517fec442f0500000000000000000000000000000000000000000000000000000000815260040162000242919062000a74565b60405180910390fd5b6200025e5f83836200026260201b60201c565b5050565b5f73ffffffffffffffffffffffffffffffffffffffff168373ffffffffffffffffffffffffffffffffffffffff1603620002b6578060025f828254620002a9919062000b06565b9250508190555062000387565b5f805f8573ffffffffffffffffffffffffffffffffffffffff1673ffffffffffffffffffffffffffffffffffffffff1681526020019081526020015f205490508181101562000342578381836040517fe450d38c000000000000000000000000000000000000000000000000000000008152600401620003399392919062000b51565b60405180910390fd5b8181035f808673ffffffffffffffffffffffffffffffffffffffff1673ffffffffffffffffffffffffffffffffffffffff1681526020019081526020015f2081905550505b5f73ffffffffffffffffffffffffffffffffffffffff168273ffffffffffffffffffffffffffffffffffffffff1603620003d0578060025f82825403925050819055506200041a565b805f808473ffffffffffffffffffffffffffffffffffffffff1673ffffffffffffffffffffffffffffffffffffffff1681526020019081526020015f205f82825401925050819055505b8173ffffffffffffffffffffffffffffffffffffffff168373ffffffffffffffffffffffffffffffffffffffff167fddf252ad1be2c89b69c2b068fc378daa952ba7f163c4a11628f55a4df523b3ef8360405162000479919062000b8c565b60405180910390a3505050565b5f604051905090565b5f80fd5b5f80fd5b5f80fd5b5f80fd5b5f601f19601f8301169050919050565b7f4e487b71000000000000000000000000000000000000000000000000000000005f52604160045260245ffd5b620004e7826200049f565b810181811067ffffffffffffffff82111715620005095762000508620004af565b5b80604052505050565b5f6200051d62000486565b90506200052b8282620004dc565b919050565b5f67ffffffffffffffff8211156200054d576200054c620004af565b5b62000558826200049f565b9050602081019050919050565b5f5b838110156200058457808201518184015260208101905062000567565b5f8484015250505050565b5f620005a56200059f8462000530565b62000512565b905082815260208101848484011115620005c457620005c36200049b565b5b620005d184828562000565565b509392505050565b5f82601f830112620005f057620005ef62000497565b5b8151620006028482602086016200058f565b91505092915050565b5f819050919050565b6200061f816200060b565b81146200062a575f80fd5b50565b5f815190506200063d8162000614565b92915050565b5f73ffffffffffffffffffffffffffffffffffffffff82169050919050565b5f6200066e8262000643565b9050919050565b620006808162000662565b81146200068b575f80fd5b50565b5f815190506200069e8162000675565b92915050565b5f805f8060808587031215620006bf57620006be6200048f565b5b5f85015167ffffffffffffffff811115620006df57620006de62000493565b5b620006ed87828801620005d9565b945050602085015167ffffffffffffffff81111562000711576200071062000493565b5b6200071f87828801620005d9565b935050604062000732878288016200062d565b925050606062000745878288016200068e565b91505092959194509250565b5f81519050919050565b7f4e487b71000000000000000000000000000000000000000000000000000000005f52602260045260245ffd5b5f6002820490506001821680620007a057607f821691505b602082108103620007b657620007b56200075b565b5b50919050565b5f819050815f5260205f209050919050565b5f6020601f8301049050919050565b5f82821b905092915050565b5f600883026200081a7fffffffffffffffffffffffffffffffffffffffffffffffffffffffffffffffff82620007dd565b620008268683620007dd565b95508019841693508086168417925050509392505050565b5f819050919050565b5f62000867620008616200085b846200060b565b6200083e565b6200060b565b9050919050565b5f819050919050565b620008828362000847565b6200089a62000891826200086e565b848454620007e9565b825550505050565b5f90565b620008b0620008a2565b620008bd81848462000877565b505050565b5b81811015620008e457620008d85f82620008a6565b600181019050620008c3565b5050565b601f8211156200093357620008fd81620007bc565b6200090884620007ce565b8101602085101562000918578190505b620009306200092785620007ce565b830182620008c2565b50505b505050565b5f82821c905092915050565b5f620009555f198460080262000938565b1980831691505092915050565b5f6200096f838362000944565b9150826002028217905092915050565b6200098a8262000751565b67ffffffffffffffff811115620009a657620009a5620004af565b5b620009b2825462000788565b620009bf828285620008e8565b5f60209050601f831160018114620009f5575f8415620009e0578287015190505b620009ec858262000962565b86555062000a5b565b601f19841662000a0586620007bc565b5f5b8281101562000a2e5784890151825560018201915060208501945060208101905062000a07565b8683101562000a4e578489015162000a4a601f89168262000944565b8355505b6001600288020188555050505b505050505050565b62000a6e8162000662565b82525050565b5f60208201905062000a895f83018462000a63565b92915050565b7f4e487b71000000000000000000000000000000000000000000000000000000005f52601160045260245ffd5b5f62000ac8826200060b565b915062000ad5836200060b565b925082820262000ae5816200060b565b9150828204841483151762000aff5762000afe62000a8f565b5b5092915050565b5f62000b12826200060b565b915062000b1f836200060b565b925082820190508082111562000b3a5762000b3962000a8f565b5b92915050565b62000b4b816200060b565b82525050565b5f60608201905062000b665f83018662000a63565b62000b75602083018562000b40565b62000b84604083018462000b40565b949350505050565b5f60208201905062000ba15f83018462000b40565b92915050565b6114148062000bb55f395ff3fe608060405234801561000f575f80fd5b50600436106100fe575f3560e01c8063715018a6116100955780639bd0bd8a116100645780639bd0bd8a146102ae578063a9059cbb146102ca578063dd62ed3e146102fa578063f2fde38b1461032a576100fe565b8063715018a6146102385780638da5cb5b1461024257806393e8ec861461026057806395d89b4114610290576100fe565b8063313ce567116100d1578063313ce5671461019e57806334fcf437146101bc5780636cccff09146101d857806370a0823114610208576100fe565b806306fdde0314610102578063095ea7b31461012057806318160ddd1461015057806323b872dd1461016e575b5f80fd5b61010a610346565b6040516101179190610e4b565b60405180910390f35b61013a60048036038101906101359190610efc565b6103d6565b6040516101479190610f54565b60405180910390f35b6101586103f8565b6040516101659190610f7c565b60405180910390f35b61018860048036038101906101839190610f95565b610401565b6040516101959190610f54565b60405180910390f35b6101a661042f565b6040516101b39190611000565b60405180910390f35b6101d660048036038101906101d19190611019565b610437565b005b6101f260048036038101906101ed9190611019565b610467565b6040516101ff9190610f7c565b60405180910390f35b610222600480360381019061021d9190611044565b61046d565b60405161022f9190610f7c565b60405180910390f35b6102406104b2565b005b61024a6104c5565b604051610257919061107e565b60405180910390f35b61027a60048036038101906102759190611019565b6104ed565b6040516102879190610f7c565b60405180910390f35b610298610539565b6040516102a59190610e4b565b60405180910390f35b6102c860048036038101906102c39190611019565b6105c9565b005b6102e460048036038101906102df9190610efc565b6105cc565b6040516102f19190610f54565b60405180910390f35b610314600480360381019061030f9190611097565b6105ee565b6040516103219190610f7c565b60405180910390f35b610344600480360381019061033f9190611044565b610670565b005b60606003805461035590611102565b80601f016020809104026020016040519081016040528092919081815260200182805461038190611102565b80156103cc5780601f106103a3576101008083540402835291602001916103cc565b820191905f5260205f20905b8154815290600101906020018083116103af57829003601f168201915b5050505050905090565b5f806103e06106f4565b90506103ed8185856106fb565b600191505092915050565b5f600254905090565b5f8061040b6106f4565b905061041885828561070d565b61042385858561079f565b60019150509392505050565b5f6012905090565b61043f61088f565b61044761042f565b600a610453919061128e565b8161045e91906112d8565b60068190555050565b5f919050565b5f805f8373ffffffffffffffffffffffffffffffffffffffff1673ffffffffffffffffffffffffffffffffffffffff1681526020019081526020015f20549050919050565b6104ba61088f565b6104c35f610916565b565b5f60055f9054906101000a900473ffffffffffffffffffffffffffffffffffffffff16905090565b5f80600654670de0b6b3a764000061050361042f565b600a61050f919061128e565b8561051a91906112d8565b61052491906112d8565b61052e9190611346565b905080915050919050565b60606004805461054890611102565b80601f016020809104026020016040519081016040528092919081815260200182805461057490611102565b80156105bf5780601f10610596576101008083540402835291602001916105bf565b820191905f5260205f20905b8154815290600101906020018083116105a257829003601f168201915b5050505050905090565b50565b5f806105d66106f4565b90506105e381858561079f565b600191505092915050565b5f60015f8473ffffffffffffffffffffffffffffffffffffffff1673ffffffffffffffffffffffffffffffffffffffff1681526020019081526020015f205f8373ffffffffffffffffffffffffffffffffffffffff1673ffffffffffffffffffffffffffffffffffffffff1681526020019081526020015f2054905092915050565b61067861088f565b5f73ffffffffffffffffffffffffffffffffffffffff168173ffffffffffffffffffffffffffffffffffffffff16036106e8575f6040517f1e4fbdf70000000000000000000000000000000000000000000000000000000081526004016106df919061107e565b60405180910390fd5b6106f181610916565b50565b5f33905090565b61070883838360016109d9565b505050565b5f61071884846105ee565b90507fffffffffffffffffffffffffffffffffffffffffffffffffffffffffffffffff8114610799578181101561078a578281836040517ffb8f41b200000000000000000000000000000000000000000000000000000000815260040161078193929190611376565b60405180910390fd5b61079884848484035f6109d9565b5b50505050565b5f73ffffffffffffffffffffffffffffffffffffffff168373ffffffffffffffffffffffffffffffffffffffff160361080f575f6040517f96c6fd1e000000000000000000000000000000000000000000000000000000008152600401610806919061107e565b60405180910390fd5b5f73ffffffffffffffffffffffffffffffffffffffff168273ffffffffffffffffffffffffffffffffffffffff160361087f575f6040517fec442f05000000000000000000000000000000000000000000000000000000008152600401610876919061107e565b60405180910390fd5b61088a838383610ba8565b505050565b6108976106f4565b73ffffffffffffffffffffffffffffffffffffffff166108b56104c5565b73ffffffffffffffffffffffffffffffffffffffff1614610914576108d86106f4565b6040517f118cdaa700000000000000000000000000000000000000000000000000000000815260040161090b919061107e565b60405180910390fd5b565b5f60055f9054906101000a900473ffffffffffffffffffffffffffffffffffffffff1690508160055f6101000a81548173ffffffffffffffffffffffffffffffffffffffff021916908373ffffffffffffffffffffffffffffffffffffffff1602179055508173ffffffffffffffffffffffffffffffffffffffff168173ffffffffffffffffffffffffffffffffffffffff167f8be0079c531659141344cd1fd0a4f28419497f9722a3daafe3b4186f6b6457e060405160405180910390a35050565b5f73ffffffffffffffffffffffffffffffffffffffff168473ffffffffffffffffffffffffffffffffffffffff1603610a49575f6040517fe602df05000000000000000000000000000000000000000000000000000000008152600401610a40919061107e565b60405180910390fd5b5f73ffffffffffffffffffffffffffffffffffffffff168373ffffffffffffffffffffffffffffffffffffffff1603610ab9575f6040517f94280d62000000000000000000000000000000000000000000000000000000008152600401610ab0919061107e565b60405180910390fd5b8160015f8673ffffffffffffffffffffffffffffffffffffffff1673ffffffffffffffffffffffffffffffffffffffff1681526020019081526020015f205f8573ffffffffffffffffffffffffffffffffffffffff1673ffffffffffffffffffffffffffffffffffffffff1681526020019081526020015f20819055508015610ba2578273ffffffffffffffffffffffffffffffffffffffff168473ffffffffffffffffffffffffffffffffffffffff167f8c5be1e5ebec7d5bd14f71427d1e84f3dd0314c0f7b2291e5b200ac8c7c3b92584604051610b999190610f7c565b60405180910390a35b50505050565b5f73ffffffffffffffffffffffffffffffffffffffff168373ffffffffffffffffffffffffffffffffffffffff1603610bf8578060025f828254610bec91906113ab565b92505081905550610cc6565b5f805f8573ffffffffffffffffffffffffffffffffffffffff1673ffffffffffffffffffffffffffffffffffffffff1681526020019081526020015f2054905081811015610c81578381836040517fe450d38c000000000000000000000000000000000000000000000000000000008152600401610c7893929190611376565b60405180910390fd5b8181035f808673ffffffffffffffffffffffffffffffffffffffff1673ffffffffffffffffffffffffffffffffffffffff1681526020019081526020015f2081905550505b5f73ffffffffffffffffffffffffffffffffffffffff168273ffffffffffffffffffffffffffffffffffffffff1603610d0d578060025f8282540392505081905550610d57565b805f808473ffffffffffffffffffffffffffffffffffffffff1673ffffffffffffffffffffffffffffffffffffffff1681526020019081526020015f205f82825401925050819055505b8173ffffffffffffffffffffffffffffffffffffffff168373ffffffffffffffffffffffffffffffffffffffff167fddf252ad1be2c89b69c2b068fc378daa952ba7f163c4a11628f55a4df523b3ef83604051610db49190610f7c565b60405180910390a3505050565b5f81519050919050565b5f82825260208201905092915050565b5f5b83811015610df8578082015181840152602081019050610ddd565b5f8484015250505050565b5f601f19601f8301169050919050565b5f610e1d82610dc1565b610e278185610dcb565b9350610e37818560208601610ddb565b610e4081610e03565b840191505092915050565b5f6020820190508181035f830152610e638184610e13565b905092915050565b5f80fd5b5f73ffffffffffffffffffffffffffffffffffffffff82169050919050565b5f610e9882610e6f565b9050919050565b610ea881610e8e565b8114610eb2575f80fd5b50565b5f81359050610ec381610e9f565b92915050565b5f819050919050565b610edb81610ec9565b8114610ee5575f80fd5b50565b5f81359050610ef681610ed2565b92915050565b5f8060408385031215610f1257610f11610e6b565b5b5f610f1f85828601610eb5565b9250506020610f3085828601610ee8565b9150509250929050565b5f8115159050919050565b610f4e81610f3a565b82525050565b5f602082019050610f675f830184610f45565b92915050565b610f7681610ec9565b82525050565b5f602082019050610f8f5f830184610f6d565b92915050565b5f805f60608486031215610fac57610fab610e6b565b5b5f610fb986828701610eb5565b9350506020610fca86828701610eb5565b9250506040610fdb86828701610ee8565b9150509250925092565b5f60ff82169050919050565b610ffa81610fe5565b82525050565b5f6020820190506110135f830184610ff1565b92915050565b5f6020828403121561102e5761102d610e6b565b5b5f61103b84828501610ee8565b91505092915050565b5f6020828403121561105957611058610e6b565b5b5f61106684828501610eb5565b91505092915050565b61107881610e8e565b82525050565b5f6020820190506110915f83018461106f565b92915050565b5f80604083850312156110ad576110ac610e6b565b5b5f6110ba85828601610eb5565b92505060206110cb85828601610eb5565b9150509250929050565b7f4e487b71000000000000000000000000000000000000000000000000000000005f52602260045260245ffd5b5f600282049050600182168061111957607f821691505b60208210810361112c5761112b6110d5565b5b50919050565b7f4e487b71000000000000000000000000000000000000000000000000000000005f52601160045260245ffd5b5f8160011c9050919050565b5f808291508390505b60018511156111b4578086048111156111905761118f611132565b5b600185161561119f5780820291505b80810290506111ad8561115f565b9450611174565b94509492505050565b5f826111cc5760019050611287565b816111d9575f9050611287565b81600181146111ef57600281146111f957611228565b6001915050611287565b60ff84111561120b5761120a611132565b5b8360020a91508482111561122257611221611132565b5b50611287565b5060208310610133831016604e8410600b841016171561125d5782820a90508381111561125857611257611132565b5b611287565b61126a848484600161116b565b9250905081840481111561128157611280611132565b5b81810290505b9392505050565b5f61129882610ec9565b91506112a383610fe5565b92506112d07fffffffffffffffffffffffffffffffffffffffffffffffffffffffffffffffff84846111bd565b905092915050565b5f6112e282610ec9565b91506112ed83610ec9565b92508282026112fb81610ec9565b9150828204841483151761131257611311611132565b5b5092915050565b7f4e487b71000000000000000000000000000000000000000000000000000000005f52601260045260245ffd5b5f61135082610ec9565b915061135b83610ec9565b92508261136b5761136a611319565b5b828204905092915050565b5f6060820190506113895f83018661106f565b6113966020830185610f6d565b6113a36040830184610f6d565b949350505050565b5f6113b582610ec9565b91506113c083610ec9565b92508282019050808211156113d8576113d7611132565b5b9291505056fea2646970667358221220833ef495b13a3185341dabcd15ce934f345ad9c356121ee626fb8fd2c30dbb5364736f6c63430008160033a264697066735822122045ffc038dabb622e329c7f722b066acffff7b822606ea1cd5deb79e25dafcaef64736f6c63430008160033",
					"opcodes": "PUSH1 0x80 PUSH1 0x40 MSTORE PUSH1 0x1 PUSH0 SSTORE CALLVALUE DUP1 ISZERO PUSH2 0x13 JUMPI PUSH0 DUP1 REVERT JUMPDEST POP PUSH2 0x2A15 DUP1 PUSH2 0x21 PUSH0 CODECOPY PUSH0 RETURN INVALID PUSH1 0x80 PUSH1 0x40 MSTORE CALLVALUE DUP1 ISZERO PUSH3 0x10 JUMPI PUSH0 DUP1 REVERT JUMPDEST POP PUSH1 0x4 CALLDATASIZE LT PUSH3 0x44 JUMPI PUSH0 CALLDATALOAD PUSH1 0xE0 SHR DUP1 PUSH4 0x169AAAD6 EQ PUSH3 0x48 JUMPI DUP1 PUSH4 0xD0A5E51E EQ PUSH3 0x68 JUMPI DUP1 PUSH4 0xF023664B EQ PUSH3 0x8A JUMPI JUMPDEST PUSH0 DUP1 REVERT JUMPDEST PUSH3 0x66 PUSH1 0x4 DUP1 CALLDATASIZE SUB DUP2 ADD SWAP1 PUSH3 0x60 SWAP2 SWAP1 PUSH3 0x46C JUMP JUMPDEST PUSH3 0xC1 JUMP JUMPDEST STOP JUMPDEST PUSH3 0x72 PUSH3 0x18A JUMP JUMPDEST PUSH1 0x40 MLOAD PUSH3 0x81 SWAP2 SWAP1 PUSH3 0x52A JUMP JUMPDEST PUSH1 0x40 MLOAD DUP1 SWAP2 SUB SWAP1 RETURN JUMPDEST PUSH3 0xA8 PUSH1 0x4 DUP1 CALLDATASIZE SUB DUP2 ADD SWAP1 PUSH3 0xA2 SWAP2 SWAP1 PUSH3 0x545 JUMP JUMPDEST PUSH3 0x18F JUMP JUMPDEST PUSH1 0x40 MLOAD PUSH3 0xB8 SWAP3 SWAP2 SWAP1 PUSH3 0x60A JUMP JUMPDEST PUSH1 0x40 MLOAD DUP1 SWAP2 SUB SWAP1 RETURN JUMPDEST PUSH0 PUSH1 0x1 PUSH0 DUP1 SLOAD DUP2 MSTORE PUSH1 0x20 ADD SWAP1 DUP2 MSTORE PUSH1 0x20 ADD PUSH0 KECCAK256 SWAP1 POP PUSH0 DUP6 DUP6 DUP6 DUP6 PUSH1 0x40 MLOAD PUSH3 0xE9 SWAP1 PUSH3 0x25C JUMP JUMPDEST PUSH3 0xF8 SWAP5 SWAP4 SWAP3 SWAP2 SWAP1 PUSH3 0x63C JUMP JUMPDEST PUSH1 0x40 MLOAD DUP1 SWAP2 SUB SWAP1 PUSH0 CREATE DUP1 ISZERO DUP1 ISZERO PUSH3 0x112 JUMPI RETURNDATASIZE PUSH0 DUP1 RETURNDATACOPY RETURNDATASIZE PUSH0 REVERT JUMPDEST POP SWAP1 POP DUP1 DUP3 PUSH0 ADD PUSH0 PUSH2 0x100 EXP DUP2 SLOAD DUP2 PUSH20 0xFFFFFFFFFFFFFFFFFFFFFFFFFFFFFFFFFFFFFFFF MUL NOT AND SWAP1 DUP4 PUSH20 0xFFFFFFFFFFFFFFFFFFFFFFFFFFFFFFFFFFFFFFFF AND MUL OR SWAP1 SSTORE POP DUP6 DUP3 PUSH1 0x1 ADD SWAP1 DUP2 PUSH3 0x169 SWAP2 SWAP1 PUSH3 0x8B9 JUMP JUMPDEST POP PUSH0 DUP1 DUP2 SLOAD DUP1 SWAP3 SWAP2 SWAP1 PUSH3 0x17D SWAP1 PUSH3 0x9CA JUMP JUMPDEST SWAP2 SWAP1 POP SSTORE POP POP POP POP POP POP POP JUMP JUMPDEST PUSH0 SLOAD DUP2 JUMP JUMPDEST PUSH1 0x1 PUSH1 0x20 MSTORE DUP1 PUSH0 MSTORE PUSH1 0x40 PUSH0 KECCAK256 PUSH0 SWAP2 POP SWAP1 POP DUP1 PUSH0 ADD PUSH0 SWAP1 SLOAD SWAP1 PUSH2 0x100 EXP SWAP1 DIV PUSH20 0xFFFFFFFFFFFFFFFFFFFFFFFFFFFFFFFFFFFFFFFF AND SWAP1 DUP1 PUSH1 0x1 ADD DUP1 SLOAD PUSH3 0x1D5 SWAP1 PUSH3 0x6C2 JUMP JUMPDEST DUP1 PUSH1 0x1F ADD PUSH1 0x20 DUP1 SWAP2 DIV MUL PUSH1 0x20 ADD PUSH1 0x40 MLOAD SWAP1 DUP2 ADD PUSH1 0x40 MSTORE DUP1 SWAP3 SWAP2 SWAP1 DUP2 DUP2 MSTORE PUSH1 0x20 ADD DUP3 DUP1 SLOAD PUSH3 0x203 SWAP1 PUSH3 0x6C2 JUMP JUMPDEST DUP1 ISZERO PUSH3 0x252 JUMPI DUP1 PUSH1 0x1F LT PUSH3 0x228 JUMPI PUSH2 0x100 DUP1 DUP4 SLOAD DIV MUL DUP4 MSTORE SWAP2 PUSH1 0x20 ADD SWAP2 PUSH3 0x252 JUMP JUMPDEST DUP3 ADD SWAP2 SWAP1 PUSH0 MSTORE PUSH1 0x20 PUSH0 KECCAK256 SWAP1 JUMPDEST DUP2 SLOAD DUP2 MSTORE SWAP1 PUSH1 0x1 ADD SWAP1 PUSH1 0x20 ADD DUP1 DUP4 GT PUSH3 0x234 JUMPI DUP3 SWAP1 SUB PUSH1 0x1F AND DUP3 ADD SWAP2 JUMPDEST POP POP POP POP POP SWAP1 POP DUP3 JUMP JUMPDEST PUSH2 0x1FC9 DUP1 PUSH3 0xA17 DUP4 CODECOPY ADD SWAP1 JUMP JUMPDEST PUSH0 PUSH1 0x40 MLOAD SWAP1 POP SWAP1 JUMP JUMPDEST PUSH0 DUP1 REVERT JUMPDEST PUSH0 DUP1 REVERT JUMPDEST PUSH0 DUP1 REVERT JUMPDEST PUSH0 DUP1 REVERT JUMPDEST PUSH0 PUSH1 0x1F NOT PUSH1 0x1F DUP4 ADD AND SWAP1 POP SWAP2 SWAP1 POP JUMP JUMPDEST PUSH32 0x4E487B7100000000000000000000000000000000000000000000000000000000 PUSH0 MSTORE PUSH1 0x41 PUSH1 0x4 MSTORE PUSH1 0x24 PUSH0 REVERT JUMPDEST PUSH3 0x2CB DUP3 PUSH3 0x283 JUMP JUMPDEST DUP2 ADD DUP2 DUP2 LT PUSH8 0xFFFFFFFFFFFFFFFF DUP3 GT OR ISZERO PUSH3 0x2ED JUMPI PUSH3 0x2EC PUSH3 0x293 JUMP JUMPDEST JUMPDEST DUP1 PUSH1 0x40 MSTORE POP POP POP JUMP JUMPDEST PUSH0 PUSH3 0x301 PUSH3 0x26A JUMP JUMPDEST SWAP1 POP PUSH3 0x30F DUP3 DUP3 PUSH3 0x2C0 JUMP JUMPDEST SWAP2 SWAP1 POP JUMP JUMPDEST PUSH0 PUSH8 0xFFFFFFFFFFFFFFFF DUP3 GT ISZERO PUSH3 0x331 JUMPI PUSH3 0x330 PUSH3 0x293 JUMP JUMPDEST JUMPDEST PUSH3 0x33C DUP3 PUSH3 0x283 JUMP JUMPDEST SWAP1 POP PUSH1 0x20 DUP2 ADD SWAP1 POP SWAP2 SWAP1 POP JUMP JUMPDEST DUP3 DUP2 DUP4 CALLDATACOPY PUSH0 DUP4 DUP4 ADD MSTORE POP POP POP JUMP JUMPDEST PUSH0 PUSH3 0x36D PUSH3 0x367 DUP5 PUSH3 0x314 JUMP JUMPDEST PUSH3 0x2F6 JUMP JUMPDEST SWAP1 POP DUP3 DUP2 MSTORE PUSH1 0x20 DUP2 ADD DUP5 DUP5 DUP5 ADD GT ISZERO PUSH3 0x38C JUMPI PUSH3 0x38B PUSH3 0x27F JUMP JUMPDEST JUMPDEST PUSH3 0x399 DUP5 DUP3 DUP6 PUSH3 0x349 JUMP JUMPDEST POP SWAP4 SWAP3 POP POP POP JUMP JUMPDEST PUSH0 DUP3 PUSH1 0x1F DUP4 ADD SLT PUSH3 0x3B8 JUMPI PUSH3 0x3B7 PUSH3 0x27B JUMP JUMPDEST JUMPDEST DUP2 CALLDATALOAD PUSH3 0x3CA DUP5 DUP3 PUSH1 0x20 DUP7 ADD PUSH3 0x357 JUMP JUMPDEST SWAP2 POP POP SWAP3 SWAP2 POP POP JUMP JUMPDEST PUSH0 DUP2 SWAP1 POP SWAP2 SWAP1 POP JUMP JUMPDEST PUSH3 0x3E7 DUP2 PUSH3 0x3D3 JUMP JUMPDEST DUP2 EQ PUSH3 0x3F2 JUMPI PUSH0 DUP1 REVERT JUMPDEST POP JUMP JUMPDEST PUSH0 DUP2 CALLDATALOAD SWAP1 POP PUSH3 0x405 DUP2 PUSH3 0x3DC JUMP JUMPDEST SWAP3 SWAP2 POP POP JUMP JUMPDEST PUSH0 PUSH20 0xFFFFFFFFFFFFFFFFFFFFFFFFFFFFFFFFFFFFFFFF DUP3 AND SWAP1 POP SWAP2 SWAP1 POP JUMP JUMPDEST PUSH0 PUSH3 0x436 DUP3 PUSH3 0x40B JUMP JUMPDEST SWAP1 POP SWAP2 SWAP1 POP JUMP JUMPDEST PUSH3 0x448 DUP2 PUSH3 0x42A JUMP JUMPDEST DUP2 EQ PUSH3 0x453 JUMPI PUSH0 DUP1 REVERT JUMPDEST POP JUMP JUMPDEST PUSH0 DUP2 CALLDATALOAD SWAP1 POP PUSH3 0x466 DUP2 PUSH3 0x43D JUMP JUMPDEST SWAP3 SWAP2 POP POP JUMP JUMPDEST PUSH0 DUP1 PUSH0 DUP1 PUSH1 0x80 DUP6 DUP8 SUB SLT ISZERO PUSH3 0x487 JUMPI PUSH3 0x486 PUSH3 0x273 JUMP JUMPDEST JUMPDEST PUSH0 DUP6 ADD CALLDATALOAD PUSH8 0xFFFFFFFFFFFFFFFF DUP2 GT ISZERO PUSH3 0x4A7 JUMPI PUSH3 0x4A6 PUSH3 0x277 JUMP JUMPDEST JUMPDEST PUSH3 0x4B5 DUP8 DUP3 DUP9 ADD PUSH3 0x3A1 JUMP JUMPDEST SWAP5 POP POP PUSH1 0x20 DUP6 ADD CALLDATALOAD PUSH8 0xFFFFFFFFFFFFFFFF DUP2 GT ISZERO PUSH3 0x4D9 JUMPI PUSH3 0x4D8 PUSH3 0x277 JUMP JUMPDEST JUMPDEST PUSH3 0x4E7 DUP8 DUP3 DUP9 ADD PUSH3 0x3A1 JUMP JUMPDEST SWAP4 POP POP PUSH1 0x40 PUSH3 0x4FA DUP8 DUP3 DUP9 ADD PUSH3 0x3F5 JUMP JUMPDEST SWAP3 POP POP PUSH1 0x60 PUSH3 0x50D DUP8 DUP3 DUP9 ADD PUSH3 0x456 JUMP JUMPDEST SWAP2 POP POP SWAP3 SWAP6 SWAP2 SWAP5 POP SWAP3 POP JUMP JUMPDEST PUSH3 0x524 DUP2 PUSH3 0x3D3 JUMP JUMPDEST DUP3 MSTORE POP POP JUMP JUMPDEST PUSH0 PUSH1 0x20 DUP3 ADD SWAP1 POP PUSH3 0x53F PUSH0 DUP4 ADD DUP5 PUSH3 0x519 JUMP JUMPDEST SWAP3 SWAP2 POP POP JUMP JUMPDEST PUSH0 PUSH1 0x20 DUP3 DUP5 SUB SLT ISZERO PUSH3 0x55D JUMPI PUSH3 0x55C PUSH3 0x273 JUMP JUMPDEST JUMPDEST PUSH0 PUSH3 0x56C DUP5 DUP3 DUP6 ADD PUSH3 0x3F5 JUMP JUMPDEST SWAP2 POP POP SWAP3 SWAP2 POP POP JUMP JUMPDEST PUSH3 0x580 DUP2 PUSH3 0x42A JUMP JUMPDEST DUP3 MSTORE POP POP JUMP JUMPDEST PUSH0 DUP2 MLOAD SWAP1 POP SWAP2 SWAP1 POP JUMP JUMPDEST PUSH0 DUP3 DUP3 MSTORE PUSH1 0x20 DUP3 ADD SWAP1 POP SWAP3 SWAP2 POP POP JUMP JUMPDEST PUSH0 JUMPDEST DUP4 DUP2 LT ISZERO PUSH3 0x5BF JUMPI DUP1 DUP3 ADD MLOAD DUP2 DUP5 ADD MSTORE PUSH1 0x20 DUP2 ADD SWAP1 POP PUSH3 0x5A2 JUMP JUMPDEST PUSH0 DUP5 DUP5 ADD MSTORE POP POP POP POP JUMP JUMPDEST PUSH0 PUSH3 0x5D6 DUP3 PUSH3 0x586 JUMP JUMPDEST PUSH3 0x5E2 DUP2 DUP6 PUSH3 0x590 JUMP JUMPDEST SWAP4 POP PUSH3 0x5F4 DUP2 DUP6 PUSH1 0x20 DUP7 ADD PUSH3 0x5A0 JUMP JUMPDEST PUSH3 0x5FF DUP2 PUSH3 0x283 JUMP JUMPDEST DUP5 ADD SWAP2 POP POP SWAP3 SWAP2 POP POP JUMP JUMPDEST PUSH0 PUSH1 0x40 DUP3 ADD SWAP1 POP PUSH3 0x61F PUSH0 DUP4 ADD DUP6 PUSH3 0x575 JUMP JUMPDEST DUP2 DUP2 SUB PUSH1 0x20 DUP4 ADD MSTORE PUSH3 0x633 DUP2 DUP5 PUSH3 0x5CA JUMP JUMPDEST SWAP1 POP SWAP4 SWAP3 POP POP POP JUMP JUMPDEST PUSH0 PUSH1 0x80 DUP3 ADD SWAP1 POP DUP2 DUP2 SUB PUSH0 DUP4 ADD MSTORE PUSH3 0x656 DUP2 DUP8 PUSH3 0x5CA JUMP JUMPDEST SWAP1 POP DUP2 DUP2 SUB PUSH1 0x20 DUP4 ADD MSTORE PUSH3 0x66C DUP2 DUP7 PUSH3 0x5CA JUMP JUMPDEST SWAP1 POP PUSH3 0x67D PUSH1 0x40 DUP4 ADD DUP6 PUSH3 0x519 JUMP JUMPDEST PUSH3 0x68C PUSH1 0x60 DUP4 ADD DUP5 PUSH3 0x575 JUMP JUMPDEST SWAP6 SWAP5 POP POP POP POP POP JUMP JUMPDEST PUSH32 0x4E487B7100000000000000000000000000000000000000000000000000000000 PUSH0 MSTORE PUSH1 0x22 PUSH1 0x4 MSTORE PUSH1 0x24 PUSH0 REVERT JUMPDEST PUSH0 PUSH1 0x2 DUP3 DIV SWAP1 POP PUSH1 0x1 DUP3 AND DUP1 PUSH3 0x6DA JUMPI PUSH1 0x7F DUP3 AND SWAP2 POP JUMPDEST PUSH1 0x20 DUP3 LT DUP2 SUB PUSH3 0x6F0 JUMPI PUSH3 0x6EF PUSH3 0x695 JUMP JUMPDEST JUMPDEST POP SWAP2 SWAP1 POP JUMP JUMPDEST PUSH0 DUP2 SWAP1 POP DUP2 PUSH0 MSTORE PUSH1 0x20 PUSH0 KECCAK256 SWAP1 POP SWAP2 SWAP1 POP JUMP JUMPDEST PUSH0 PUSH1 0x20 PUSH1 0x1F DUP4 ADD DIV SWAP1 POP SWAP2 SWAP1 POP JUMP JUMPDEST PUSH0 DUP3 DUP3 SHL SWAP1 POP SWAP3 SWAP2 POP POP JUMP JUMPDEST PUSH0 PUSH1 0x8 DUP4 MUL PUSH3 0x754 PUSH32 0xFFFFFFFFFFFFFFFFFFFFFFFFFFFFFFFFFFFFFFFFFFFFFFFFFFFFFFFFFFFFFFFF DUP3 PUSH3 0x717 JUMP JUMPDEST PUSH3 0x760 DUP7 DUP4 PUSH3 0x717 JUMP JUMPDEST SWAP6 POP DUP1 NOT DUP5 AND SWAP4 POP DUP1 DUP7 AND DUP5 OR SWAP3 POP POP POP SWAP4 SWAP3 POP POP POP JUMP JUMPDEST PUSH0 DUP2 SWAP1 POP SWAP2 SWAP1 POP JUMP JUMPDEST PUSH0 PUSH3 0x7A1 PUSH3 0x79B PUSH3 0x795 DUP5 PUSH3 0x3D3 JUMP JUMPDEST PUSH3 0x778 JUMP JUMPDEST PUSH3 0x3D3 JUMP JUMPDEST SWAP1 POP SWAP2 SWAP1 POP JUMP JUMPDEST PUSH0 DUP2 SWAP1 POP SWAP2 SWAP1 POP JUMP JUMPDEST PUSH3 0x7BC DUP4 PUSH3 0x781 JUMP JUMPDEST PUSH3 0x7D4 PUSH3 0x7CB DUP3 PUSH3 0x7A8 JUMP JUMPDEST DUP5 DUP5 SLOAD PUSH3 0x723 JUMP JUMPDEST DUP3 SSTORE POP POP POP POP JUMP JUMPDEST PUSH0 SWAP1 JUMP JUMPDEST PUSH3 0x7EA PUSH3 0x7DC JUMP JUMPDEST PUSH3 0x7F7 DUP2 DUP5 DUP5 PUSH3 0x7B1 JUMP JUMPDEST POP POP POP JUMP JUMPDEST JUMPDEST DUP2 DUP2 LT ISZERO PUSH3 0x81E JUMPI PUSH3 0x812 PUSH0 DUP3 PUSH3 0x7E0 JUMP JUMPDEST PUSH1 0x1 DUP2 ADD SWAP1 POP PUSH3 0x7FD JUMP JUMPDEST POP POP JUMP JUMPDEST PUSH1 0x1F DUP3 GT ISZERO PUSH3 0x86D JUMPI PUSH3 0x837 DUP2 PUSH3 0x6F6 JUMP JUMPDEST PUSH3 0x842 DUP5 PUSH3 0x708 JUMP JUMPDEST DUP2 ADD PUSH1 0x20 DUP6 LT ISZERO PUSH3 0x852 JUMPI DUP2 SWAP1 POP JUMPDEST PUSH3 0x86A PUSH3 0x861 DUP6 PUSH3 0x708 JUMP JUMPDEST DUP4 ADD DUP3 PUSH3 0x7FC JUMP JUMPDEST POP POP JUMPDEST POP POP POP JUMP JUMPDEST PUSH0 DUP3 DUP3 SHR SWAP1 POP SWAP3 SWAP2 POP POP JUMP JUMPDEST PUSH0 PUSH3 0x88F PUSH0 NOT DUP5 PUSH1 0x8 MUL PUSH3 0x872 JUMP JUMPDEST NOT DUP1 DUP4 AND SWAP2 POP POP SWAP3 SWAP2 POP POP JUMP JUMPDEST PUSH0 PUSH3 0x8A9 DUP4 DUP4 PUSH3 0x87E JUMP JUMPDEST SWAP2 POP DUP3 PUSH1 0x2 MUL DUP3 OR SWAP1 POP SWAP3 SWAP2 POP POP JUMP JUMPDEST PUSH3 0x8C4 DUP3 PUSH3 0x586 JUMP JUMPDEST PUSH8 0xFFFFFFFFFFFFFFFF DUP2 GT ISZERO PUSH3 0x8E0 JUMPI PUSH3 0x8DF PUSH3 0x293 JUMP JUMPDEST JUMPDEST PUSH3 0x8EC DUP3 SLOAD PUSH3 0x6C2 JUMP JUMPDEST PUSH3 0x8F9 DUP3 DUP3 DUP6 PUSH3 0x822 JUMP JUMPDEST PUSH0 PUSH1 0x20 SWAP1 POP PUSH1 0x1F DUP4 GT PUSH1 0x1 DUP2 EQ PUSH3 0x92F JUMPI PUSH0 DUP5 ISZERO PUSH3 0x91A JUMPI DUP3 DUP8 ADD MLOAD SWAP1 POP JUMPDEST PUSH3 0x926 DUP6 DUP3 PUSH3 0x89C JUMP JUMPDEST DUP7 SSTORE POP PUSH3 0x995 JUMP JUMPDEST PUSH1 0x1F NOT DUP5 AND PUSH3 0x93F DUP7 PUSH3 0x6F6 JUMP JUMPDEST PUSH0 JUMPDEST DUP3 DUP2 LT ISZERO PUSH3 0x968 JUMPI DUP5 DUP10 ADD MLOAD DUP3 SSTORE PUSH1 0x1 DUP3 ADD SWAP2 POP PUSH1 0x20 DUP6 ADD SWAP5 POP PUSH1 0x20 DUP2 ADD SWAP1 POP PUSH3 0x941 JUMP JUMPDEST DUP7 DUP4 LT ISZERO PUSH3 0x988 JUMPI DUP5 DUP10 ADD MLOAD PUSH3 0x984 PUSH1 0x1F DUP10 AND DUP3 PUSH3 0x87E JUMP JUMPDEST DUP4 SSTORE POP JUMPDEST PUSH1 0x1 PUSH1 0x2 DUP9 MUL ADD DUP9 SSTORE POP POP POP JUMPDEST POP POP POP POP POP POP JUMP JUMPDEST PUSH32 0x4E487B7100000000000000000000000000000000000000000000000000000000 PUSH0 MSTORE PUSH1 0x11 PUSH1 0x4 MSTORE PUSH1 0x24 PUSH0 REVERT JUMPDEST PUSH0 PUSH3 0x9D6 DUP3 PUSH3 0x3D3 JUMP JUMPDEST SWAP2 POP PUSH32 0xFFFFFFFFFFFFFFFFFFFFFFFFFFFFFFFFFFFFFFFFFFFFFFFFFFFFFFFFFFFFFFFF DUP3 SUB PUSH3 0xA0B JUMPI PUSH3 0xA0A PUSH3 0x99D JUMP JUMPDEST JUMPDEST PUSH1 0x1 DUP3 ADD SWAP1 POP SWAP2 SWAP1 POP JUMP INVALID PUSH1 0x80 PUSH1 0x40 MSTORE CALLVALUE DUP1 ISZERO PUSH3 0x10 JUMPI PUSH0 DUP1 REVERT JUMPDEST POP PUSH1 0x40 MLOAD PUSH3 0x1FC9 CODESIZE SUB DUP1 PUSH3 0x1FC9 DUP4 CODECOPY DUP2 DUP2 ADD PUSH1 0x40 MSTORE DUP2 ADD SWAP1 PUSH3 0x36 SWAP2 SWAP1 PUSH3 0x6A4 JUMP JUMPDEST DUP1 DUP5 DUP5 DUP2 PUSH1 0x3 SWAP1 DUP2 PUSH3 0x4A SWAP2 SWAP1 PUSH3 0x97F JUMP JUMPDEST POP DUP1 PUSH1 0x4 SWAP1 DUP2 PUSH3 0x5C SWAP2 SWAP1 PUSH3 0x97F JUMP JUMPDEST POP POP POP PUSH0 PUSH20 0xFFFFFFFFFFFFFFFFFFFFFFFFFFFFFFFFFFFFFFFF AND DUP2 PUSH20 0xFFFFFFFFFFFFFFFFFFFFFFFFFFFFFFFFFFFFFFFF AND SUB PUSH3 0xD2 JUMPI PUSH0 PUSH1 0x40 MLOAD PUSH32 0x1E4FBDF700000000000000000000000000000000000000000000000000000000 DUP2 MSTORE PUSH1 0x4 ADD PUSH3 0xC9 SWAP2 SWAP1 PUSH3 0xA74 JUMP JUMPDEST PUSH1 0x40 MLOAD DUP1 SWAP2 SUB SWAP1 REVERT JUMPDEST PUSH3 0xE3 DUP2 PUSH3 0x115 PUSH1 0x20 SHL PUSH1 0x20 SHR JUMP JUMPDEST POP PUSH3 0x10B CALLER PUSH8 0xDE0B6B3A7640000 DUP5 PUSH3 0xFF SWAP2 SWAP1 PUSH3 0xABC JUMP JUMPDEST PUSH3 0x1D8 PUSH1 0x20 SHL PUSH1 0x20 SHR JUMP JUMPDEST POP POP POP POP PUSH3 0xBA7 JUMP JUMPDEST PUSH0 PUSH1 0x5 PUSH0 SWAP1 SLOAD SWAP1 PUSH2 0x100 EXP SWAP1 DIV PUSH20 0xFFFFFFFFFFFFFFFFFFFFFFFFFFFFFFFFFFFFFFFF AND SWAP1 POP DUP2 PUSH1 0x5 PUSH0 PUSH2 0x100 EXP DUP2 SLOAD DUP2 PUSH20 0xFFFFFFFFFFFFFFFFFFFFFFFFFFFFFFFFFFFFFFFF MUL NOT AND SWAP1 DUP4 PUSH20 0xFFFFFFFFFFFFFFFFFFFFFFFFFFFFFFFFFFFFFFFF AND MUL OR SWAP1 SSTORE POP DUP2 PUSH20 0xFFFFFFFFFFFFFFFFFFFFFFFFFFFFFFFFFFFFFFFF AND DUP2 PUSH20 0xFFFFFFFFFFFFFFFFFFFFFFFFFFFFFFFFFFFFFFFF AND PUSH32 0x8BE0079C531659141344CD1FD0A4F28419497F9722A3DAAFE3B4186F6B6457E0 PUSH1 0x40 MLOAD PUSH1 0x40 MLOAD DUP1 SWAP2 SUB SWAP1 LOG3 POP POP JUMP JUMPDEST PUSH0 PUSH20 0xFFFFFFFFFFFFFFFFFFFFFFFFFFFFFFFFFFFFFFFF AND DUP3 PUSH20 0xFFFFFFFFFFFFFFFFFFFFFFFFFFFFFFFFFFFFFFFF AND SUB PUSH3 0x24B JUMPI PUSH0 PUSH1 0x40 MLOAD PUSH32 0xEC442F0500000000000000000000000000000000000000000000000000000000 DUP2 MSTORE PUSH1 0x4 ADD PUSH3 0x242 SWAP2 SWAP1 PUSH3 0xA74 JUMP JUMPDEST PUSH1 0x40 MLOAD DUP1 SWAP2 SUB SWAP1 REVERT JUMPDEST PUSH3 0x25E PUSH0 DUP4 DUP4 PUSH3 0x262 PUSH1 0x20 SHL PUSH1 0x20 SHR JUMP JUMPDEST POP POP JUMP JUMPDEST PUSH0 PUSH20 0xFFFFFFFFFFFFFFFFFFFFFFFFFFFFFFFFFFFFFFFF AND DUP4 PUSH20 0xFFFFFFFFFFFFFFFFFFFFFFFFFFFFFFFFFFFFFFFF AND SUB PUSH3 0x2B6 JUMPI DUP1 PUSH1 0x2 PUSH0 DUP3 DUP3 SLOAD PUSH3 0x2A9 SWAP2 SWAP1 PUSH3 0xB06 JUMP JUMPDEST SWAP3 POP POP DUP2 SWAP1 SSTORE POP PUSH3 0x387 JUMP JUMPDEST PUSH0 DUP1 PUSH0 DUP6 PUSH20 0xFFFFFFFFFFFFFFFFFFFFFFFFFFFFFFFFFFFFFFFF AND PUSH20 0xFFFFFFFFFFFFFFFFFFFFFFFFFFFFFFFFFFFFFFFF AND DUP2 MSTORE PUSH1 0x20 ADD SWAP1 DUP2 MSTORE PUSH1 0x20 ADD PUSH0 KECCAK256 SLOAD SWAP1 POP DUP2 DUP2 LT ISZERO PUSH3 0x342 JUMPI DUP4 DUP2 DUP4 PUSH1 0x40 MLOAD PUSH32 0xE450D38C00000000000000000000000000000000000000000000000000000000 DUP2 MSTORE PUSH1 0x4 ADD PUSH3 0x339 SWAP4 SWAP3 SWAP2 SWAP1 PUSH3 0xB51 JUMP JUMPDEST PUSH1 0x40 MLOAD DUP1 SWAP2 SUB SWAP1 REVERT JUMPDEST DUP2 DUP2 SUB PUSH0 DUP1 DUP7 PUSH20 0xFFFFFFFFFFFFFFFFFFFFFFFFFFFFFFFFFFFFFFFF AND PUSH20 0xFFFFFFFFFFFFFFFFFFFFFFFFFFFFFFFFFFFFFFFF AND DUP2 MSTORE PUSH1 0x20 ADD SWAP1 DUP2 MSTORE PUSH1 0x20 ADD PUSH0 KECCAK256 DUP2 SWAP1 SSTORE POP POP JUMPDEST PUSH0 PUSH20 0xFFFFFFFFFFFFFFFFFFFFFFFFFFFFFFFFFFFFFFFF AND DUP3 PUSH20 0xFFFFFFFFFFFFFFFFFFFFFFFFFFFFFFFFFFFFFFFF AND SUB PUSH3 0x3D0 JUMPI DUP1 PUSH1 0x2 PUSH0 DUP3 DUP3 SLOAD SUB SWAP3 POP POP DUP2 SWAP1 SSTORE POP PUSH3 0x41A JUMP JUMPDEST DUP1 PUSH0 DUP1 DUP5 PUSH20 0xFFFFFFFFFFFFFFFFFFFFFFFFFFFFFFFFFFFFFFFF AND PUSH20 0xFFFFFFFFFFFFFFFFFFFFFFFFFFFFFFFFFFFFFFFF AND DUP2 MSTORE PUSH1 0x20 ADD SWAP1 DUP2 MSTORE PUSH1 0x20 ADD PUSH0 KECCAK256 PUSH0 DUP3 DUP3 SLOAD ADD SWAP3 POP POP DUP2 SWAP1 SSTORE POP JUMPDEST DUP2 PUSH20 0xFFFFFFFFFFFFFFFFFFFFFFFFFFFFFFFFFFFFFFFF AND DUP4 PUSH20 0xFFFFFFFFFFFFFFFFFFFFFFFFFFFFFFFFFFFFFFFF AND PUSH32 0xDDF252AD1BE2C89B69C2B068FC378DAA952BA7F163C4A11628F55A4DF523B3EF DUP4 PUSH1 0x40 MLOAD PUSH3 0x479 SWAP2 SWAP1 PUSH3 0xB8C JUMP JUMPDEST PUSH1 0x40 MLOAD DUP1 SWAP2 SUB SWAP1 LOG3 POP POP POP JUMP JUMPDEST PUSH0 PUSH1 0x40 MLOAD SWAP1 POP SWAP1 JUMP JUMPDEST PUSH0 DUP1 REVERT JUMPDEST PUSH0 DUP1 REVERT JUMPDEST PUSH0 DUP1 REVERT JUMPDEST PUSH0 DUP1 REVERT JUMPDEST PUSH0 PUSH1 0x1F NOT PUSH1 0x1F DUP4 ADD AND SWAP1 POP SWAP2 SWAP1 POP JUMP JUMPDEST PUSH32 0x4E487B7100000000000000000000000000000000000000000000000000000000 PUSH0 MSTORE PUSH1 0x41 PUSH1 0x4 MSTORE PUSH1 0x24 PUSH0 REVERT JUMPDEST PUSH3 0x4E7 DUP3 PUSH3 0x49F JUMP JUMPDEST DUP2 ADD DUP2 DUP2 LT PUSH8 0xFFFFFFFFFFFFFFFF DUP3 GT OR ISZERO PUSH3 0x509 JUMPI PUSH3 0x508 PUSH3 0x4AF JUMP JUMPDEST JUMPDEST DUP1 PUSH1 0x40 MSTORE POP POP POP JUMP JUMPDEST PUSH0 PUSH3 0x51D PUSH3 0x486 JUMP JUMPDEST SWAP1 POP PUSH3 0x52B DUP3 DUP3 PUSH3 0x4DC JUMP JUMPDEST SWAP2 SWAP1 POP JUMP JUMPDEST PUSH0 PUSH8 0xFFFFFFFFFFFFFFFF DUP3 GT ISZERO PUSH3 0x54D JUMPI PUSH3 0x54C PUSH3 0x4AF JUMP JUMPDEST JUMPDEST PUSH3 0x558 DUP3 PUSH3 0x49F JUMP JUMPDEST SWAP1 POP PUSH1 0x20 DUP2 ADD SWAP1 POP SWAP2 SWAP1 POP JUMP JUMPDEST PUSH0 JUMPDEST DUP4 DUP2 LT ISZERO PUSH3 0x584 JUMPI DUP1 DUP3 ADD MLOAD DUP2 DUP5 ADD MSTORE PUSH1 0x20 DUP2 ADD SWAP1 POP PUSH3 0x567 JUMP JUMPDEST PUSH0 DUP5 DUP5 ADD MSTORE POP POP POP POP JUMP JUMPDEST PUSH0 PUSH3 0x5A5 PUSH3 0x59F DUP5 PUSH3 0x530 JUMP JUMPDEST PUSH3 0x512 JUMP JUMPDEST SWAP1 POP DUP3 DUP2 MSTORE PUSH1 0x20 DUP2 ADD DUP5 DUP5 DUP5 ADD GT ISZERO PUSH3 0x5C4 JUMPI PUSH3 0x5C3 PUSH3 0x49B JUMP JUMPDEST JUMPDEST PUSH3 0x5D1 DUP5 DUP3 DUP6 PUSH3 0x565 JUMP JUMPDEST POP SWAP4 SWAP3 POP POP POP JUMP JUMPDEST PUSH0 DUP3 PUSH1 0x1F DUP4 ADD SLT PUSH3 0x5F0 JUMPI PUSH3 0x5EF PUSH3 0x497 JUMP JUMPDEST JUMPDEST DUP2 MLOAD PUSH3 0x602 DUP5 DUP3 PUSH1 0x20 DUP7 ADD PUSH3 0x58F JUMP JUMPDEST SWAP2 POP POP SWAP3 SWAP2 POP POP JUMP JUMPDEST PUSH0 DUP2 SWAP1 POP SWAP2 SWAP1 POP JUMP JUMPDEST PUSH3 0x61F DUP2 PUSH3 0x60B JUMP JUMPDEST DUP2 EQ PUSH3 0x62A JUMPI PUSH0 DUP1 REVERT JUMPDEST POP JUMP JUMPDEST PUSH0 DUP2 MLOAD SWAP1 POP PUSH3 0x63D DUP2 PUSH3 0x614 JUMP JUMPDEST SWAP3 SWAP2 POP POP JUMP JUMPDEST PUSH0 PUSH20 0xFFFFFFFFFFFFFFFFFFFFFFFFFFFFFFFFFFFFFFFF DUP3 AND SWAP1 POP SWAP2 SWAP1 POP JUMP JUMPDEST PUSH0 PUSH3 0x66E DUP3 PUSH3 0x643 JUMP JUMPDEST SWAP1 POP SWAP2 SWAP1 POP JUMP JUMPDEST PUSH3 0x680 DUP2 PUSH3 0x662 JUMP JUMPDEST DUP2 EQ PUSH3 0x68B JUMPI PUSH0 DUP1 REVERT JUMPDEST POP JUMP JUMPDEST PUSH0 DUP2 MLOAD SWAP1 POP PUSH3 0x69E DUP2 PUSH3 0x675 JUMP JUMPDEST SWAP3 SWAP2 POP POP JUMP JUMPDEST PUSH0 DUP1 PUSH0 DUP1 PUSH1 0x80 DUP6 DUP8 SUB SLT ISZERO PUSH3 0x6BF JUMPI PUSH3 0x6BE PUSH3 0x48F JUMP JUMPDEST JUMPDEST PUSH0 DUP6 ADD MLOAD PUSH8 0xFFFFFFFFFFFFFFFF DUP2 GT ISZERO PUSH3 0x6DF JUMPI PUSH3 0x6DE PUSH3 0x493 JUMP JUMPDEST JUMPDEST PUSH3 0x6ED DUP8 DUP3 DUP9 ADD PUSH3 0x5D9 JUMP JUMPDEST SWAP5 POP POP PUSH1 0x20 DUP6 ADD MLOAD PUSH8 0xFFFFFFFFFFFFFFFF DUP2 GT ISZERO PUSH3 0x711 JUMPI PUSH3 0x710 PUSH3 0x493 JUMP JUMPDEST JUMPDEST PUSH3 0x71F DUP8 DUP3 DUP9 ADD PUSH3 0x5D9 JUMP JUMPDEST SWAP4 POP POP PUSH1 0x40 PUSH3 0x732 DUP8 DUP3 DUP9 ADD PUSH3 0x62D JUMP JUMPDEST SWAP3 POP POP PUSH1 0x60 PUSH3 0x745 DUP8 DUP3 DUP9 ADD PUSH3 0x68E JUMP JUMPDEST SWAP2 POP POP SWAP3 SWAP6 SWAP2 SWAP5 POP SWAP3 POP JUMP JUMPDEST PUSH0 DUP2 MLOAD SWAP1 POP SWAP2 SWAP1 POP JUMP JUMPDEST PUSH32 0x4E487B7100000000000000000000000000000000000000000000000000000000 PUSH0 MSTORE PUSH1 0x22 PUSH1 0x4 MSTORE PUSH1 0x24 PUSH0 REVERT JUMPDEST PUSH0 PUSH1 0x2 DUP3 DIV SWAP1 POP PUSH1 0x1 DUP3 AND DUP1 PUSH3 0x7A0 JUMPI PUSH1 0x7F DUP3 AND SWAP2 POP JUMPDEST PUSH1 0x20 DUP3 LT DUP2 SUB PUSH3 0x7B6 JUMPI PUSH3 0x7B5 PUSH3 0x75B JUMP JUMPDEST JUMPDEST POP SWAP2 SWAP1 POP JUMP JUMPDEST PUSH0 DUP2 SWAP1 POP DUP2 PUSH0 MSTORE PUSH1 0x20 PUSH0 KECCAK256 SWAP1 POP SWAP2 SWAP1 POP JUMP JUMPDEST PUSH0 PUSH1 0x20 PUSH1 0x1F DUP4 ADD DIV SWAP1 POP SWAP2 SWAP1 POP JUMP JUMPDEST PUSH0 DUP3 DUP3 SHL SWAP1 POP SWAP3 SWAP2 POP POP JUMP JUMPDEST PUSH0 PUSH1 0x8 DUP4 MUL PUSH3 0x81A PUSH32 0xFFFFFFFFFFFFFFFFFFFFFFFFFFFFFFFFFFFFFFFFFFFFFFFFFFFFFFFFFFFFFFFF DUP3 PUSH3 0x7DD JUMP JUMPDEST PUSH3 0x826 DUP7 DUP4 PUSH3 0x7DD JUMP JUMPDEST SWAP6 POP DUP1 NOT DUP5 AND SWAP4 POP DUP1 DUP7 AND DUP5 OR SWAP3 POP POP POP SWAP4 SWAP3 POP POP POP JUMP JUMPDEST PUSH0 DUP2 SWAP1 POP SWAP2 SWAP1 POP JUMP JUMPDEST PUSH0 PUSH3 0x867 PUSH3 0x861 PUSH3 0x85B DUP5 PUSH3 0x60B JUMP JUMPDEST PUSH3 0x83E JUMP JUMPDEST PUSH3 0x60B JUMP JUMPDEST SWAP1 POP SWAP2 SWAP1 POP JUMP JUMPDEST PUSH0 DUP2 SWAP1 POP SWAP2 SWAP1 POP JUMP JUMPDEST PUSH3 0x882 DUP4 PUSH3 0x847 JUMP JUMPDEST PUSH3 0x89A PUSH3 0x891 DUP3 PUSH3 0x86E JUMP JUMPDEST DUP5 DUP5 SLOAD PUSH3 0x7E9 JUMP JUMPDEST DUP3 SSTORE POP POP POP POP JUMP JUMPDEST PUSH0 SWAP1 JUMP JUMPDEST PUSH3 0x8B0 PUSH3 0x8A2 JUMP JUMPDEST PUSH3 0x8BD DUP2 DUP5 DUP5 PUSH3 0x877 JUMP JUMPDEST POP POP POP JUMP JUMPDEST JUMPDEST DUP2 DUP2 LT ISZERO PUSH3 0x8E4 JUMPI PUSH3 0x8D8 PUSH0 DUP3 PUSH3 0x8A6 JUMP JUMPDEST PUSH1 0x1 DUP2 ADD SWAP1 POP PUSH3 0x8C3 JUMP JUMPDEST POP POP JUMP JUMPDEST PUSH1 0x1F DUP3 GT ISZERO PUSH3 0x933 JUMPI PUSH3 0x8FD DUP2 PUSH3 0x7BC JUMP JUMPDEST PUSH3 0x908 DUP5 PUSH3 0x7CE JUMP JUMPDEST DUP2 ADD PUSH1 0x20 DUP6 LT ISZERO PUSH3 0x918 JUMPI DUP2 SWAP1 POP JUMPDEST PUSH3 0x930 PUSH3 0x927 DUP6 PUSH3 0x7CE JUMP JUMPDEST DUP4 ADD DUP3 PUSH3 0x8C2 JUMP JUMPDEST POP POP JUMPDEST POP POP POP JUMP JUMPDEST PUSH0 DUP3 DUP3 SHR SWAP1 POP SWAP3 SWAP2 POP POP JUMP JUMPDEST PUSH0 PUSH3 0x955 PUSH0 NOT DUP5 PUSH1 0x8 MUL PUSH3 0x938 JUMP JUMPDEST NOT DUP1 DUP4 AND SWAP2 POP POP SWAP3 SWAP2 POP POP JUMP JUMPDEST PUSH0 PUSH3 0x96F DUP4 DUP4 PUSH3 0x944 JUMP JUMPDEST SWAP2 POP DUP3 PUSH1 0x2 MUL DUP3 OR SWAP1 POP SWAP3 SWAP2 POP POP JUMP JUMPDEST PUSH3 0x98A DUP3 PUSH3 0x751 JUMP JUMPDEST PUSH8 0xFFFFFFFFFFFFFFFF DUP2 GT ISZERO PUSH3 0x9A6 JUMPI PUSH3 0x9A5 PUSH3 0x4AF JUMP JUMPDEST JUMPDEST PUSH3 0x9B2 DUP3 SLOAD PUSH3 0x788 JUMP JUMPDEST PUSH3 0x9BF DUP3 DUP3 DUP6 PUSH3 0x8E8 JUMP JUMPDEST PUSH0 PUSH1 0x20 SWAP1 POP PUSH1 0x1F DUP4 GT PUSH1 0x1 DUP2 EQ PUSH3 0x9F5 JUMPI PUSH0 DUP5 ISZERO PUSH3 0x9E0 JUMPI DUP3 DUP8 ADD MLOAD SWAP1 POP JUMPDEST PUSH3 0x9EC DUP6 DUP3 PUSH3 0x962 JUMP JUMPDEST DUP7 SSTORE POP PUSH3 0xA5B JUMP JUMPDEST PUSH1 0x1F NOT DUP5 AND PUSH3 0xA05 DUP7 PUSH3 0x7BC JUMP JUMPDEST PUSH0 JUMPDEST DUP3 DUP2 LT ISZERO PUSH3 0xA2E JUMPI DUP5 DUP10 ADD MLOAD DUP3 SSTORE PUSH1 0x1 DUP3 ADD SWAP2 POP PUSH1 0x20 DUP6 ADD SWAP5 POP PUSH1 0x20 DUP2 ADD SWAP1 POP PUSH3 0xA07 JUMP JUMPDEST DUP7 DUP4 LT ISZERO PUSH3 0xA4E JUMPI DUP5 DUP10 ADD MLOAD PUSH3 0xA4A PUSH1 0x1F DUP10 AND DUP3 PUSH3 0x944 JUMP JUMPDEST DUP4 SSTORE POP JUMPDEST PUSH1 0x1 PUSH1 0x2 DUP9 MUL ADD DUP9 SSTORE POP POP POP JUMPDEST POP POP POP POP POP POP JUMP JUMPDEST PUSH3 0xA6E DUP2 PUSH3 0x662 JUMP JUMPDEST DUP3 MSTORE POP POP JUMP JUMPDEST PUSH0 PUSH1 0x20 DUP3 ADD SWAP1 POP PUSH3 0xA89 PUSH0 DUP4 ADD DUP5 PUSH3 0xA63 JUMP JUMPDEST SWAP3 SWAP2 POP POP JUMP JUMPDEST PUSH32 0x4E487B7100000000000000000000000000000000000000000000000000000000 PUSH0 MSTORE PUSH1 0x11 PUSH1 0x4 MSTORE PUSH1 0x24 PUSH0 REVERT JUMPDEST PUSH0 PUSH3 0xAC8 DUP3 PUSH3 0x60B JUMP JUMPDEST SWAP2 POP PUSH3 0xAD5 DUP4 PUSH3 0x60B JUMP JUMPDEST SWAP3 POP DUP3 DUP3 MUL PUSH3 0xAE5 DUP2 PUSH3 0x60B JUMP JUMPDEST SWAP2 POP DUP3 DUP3 DIV DUP5 EQ DUP4 ISZERO OR PUSH3 0xAFF JUMPI PUSH3 0xAFE PUSH3 0xA8F JUMP JUMPDEST JUMPDEST POP SWAP3 SWAP2 POP POP JUMP JUMPDEST PUSH0 PUSH3 0xB12 DUP3 PUSH3 0x60B JUMP JUMPDEST SWAP2 POP PUSH3 0xB1F DUP4 PUSH3 0x60B JUMP JUMPDEST SWAP3 POP DUP3 DUP3 ADD SWAP1 POP DUP1 DUP3 GT ISZERO PUSH3 0xB3A JUMPI PUSH3 0xB39 PUSH3 0xA8F JUMP JUMPDEST JUMPDEST SWAP3 SWAP2 POP POP JUMP JUMPDEST PUSH3 0xB4B DUP2 PUSH3 0x60B JUMP JUMPDEST DUP3 MSTORE POP POP JUMP JUMPDEST PUSH0 PUSH1 0x60 DUP3 ADD SWAP1 POP PUSH3 0xB66 PUSH0 DUP4 ADD DUP7 PUSH3 0xA63 JUMP JUMPDEST PUSH3 0xB75 PUSH1 0x20 DUP4 ADD DUP6 PUSH3 0xB40 JUMP JUMPDEST PUSH3 0xB84 PUSH1 0x40 DUP4 ADD DUP5 PUSH3 0xB40 JUMP JUMPDEST SWAP5 SWAP4 POP POP POP POP JUMP JUMPDEST PUSH0 PUSH1 0x20 DUP3 ADD SWAP1 POP PUSH3 0xBA1 PUSH0 DUP4 ADD DUP5 PUSH3 0xB40 JUMP JUMPDEST SWAP3 SWAP2 POP POP JUMP JUMPDEST PUSH2 0x1414 DUP1 PUSH3 0xBB5 PUSH0 CODECOPY PUSH0 RETURN INVALID PUSH1 0x80 PUSH1 0x40 MSTORE CALLVALUE DUP1 ISZERO PUSH2 0xF JUMPI PUSH0 DUP1 REVERT JUMPDEST POP PUSH1 0x4 CALLDATASIZE LT PUSH2 0xFE JUMPI PUSH0 CALLDATALOAD PUSH1 0xE0 SHR DUP1 PUSH4 0x715018A6 GT PUSH2 0x95 JUMPI DUP1 PUSH4 0x9BD0BD8A GT PUSH2 0x64 JUMPI DUP1 PUSH4 0x9BD0BD8A EQ PUSH2 0x2AE JUMPI DUP1 PUSH4 0xA9059CBB EQ PUSH2 0x2CA JUMPI DUP1 PUSH4 0xDD62ED3E EQ PUSH2 0x2FA JUMPI DUP1 PUSH4 0xF2FDE38B EQ PUSH2 0x32A JUMPI PUSH2 0xFE JUMP JUMPDEST DUP1 PUSH4 0x715018A6 EQ PUSH2 0x238 JUMPI DUP1 PUSH4 0x8DA5CB5B EQ PUSH2 0x242 JUMPI DUP1 PUSH4 0x93E8EC86 EQ PUSH2 0x260 JUMPI DUP1 PUSH4 0x95D89B41 EQ PUSH2 0x290 JUMPI PUSH2 0xFE JUMP JUMPDEST DUP1 PUSH4 0x313CE567 GT PUSH2 0xD1 JUMPI DUP1 PUSH4 0x313CE567 EQ PUSH2 0x19E JUMPI DUP1 PUSH4 0x34FCF437 EQ PUSH2 0x1BC JUMPI DUP1 PUSH4 0x6CCCFF09 EQ PUSH2 0x1D8 JUMPI DUP1 PUSH4 0x70A08231 EQ PUSH2 0x208 JUMPI PUSH2 0xFE JUMP JUMPDEST DUP1 PUSH4 0x6FDDE03 EQ PUSH2 0x102 JUMPI DUP1 PUSH4 0x95EA7B3 EQ PUSH2 0x120 JUMPI DUP1 PUSH4 0x18160DDD EQ PUSH2 0x150 JUMPI DUP1 PUSH4 0x23B872DD EQ PUSH2 0x16E JUMPI JUMPDEST PUSH0 DUP1 REVERT JUMPDEST PUSH2 0x10A PUSH2 0x346 JUMP JUMPDEST PUSH1 0x40 MLOAD PUSH2 0x117 SWAP2 SWAP1 PUSH2 0xE4B JUMP JUMPDEST PUSH1 0x40 MLOAD DUP1 SWAP2 SUB SWAP1 RETURN JUMPDEST PUSH2 0x13A PUSH1 0x4 DUP1 CALLDATASIZE SUB DUP2 ADD SWAP1 PUSH2 0x135 SWAP2 SWAP1 PUSH2 0xEFC JUMP JUMPDEST PUSH2 0x3D6 JUMP JUMPDEST PUSH1 0x40 MLOAD PUSH2 0x147 SWAP2 SWAP1 PUSH2 0xF54 JUMP JUMPDEST PUSH1 0x40 MLOAD DUP1 SWAP2 SUB SWAP1 RETURN JUMPDEST PUSH2 0x158 PUSH2 0x3F8 JUMP JUMPDEST PUSH1 0x40 MLOAD PUSH2 0x165 SWAP2 SWAP1 PUSH2 0xF7C JUMP JUMPDEST PUSH1 0x40 MLOAD DUP1 SWAP2 SUB SWAP1 RETURN JUMPDEST PUSH2 0x188 PUSH1 0x4 DUP1 CALLDATASIZE SUB DUP2 ADD SWAP1 PUSH2 0x183 SWAP2 SWAP1 PUSH2 0xF95 JUMP JUMPDEST PUSH2 0x401 JUMP JUMPDEST PUSH1 0x40 MLOAD PUSH2 0x195 SWAP2 SWAP1 PUSH2 0xF54 JUMP JUMPDEST PUSH1 0x40 MLOAD DUP1 SWAP2 SUB SWAP1 RETURN JUMPDEST PUSH2 0x1A6 PUSH2 0x42F JUMP JUMPDEST PUSH1 0x40 MLOAD PUSH2 0x1B3 SWAP2 SWAP1 PUSH2 0x1000 JUMP JUMPDEST PUSH1 0x40 MLOAD DUP1 SWAP2 SUB SWAP1 RETURN JUMPDEST PUSH2 0x1D6 PUSH1 0x4 DUP1 CALLDATASIZE SUB DUP2 ADD SWAP1 PUSH2 0x1D1 SWAP2 SWAP1 PUSH2 0x1019 JUMP JUMPDEST PUSH2 0x437 JUMP JUMPDEST STOP JUMPDEST PUSH2 0x1F2 PUSH1 0x4 DUP1 CALLDATASIZE SUB DUP2 ADD SWAP1 PUSH2 0x1ED SWAP2 SWAP1 PUSH2 0x1019 JUMP JUMPDEST PUSH2 0x467 JUMP JUMPDEST PUSH1 0x40 MLOAD PUSH2 0x1FF SWAP2 SWAP1 PUSH2 0xF7C JUMP JUMPDEST PUSH1 0x40 MLOAD DUP1 SWAP2 SUB SWAP1 RETURN JUMPDEST PUSH2 0x222 PUSH1 0x4 DUP1 CALLDATASIZE SUB DUP2 ADD SWAP1 PUSH2 0x21D SWAP2 SWAP1 PUSH2 0x1044 JUMP JUMPDEST PUSH2 0x46D JUMP JUMPDEST PUSH1 0x40 MLOAD PUSH2 0x22F SWAP2 SWAP1 PUSH2 0xF7C JUMP JUMPDEST PUSH1 0x40 MLOAD DUP1 SWAP2 SUB SWAP1 RETURN JUMPDEST PUSH2 0x240 PUSH2 0x4B2 JUMP JUMPDEST STOP JUMPDEST PUSH2 0x24A PUSH2 0x4C5 JUMP JUMPDEST PUSH1 0x40 MLOAD PUSH2 0x257 SWAP2 SWAP1 PUSH2 0x107E JUMP JUMPDEST PUSH1 0x40 MLOAD DUP1 SWAP2 SUB SWAP1 RETURN JUMPDEST PUSH2 0x27A PUSH1 0x4 DUP1 CALLDATASIZE SUB DUP2 ADD SWAP1 PUSH2 0x275 SWAP2 SWAP1 PUSH2 0x1019 JUMP JUMPDEST PUSH2 0x4ED JUMP JUMPDEST PUSH1 0x40 MLOAD PUSH2 0x287 SWAP2 SWAP1 PUSH2 0xF7C JUMP JUMPDEST PUSH1 0x40 MLOAD DUP1 SWAP2 SUB SWAP1 RETURN JUMPDEST PUSH2 0x298 PUSH2 0x539 JUMP JUMPDEST PUSH1 0x40 MLOAD PUSH2 0x2A5 SWAP2 SWAP1 PUSH2 0xE4B JUMP JUMPDEST PUSH1 0x40 MLOAD DUP1 SWAP2 SUB SWAP1 RETURN JUMPDEST PUSH2 0x2C8 PUSH1 0x4 DUP1 CALLDATASIZE SUB DUP2 ADD SWAP1 PUSH2 0x2C3 SWAP2 SWAP1 PUSH2 0x1019 JUMP JUMPDEST PUSH2 0x5C9 JUMP JUMPDEST STOP JUMPDEST PUSH2 0x2E4 PUSH1 0x4 DUP1 CALLDATASIZE SUB DUP2 ADD SWAP1 PUSH2 0x2DF SWAP2 SWAP1 PUSH2 0xEFC JUMP JUMPDEST PUSH2 0x5CC JUMP JUMPDEST PUSH1 0x40 MLOAD PUSH2 0x2F1 SWAP2 SWAP1 PUSH2 0xF54 JUMP JUMPDEST PUSH1 0x40 MLOAD DUP1 SWAP2 SUB SWAP1 RETURN JUMPDEST PUSH2 0x314 PUSH1 0x4 DUP1 CALLDATASIZE SUB DUP2 ADD SWAP1 PUSH2 0x30F SWAP2 SWAP1 PUSH2 0x1097 JUMP JUMPDEST PUSH2 0x5EE JUMP JUMPDEST PUSH1 0x40 MLOAD PUSH2 0x321 SWAP2 SWAP1 PUSH2 0xF7C JUMP JUMPDEST PUSH1 0x40 MLOAD DUP1 SWAP2 SUB SWAP1 RETURN JUMPDEST PUSH2 0x344 PUSH1 0x4 DUP1 CALLDATASIZE SUB DUP2 ADD SWAP1 PUSH2 0x33F SWAP2 SWAP1 PUSH2 0x1044 JUMP JUMPDEST PUSH2 0x670 JUMP JUMPDEST STOP JUMPDEST PUSH1 0x60 PUSH1 0x3 DUP1 SLOAD PUSH2 0x355 SWAP1 PUSH2 0x1102 JUMP JUMPDEST DUP1 PUSH1 0x1F ADD PUSH1 0x20 DUP1 SWAP2 DIV MUL PUSH1 0x20 ADD PUSH1 0x40 MLOAD SWAP1 DUP2 ADD PUSH1 0x40 MSTORE DUP1 SWAP3 SWAP2 SWAP1 DUP2 DUP2 MSTORE PUSH1 0x20 ADD DUP3 DUP1 SLOAD PUSH2 0x381 SWAP1 PUSH2 0x1102 JUMP JUMPDEST DUP1 ISZERO PUSH2 0x3CC JUMPI DUP1 PUSH1 0x1F LT PUSH2 0x3A3 JUMPI PUSH2 0x100 DUP1 DUP4 SLOAD DIV MUL DUP4 MSTORE SWAP2 PUSH1 0x20 ADD SWAP2 PUSH2 0x3CC JUMP JUMPDEST DUP3 ADD SWAP2 SWAP1 PUSH0 MSTORE PUSH1 0x20 PUSH0 KECCAK256 SWAP1 JUMPDEST DUP2 SLOAD DUP2 MSTORE SWAP1 PUSH1 0x1 ADD SWAP1 PUSH1 0x20 ADD DUP1 DUP4 GT PUSH2 0x3AF JUMPI DUP3 SWAP1 SUB PUSH1 0x1F AND DUP3 ADD SWAP2 JUMPDEST POP POP POP POP POP SWAP1 POP SWAP1 JUMP JUMPDEST PUSH0 DUP1 PUSH2 0x3E0 PUSH2 0x6F4 JUMP JUMPDEST SWAP1 POP PUSH2 0x3ED DUP2 DUP6 DUP6 PUSH2 0x6FB JUMP JUMPDEST PUSH1 0x1 SWAP2 POP POP SWAP3 SWAP2 POP POP JUMP JUMPDEST PUSH0 PUSH1 0x2 SLOAD SWAP1 POP SWAP1 JUMP JUMPDEST PUSH0 DUP1 PUSH2 0x40B PUSH2 0x6F4 JUMP JUMPDEST SWAP1 POP PUSH2 0x418 DUP6 DUP3 DUP6 PUSH2 0x70D JUMP JUMPDEST PUSH2 0x423 DUP6 DUP6 DUP6 PUSH2 0x79F JUMP JUMPDEST PUSH1 0x1 SWAP2 POP POP SWAP4 SWAP3 POP POP POP JUMP JUMPDEST PUSH0 PUSH1 0x12 SWAP1 POP SWAP1 JUMP JUMPDEST PUSH2 0x43F PUSH2 0x88F JUMP JUMPDEST PUSH2 0x447 PUSH2 0x42F JUMP JUMPDEST PUSH1 0xA PUSH2 0x453 SWAP2 SWAP1 PUSH2 0x128E JUMP JUMPDEST DUP2 PUSH2 0x45E SWAP2 SWAP1 PUSH2 0x12D8 JUMP JUMPDEST PUSH1 0x6 DUP2 SWAP1 SSTORE POP POP JUMP JUMPDEST PUSH0 SWAP2 SWAP1 POP JUMP JUMPDEST PUSH0 DUP1 PUSH0 DUP4 PUSH20 0xFFFFFFFFFFFFFFFFFFFFFFFFFFFFFFFFFFFFFFFF AND PUSH20 0xFFFFFFFFFFFFFFFFFFFFFFFFFFFFFFFFFFFFFFFF AND DUP2 MSTORE PUSH1 0x20 ADD SWAP1 DUP2 MSTORE PUSH1 0x20 ADD PUSH0 KECCAK256 SLOAD SWAP1 POP SWAP2 SWAP1 POP JUMP JUMPDEST PUSH2 0x4BA PUSH2 0x88F JUMP JUMPDEST PUSH2 0x4C3 PUSH0 PUSH2 0x916 JUMP JUMPDEST JUMP JUMPDEST PUSH0 PUSH1 0x5 PUSH0 SWAP1 SLOAD SWAP1 PUSH2 0x100 EXP SWAP1 DIV PUSH20 0xFFFFFFFFFFFFFFFFFFFFFFFFFFFFFFFFFFFFFFFF AND SWAP1 POP SWAP1 JUMP JUMPDEST PUSH0 DUP1 PUSH1 0x6 SLOAD PUSH8 0xDE0B6B3A7640000 PUSH2 0x503 PUSH2 0x42F JUMP JUMPDEST PUSH1 0xA PUSH2 0x50F SWAP2 SWAP1 PUSH2 0x128E JUMP JUMPDEST DUP6 PUSH2 0x51A SWAP2 SWAP1 PUSH2 0x12D8 JUMP JUMPDEST PUSH2 0x524 SWAP2 SWAP1 PUSH2 0x12D8 JUMP JUMPDEST PUSH2 0x52E SWAP2 SWAP1 PUSH2 0x1346 JUMP JUMPDEST SWAP1 POP DUP1 SWAP2 POP POP SWAP2 SWAP1 POP JUMP JUMPDEST PUSH1 0x60 PUSH1 0x4 DUP1 SLOAD PUSH2 0x548 SWAP1 PUSH2 0x1102 JUMP JUMPDEST DUP1 PUSH1 0x1F ADD PUSH1 0x20 DUP1 SWAP2 DIV MUL PUSH1 0x20 ADD PUSH1 0x40 MLOAD SWAP1 DUP2 ADD PUSH1 0x40 MSTORE DUP1 SWAP3 SWAP2 SWAP1 DUP2 DUP2 MSTORE PUSH1 0x20 ADD DUP3 DUP1 SLOAD PUSH2 0x574 SWAP1 PUSH2 0x1102 JUMP JUMPDEST DUP1 ISZERO PUSH2 0x5BF JUMPI DUP1 PUSH1 0x1F LT PUSH2 0x596 JUMPI PUSH2 0x100 DUP1 DUP4 SLOAD DIV MUL DUP4 MSTORE SWAP2 PUSH1 0x20 ADD SWAP2 PUSH2 0x5BF JUMP JUMPDEST DUP3 ADD SWAP2 SWAP1 PUSH0 MSTORE PUSH1 0x20 PUSH0 KECCAK256 SWAP1 JUMPDEST DUP2 SLOAD DUP2 MSTORE SWAP1 PUSH1 0x1 ADD SWAP1 PUSH1 0x20 ADD DUP1 DUP4 GT PUSH2 0x5A2 JUMPI DUP3 SWAP1 SUB PUSH1 0x1F AND DUP3 ADD SWAP2 JUMPDEST POP POP POP POP POP SWAP1 POP SWAP1 JUMP JUMPDEST POP JUMP JUMPDEST PUSH0 DUP1 PUSH2 0x5D6 PUSH2 0x6F4 JUMP JUMPDEST SWAP1 POP PUSH2 0x5E3 DUP2 DUP6 DUP6 PUSH2 0x79F JUMP JUMPDEST PUSH1 0x1 SWAP2 POP POP SWAP3 SWAP2 POP POP JUMP JUMPDEST PUSH0 PUSH1 0x1 PUSH0 DUP5 PUSH20 0xFFFFFFFFFFFFFFFFFFFFFFFFFFFFFFFFFFFFFFFF AND PUSH20 0xFFFFFFFFFFFFFFFFFFFFFFFFFFFFFFFFFFFFFFFF AND DUP2 MSTORE PUSH1 0x20 ADD SWAP1 DUP2 MSTORE PUSH1 0x20 ADD PUSH0 KECCAK256 PUSH0 DUP4 PUSH20 0xFFFFFFFFFFFFFFFFFFFFFFFFFFFFFFFFFFFFFFFF AND PUSH20 0xFFFFFFFFFFFFFFFFFFFFFFFFFFFFFFFFFFFFFFFF AND DUP2 MSTORE PUSH1 0x20 ADD SWAP1 DUP2 MSTORE PUSH1 0x20 ADD PUSH0 KECCAK256 SLOAD SWAP1 POP SWAP3 SWAP2 POP POP JUMP JUMPDEST PUSH2 0x678 PUSH2 0x88F JUMP JUMPDEST PUSH0 PUSH20 0xFFFFFFFFFFFFFFFFFFFFFFFFFFFFFFFFFFFFFFFF AND DUP2 PUSH20 0xFFFFFFFFFFFFFFFFFFFFFFFFFFFFFFFFFFFFFFFF AND SUB PUSH2 0x6E8 JUMPI PUSH0 PUSH1 0x40 MLOAD PUSH32 0x1E4FBDF700000000000000000000000000000000000000000000000000000000 DUP2 MSTORE PUSH1 0x4 ADD PUSH2 0x6DF SWAP2 SWAP1 PUSH2 0x107E JUMP JUMPDEST PUSH1 0x40 MLOAD DUP1 SWAP2 SUB SWAP1 REVERT JUMPDEST PUSH2 0x6F1 DUP2 PUSH2 0x916 JUMP JUMPDEST POP JUMP JUMPDEST PUSH0 CALLER SWAP1 POP SWAP1 JUMP JUMPDEST PUSH2 0x708 DUP4 DUP4 DUP4 PUSH1 0x1 PUSH2 0x9D9 JUMP JUMPDEST POP POP POP JUMP JUMPDEST PUSH0 PUSH2 0x718 DUP5 DUP5 PUSH2 0x5EE JUMP JUMPDEST SWAP1 POP PUSH32 0xFFFFFFFFFFFFFFFFFFFFFFFFFFFFFFFFFFFFFFFFFFFFFFFFFFFFFFFFFFFFFFFF DUP2 EQ PUSH2 0x799 JUMPI DUP2 DUP2 LT ISZERO PUSH2 0x78A JUMPI DUP3 DUP2 DUP4 PUSH1 0x40 MLOAD PUSH32 0xFB8F41B200000000000000000000000000000000000000000000000000000000 DUP2 MSTORE PUSH1 0x4 ADD PUSH2 0x781 SWAP4 SWAP3 SWAP2 SWAP1 PUSH2 0x1376 JUMP JUMPDEST PUSH1 0x40 MLOAD DUP1 SWAP2 SUB SWAP1 REVERT JUMPDEST PUSH2 0x798 DUP5 DUP5 DUP5 DUP5 SUB PUSH0 PUSH2 0x9D9 JUMP JUMPDEST JUMPDEST POP POP POP POP JUMP JUMPDEST PUSH0 PUSH20 0xFFFFFFFFFFFFFFFFFFFFFFFFFFFFFFFFFFFFFFFF AND DUP4 PUSH20 0xFFFFFFFFFFFFFFFFFFFFFFFFFFFFFFFFFFFFFFFF AND SUB PUSH2 0x80F JUMPI PUSH0 PUSH1 0x40 MLOAD PUSH32 0x96C6FD1E00000000000000000000000000000000000000000000000000000000 DUP2 MSTORE PUSH1 0x4 ADD PUSH2 0x806 SWAP2 SWAP1 PUSH2 0x107E JUMP JUMPDEST PUSH1 0x40 MLOAD DUP1 SWAP2 SUB SWAP1 REVERT JUMPDEST PUSH0 PUSH20 0xFFFFFFFFFFFFFFFFFFFFFFFFFFFFFFFFFFFFFFFF AND DUP3 PUSH20 0xFFFFFFFFFFFFFFFFFFFFFFFFFFFFFFFFFFFFFFFF AND SUB PUSH2 0x87F JUMPI PUSH0 PUSH1 0x40 MLOAD PUSH32 0xEC442F0500000000000000000000000000000000000000000000000000000000 DUP2 MSTORE PUSH1 0x4 ADD PUSH2 0x876 SWAP2 SWAP1 PUSH2 0x107E JUMP JUMPDEST PUSH1 0x40 MLOAD DUP1 SWAP2 SUB SWAP1 REVERT JUMPDEST PUSH2 0x88A DUP4 DUP4 DUP4 PUSH2 0xBA8 JUMP JUMPDEST POP POP POP JUMP JUMPDEST PUSH2 0x897 PUSH2 0x6F4 JUMP JUMPDEST PUSH20 0xFFFFFFFFFFFFFFFFFFFFFFFFFFFFFFFFFFFFFFFF AND PUSH2 0x8B5 PUSH2 0x4C5 JUMP JUMPDEST PUSH20 0xFFFFFFFFFFFFFFFFFFFFFFFFFFFFFFFFFFFFFFFF AND EQ PUSH2 0x914 JUMPI PUSH2 0x8D8 PUSH2 0x6F4 JUMP JUMPDEST PUSH1 0x40 MLOAD PUSH32 0x118CDAA700000000000000000000000000000000000000000000000000000000 DUP2 MSTORE PUSH1 0x4 ADD PUSH2 0x90B SWAP2 SWAP1 PUSH2 0x107E JUMP JUMPDEST PUSH1 0x40 MLOAD DUP1 SWAP2 SUB SWAP1 REVERT JUMPDEST JUMP JUMPDEST PUSH0 PUSH1 0x5 PUSH0 SWAP1 SLOAD SWAP1 PUSH2 0x100 EXP SWAP1 DIV PUSH20 0xFFFFFFFFFFFFFFFFFFFFFFFFFFFFFFFFFFFFFFFF AND SWAP1 POP DUP2 PUSH1 0x5 PUSH0 PUSH2 0x100 EXP DUP2 SLOAD DUP2 PUSH20 0xFFFFFFFFFFFFFFFFFFFFFFFFFFFFFFFFFFFFFFFF MUL NOT AND SWAP1 DUP4 PUSH20 0xFFFFFFFFFFFFFFFFFFFFFFFFFFFFFFFFFFFFFFFF AND MUL OR SWAP1 SSTORE POP DUP2 PUSH20 0xFFFFFFFFFFFFFFFFFFFFFFFFFFFFFFFFFFFFFFFF AND DUP2 PUSH20 0xFFFFFFFFFFFFFFFFFFFFFFFFFFFFFFFFFFFFFFFF AND PUSH32 0x8BE0079C531659141344CD1FD0A4F28419497F9722A3DAAFE3B4186F6B6457E0 PUSH1 0x40 MLOAD PUSH1 0x40 MLOAD DUP1 SWAP2 SUB SWAP1 LOG3 POP POP JUMP JUMPDEST PUSH0 PUSH20 0xFFFFFFFFFFFFFFFFFFFFFFFFFFFFFFFFFFFFFFFF AND DUP5 PUSH20 0xFFFFFFFFFFFFFFFFFFFFFFFFFFFFFFFFFFFFFFFF AND SUB PUSH2 0xA49 JUMPI PUSH0 PUSH1 0x40 MLOAD PUSH32 0xE602DF0500000000000000000000000000000000000000000000000000000000 DUP2 MSTORE PUSH1 0x4 ADD PUSH2 0xA40 SWAP2 SWAP1 PUSH2 0x107E JUMP JUMPDEST PUSH1 0x40 MLOAD DUP1 SWAP2 SUB SWAP1 REVERT JUMPDEST PUSH0 PUSH20 0xFFFFFFFFFFFFFFFFFFFFFFFFFFFFFFFFFFFFFFFF AND DUP4 PUSH20 0xFFFFFFFFFFFFFFFFFFFFFFFFFFFFFFFFFFFFFFFF AND SUB PUSH2 0xAB9 JUMPI PUSH0 PUSH1 0x40 MLOAD PUSH32 0x94280D6200000000000000000000000000000000000000000000000000000000 DUP2 MSTORE PUSH1 0x4 ADD PUSH2 0xAB0 SWAP2 SWAP1 PUSH2 0x107E JUMP JUMPDEST PUSH1 0x40 MLOAD DUP1 SWAP2 SUB SWAP1 REVERT JUMPDEST DUP2 PUSH1 0x1 PUSH0 DUP7 PUSH20 0xFFFFFFFFFFFFFFFFFFFFFFFFFFFFFFFFFFFFFFFF AND PUSH20 0xFFFFFFFFFFFFFFFFFFFFFFFFFFFFFFFFFFFFFFFF AND DUP2 MSTORE PUSH1 0x20 ADD SWAP1 DUP2 MSTORE PUSH1 0x20 ADD PUSH0 KECCAK256 PUSH0 DUP6 PUSH20 0xFFFFFFFFFFFFFFFFFFFFFFFFFFFFFFFFFFFFFFFF AND PUSH20 0xFFFFFFFFFFFFFFFFFFFFFFFFFFFFFFFFFFFFFFFF AND DUP2 MSTORE PUSH1 0x20 ADD SWAP1 DUP2 MSTORE PUSH1 0x20 ADD PUSH0 KECCAK256 DUP2 SWAP1 SSTORE POP DUP1 ISZERO PUSH2 0xBA2 JUMPI DUP3 PUSH20 0xFFFFFFFFFFFFFFFFFFFFFFFFFFFFFFFFFFFFFFFF AND DUP5 PUSH20 0xFFFFFFFFFFFFFFFFFFFFFFFFFFFFFFFFFFFFFFFF AND PUSH32 0x8C5BE1E5EBEC7D5BD14F71427D1E84F3DD0314C0F7B2291E5B200AC8C7C3B925 DUP5 PUSH1 0x40 MLOAD PUSH2 0xB99 SWAP2 SWAP1 PUSH2 0xF7C JUMP JUMPDEST PUSH1 0x40 MLOAD DUP1 SWAP2 SUB SWAP1 LOG3 JUMPDEST POP POP POP POP JUMP JUMPDEST PUSH0 PUSH20 0xFFFFFFFFFFFFFFFFFFFFFFFFFFFFFFFFFFFFFFFF AND DUP4 PUSH20 0xFFFFFFFFFFFFFFFFFFFFFFFFFFFFFFFFFFFFFFFF AND SUB PUSH2 0xBF8 JUMPI DUP1 PUSH1 0x2 PUSH0 DUP3 DUP3 SLOAD PUSH2 0xBEC SWAP2 SWAP1 PUSH2 0x13AB JUMP JUMPDEST SWAP3 POP POP DUP2 SWAP1 SSTORE POP PUSH2 0xCC6 JUMP JUMPDEST PUSH0 DUP1 PUSH0 DUP6 PUSH20 0xFFFFFFFFFFFFFFFFFFFFFFFFFFFFFFFFFFFFFFFF AND PUSH20 0xFFFFFFFFFFFFFFFFFFFFFFFFFFFFFFFFFFFFFFFF AND DUP2 MSTORE PUSH1 0x20 ADD SWAP1 DUP2 MSTORE PUSH1 0x20 ADD PUSH0 KECCAK256 SLOAD SWAP1 POP DUP2 DUP2 LT ISZERO PUSH2 0xC81 JUMPI DUP4 DUP2 DUP4 PUSH1 0x40 MLOAD PUSH32 0xE450D38C00000000000000000000000000000000000000000000000000000000 DUP2 MSTORE PUSH1 0x4 ADD PUSH2 0xC78 SWAP4 SWAP3 SWAP2 SWAP1 PUSH2 0x1376 JUMP JUMPDEST PUSH1 0x40 MLOAD DUP1 SWAP2 SUB SWAP1 REVERT JUMPDEST DUP2 DUP2 SUB PUSH0 DUP1 DUP7 PUSH20 0xFFFFFFFFFFFFFFFFFFFFFFFFFFFFFFFFFFFFFFFF AND PUSH20 0xFFFFFFFFFFFFFFFFFFFFFFFFFFFFFFFFFFFFFFFF AND DUP2 MSTORE PUSH1 0x20 ADD SWAP1 DUP2 MSTORE PUSH1 0x20 ADD PUSH0 KECCAK256 DUP2 SWAP1 SSTORE POP POP JUMPDEST PUSH0 PUSH20 0xFFFFFFFFFFFFFFFFFFFFFFFFFFFFFFFFFFFFFFFF AND DUP3 PUSH20 0xFFFFFFFFFFFFFFFFFFFFFFFFFFFFFFFFFFFFFFFF AND SUB PUSH2 0xD0D JUMPI DUP1 PUSH1 0x2 PUSH0 DUP3 DUP3 SLOAD SUB SWAP3 POP POP DUP2 SWAP1 SSTORE POP PUSH2 0xD57 JUMP JUMPDEST DUP1 PUSH0 DUP1 DUP5 PUSH20 0xFFFFFFFFFFFFFFFFFFFFFFFFFFFFFFFFFFFFFFFF AND PUSH20 0xFFFFFFFFFFFFFFFFFFFFFFFFFFFFFFFFFFFFFFFF AND DUP2 MSTORE PUSH1 0x20 ADD SWAP1 DUP2 MSTORE PUSH1 0x20 ADD PUSH0 KECCAK256 PUSH0 DUP3 DUP3 SLOAD ADD SWAP3 POP POP DUP2 SWAP1 SSTORE POP JUMPDEST DUP2 PUSH20 0xFFFFFFFFFFFFFFFFFFFFFFFFFFFFFFFFFFFFFFFF AND DUP4 PUSH20 0xFFFFFFFFFFFFFFFFFFFFFFFFFFFFFFFFFFFFFFFF AND PUSH32 0xDDF252AD1BE2C89B69C2B068FC378DAA952BA7F163C4A11628F55A4DF523B3EF DUP4 PUSH1 0x40 MLOAD PUSH2 0xDB4 SWAP2 SWAP1 PUSH2 0xF7C JUMP JUMPDEST PUSH1 0x40 MLOAD DUP1 SWAP2 SUB SWAP1 LOG3 POP POP POP JUMP JUMPDEST PUSH0 DUP2 MLOAD SWAP1 POP SWAP2 SWAP1 POP JUMP JUMPDEST PUSH0 DUP3 DUP3 MSTORE PUSH1 0x20 DUP3 ADD SWAP1 POP SWAP3 SWAP2 POP POP JUMP JUMPDEST PUSH0 JUMPDEST DUP4 DUP2 LT ISZERO PUSH2 0xDF8 JUMPI DUP1 DUP3 ADD MLOAD DUP2 DUP5 ADD MSTORE PUSH1 0x20 DUP2 ADD SWAP1 POP PUSH2 0xDDD JUMP JUMPDEST PUSH0 DUP5 DUP5 ADD MSTORE POP POP POP POP JUMP JUMPDEST PUSH0 PUSH1 0x1F NOT PUSH1 0x1F DUP4 ADD AND SWAP1 POP SWAP2 SWAP1 POP JUMP JUMPDEST PUSH0 PUSH2 0xE1D DUP3 PUSH2 0xDC1 JUMP JUMPDEST PUSH2 0xE27 DUP2 DUP6 PUSH2 0xDCB JUMP JUMPDEST SWAP4 POP PUSH2 0xE37 DUP2 DUP6 PUSH1 0x20 DUP7 ADD PUSH2 0xDDB JUMP JUMPDEST PUSH2 0xE40 DUP2 PUSH2 0xE03 JUMP JUMPDEST DUP5 ADD SWAP2 POP POP SWAP3 SWAP2 POP POP JUMP JUMPDEST PUSH0 PUSH1 0x20 DUP3 ADD SWAP1 POP DUP2 DUP2 SUB PUSH0 DUP4 ADD MSTORE PUSH2 0xE63 DUP2 DUP5 PUSH2 0xE13 JUMP JUMPDEST SWAP1 POP SWAP3 SWAP2 POP POP JUMP JUMPDEST PUSH0 DUP1 REVERT JUMPDEST PUSH0 PUSH20 0xFFFFFFFFFFFFFFFFFFFFFFFFFFFFFFFFFFFFFFFF DUP3 AND SWAP1 POP SWAP2 SWAP1 POP JUMP JUMPDEST PUSH0 PUSH2 0xE98 DUP3 PUSH2 0xE6F JUMP JUMPDEST SWAP1 POP SWAP2 SWAP1 POP JUMP JUMPDEST PUSH2 0xEA8 DUP2 PUSH2 0xE8E JUMP JUMPDEST DUP2 EQ PUSH2 0xEB2 JUMPI PUSH0 DUP1 REVERT JUMPDEST POP JUMP JUMPDEST PUSH0 DUP2 CALLDATALOAD SWAP1 POP PUSH2 0xEC3 DUP2 PUSH2 0xE9F JUMP JUMPDEST SWAP3 SWAP2 POP POP JUMP JUMPDEST PUSH0 DUP2 SWAP1 POP SWAP2 SWAP1 POP JUMP JUMPDEST PUSH2 0xEDB DUP2 PUSH2 0xEC9 JUMP JUMPDEST DUP2 EQ PUSH2 0xEE5 JUMPI PUSH0 DUP1 REVERT JUMPDEST POP JUMP JUMPDEST PUSH0 DUP2 CALLDATALOAD SWAP1 POP PUSH2 0xEF6 DUP2 PUSH2 0xED2 JUMP JUMPDEST SWAP3 SWAP2 POP POP JUMP JUMPDEST PUSH0 DUP1 PUSH1 0x40 DUP4 DUP6 SUB SLT ISZERO PUSH2 0xF12 JUMPI PUSH2 0xF11 PUSH2 0xE6B JUMP JUMPDEST JUMPDEST PUSH0 PUSH2 0xF1F DUP6 DUP3 DUP7 ADD PUSH2 0xEB5 JUMP JUMPDEST SWAP3 POP POP PUSH1 0x20 PUSH2 0xF30 DUP6 DUP3 DUP7 ADD PUSH2 0xEE8 JUMP JUMPDEST SWAP2 POP POP SWAP3 POP SWAP3 SWAP1 POP JUMP JUMPDEST PUSH0 DUP2 ISZERO ISZERO SWAP1 POP SWAP2 SWAP1 POP JUMP JUMPDEST PUSH2 0xF4E DUP2 PUSH2 0xF3A JUMP JUMPDEST DUP3 MSTORE POP POP JUMP JUMPDEST PUSH0 PUSH1 0x20 DUP3 ADD SWAP1 POP PUSH2 0xF67 PUSH0 DUP4 ADD DUP5 PUSH2 0xF45 JUMP JUMPDEST SWAP3 SWAP2 POP POP JUMP JUMPDEST PUSH2 0xF76 DUP2 PUSH2 0xEC9 JUMP JUMPDEST DUP3 MSTORE POP POP JUMP JUMPDEST PUSH0 PUSH1 0x20 DUP3 ADD SWAP1 POP PUSH2 0xF8F PUSH0 DUP4 ADD DUP5 PUSH2 0xF6D JUMP JUMPDEST SWAP3 SWAP2 POP POP JUMP JUMPDEST PUSH0 DUP1 PUSH0 PUSH1 0x60 DUP5 DUP7 SUB SLT ISZERO PUSH2 0xFAC JUMPI PUSH2 0xFAB PUSH2 0xE6B JUMP JUMPDEST JUMPDEST PUSH0 PUSH2 0xFB9 DUP7 DUP3 DUP8 ADD PUSH2 0xEB5 JUMP JUMPDEST SWAP4 POP POP PUSH1 0x20 PUSH2 0xFCA DUP7 DUP3 DUP8 ADD PUSH2 0xEB5 JUMP JUMPDEST SWAP3 POP POP PUSH1 0x40 PUSH2 0xFDB DUP7 DUP3 DUP8 ADD PUSH2 0xEE8 JUMP JUMPDEST SWAP2 POP POP SWAP3 POP SWAP3 POP SWAP3 JUMP JUMPDEST PUSH0 PUSH1 0xFF DUP3 AND SWAP1 POP SWAP2 SWAP1 POP JUMP JUMPDEST PUSH2 0xFFA DUP2 PUSH2 0xFE5 JUMP JUMPDEST DUP3 MSTORE POP POP JUMP JUMPDEST PUSH0 PUSH1 0x20 DUP3 ADD SWAP1 POP PUSH2 0x1013 PUSH0 DUP4 ADD DUP5 PUSH2 0xFF1 JUMP JUMPDEST SWAP3 SWAP2 POP POP JUMP JUMPDEST PUSH0 PUSH1 0x20 DUP3 DUP5 SUB SLT ISZERO PUSH2 0x102E JUMPI PUSH2 0x102D PUSH2 0xE6B JUMP JUMPDEST JUMPDEST PUSH0 PUSH2 0x103B DUP5 DUP3 DUP6 ADD PUSH2 0xEE8 JUMP JUMPDEST SWAP2 POP POP SWAP3 SWAP2 POP POP JUMP JUMPDEST PUSH0 PUSH1 0x20 DUP3 DUP5 SUB SLT ISZERO PUSH2 0x1059 JUMPI PUSH2 0x1058 PUSH2 0xE6B JUMP JUMPDEST JUMPDEST PUSH0 PUSH2 0x1066 DUP5 DUP3 DUP6 ADD PUSH2 0xEB5 JUMP JUMPDEST SWAP2 POP POP SWAP3 SWAP2 POP POP JUMP JUMPDEST PUSH2 0x1078 DUP2 PUSH2 0xE8E JUMP JUMPDEST DUP3 MSTORE POP POP JUMP JUMPDEST PUSH0 PUSH1 0x20 DUP3 ADD SWAP1 POP PUSH2 0x1091 PUSH0 DUP4 ADD DUP5 PUSH2 0x106F JUMP JUMPDEST SWAP3 SWAP2 POP POP JUMP JUMPDEST PUSH0 DUP1 PUSH1 0x40 DUP4 DUP6 SUB SLT ISZERO PUSH2 0x10AD JUMPI PUSH2 0x10AC PUSH2 0xE6B JUMP JUMPDEST JUMPDEST PUSH0 PUSH2 0x10BA DUP6 DUP3 DUP7 ADD PUSH2 0xEB5 JUMP JUMPDEST SWAP3 POP POP PUSH1 0x20 PUSH2 0x10CB DUP6 DUP3 DUP7 ADD PUSH2 0xEB5 JUMP JUMPDEST SWAP2 POP POP SWAP3 POP SWAP3 SWAP1 POP JUMP JUMPDEST PUSH32 0x4E487B7100000000000000000000000000000000000000000000000000000000 PUSH0 MSTORE PUSH1 0x22 PUSH1 0x4 MSTORE PUSH1 0x24 PUSH0 REVERT JUMPDEST PUSH0 PUSH1 0x2 DUP3 DIV SWAP1 POP PUSH1 0x1 DUP3 AND DUP1 PUSH2 0x1119 JUMPI PUSH1 0x7F DUP3 AND SWAP2 POP JUMPDEST PUSH1 0x20 DUP3 LT DUP2 SUB PUSH2 0x112C JUMPI PUSH2 0x112B PUSH2 0x10D5 JUMP JUMPDEST JUMPDEST POP SWAP2 SWAP1 POP JUMP JUMPDEST PUSH32 0x4E487B7100000000000000000000000000000000000000000000000000000000 PUSH0 MSTORE PUSH1 0x11 PUSH1 0x4 MSTORE PUSH1 0x24 PUSH0 REVERT JUMPDEST PUSH0 DUP2 PUSH1 0x1 SHR SWAP1 POP SWAP2 SWAP1 POP JUMP JUMPDEST PUSH0 DUP1 DUP3 SWAP2 POP DUP4 SWAP1 POP JUMPDEST PUSH1 0x1 DUP6 GT ISZERO PUSH2 0x11B4 JUMPI DUP1 DUP7 DIV DUP2 GT ISZERO PUSH2 0x1190 JUMPI PUSH2 0x118F PUSH2 0x1132 JUMP JUMPDEST JUMPDEST PUSH1 0x1 DUP6 AND ISZERO PUSH2 0x119F JUMPI DUP1 DUP3 MUL SWAP2 POP JUMPDEST DUP1 DUP2 MUL SWAP1 POP PUSH2 0x11AD DUP6 PUSH2 0x115F JUMP JUMPDEST SWAP5 POP PUSH2 0x1174 JUMP JUMPDEST SWAP5 POP SWAP5 SWAP3 POP POP POP JUMP JUMPDEST PUSH0 DUP3 PUSH2 0x11CC JUMPI PUSH1 0x1 SWAP1 POP PUSH2 0x1287 JUMP JUMPDEST DUP2 PUSH2 0x11D9 JUMPI PUSH0 SWAP1 POP PUSH2 0x1287 JUMP JUMPDEST DUP2 PUSH1 0x1 DUP2 EQ PUSH2 0x11EF JUMPI PUSH1 0x2 DUP2 EQ PUSH2 0x11F9 JUMPI PUSH2 0x1228 JUMP JUMPDEST PUSH1 0x1 SWAP2 POP POP PUSH2 0x1287 JUMP JUMPDEST PUSH1 0xFF DUP5 GT ISZERO PUSH2 0x120B JUMPI PUSH2 0x120A PUSH2 0x1132 JUMP JUMPDEST JUMPDEST DUP4 PUSH1 0x2 EXP SWAP2 POP DUP5 DUP3 GT ISZERO PUSH2 0x1222 JUMPI PUSH2 0x1221 PUSH2 0x1132 JUMP JUMPDEST JUMPDEST POP PUSH2 0x1287 JUMP JUMPDEST POP PUSH1 0x20 DUP4 LT PUSH2 0x133 DUP4 LT AND PUSH1 0x4E DUP5 LT PUSH1 0xB DUP5 LT AND OR ISZERO PUSH2 0x125D JUMPI DUP3 DUP3 EXP SWAP1 POP DUP4 DUP2 GT ISZERO PUSH2 0x1258 JUMPI PUSH2 0x1257 PUSH2 0x1132 JUMP JUMPDEST JUMPDEST PUSH2 0x1287 JUMP JUMPDEST PUSH2 0x126A DUP5 DUP5 DUP5 PUSH1 0x1 PUSH2 0x116B JUMP JUMPDEST SWAP3 POP SWAP1 POP DUP2 DUP5 DIV DUP2 GT ISZERO PUSH2 0x1281 JUMPI PUSH2 0x1280 PUSH2 0x1132 JUMP JUMPDEST JUMPDEST DUP2 DUP2 MUL SWAP1 POP JUMPDEST SWAP4 SWAP3 POP POP POP JUMP JUMPDEST PUSH0 PUSH2 0x1298 DUP3 PUSH2 0xEC9 JUMP JUMPDEST SWAP2 POP PUSH2 0x12A3 DUP4 PUSH2 0xFE5 JUMP JUMPDEST SWAP3 POP PUSH2 0x12D0 PUSH32 0xFFFFFFFFFFFFFFFFFFFFFFFFFFFFFFFFFFFFFFFFFFFFFFFFFFFFFFFFFFFFFFFF DUP5 DUP5 PUSH2 0x11BD JUMP JUMPDEST SWAP1 POP SWAP3 SWAP2 POP POP JUMP JUMPDEST PUSH0 PUSH2 0x12E2 DUP3 PUSH2 0xEC9 JUMP JUMPDEST SWAP2 POP PUSH2 0x12ED DUP4 PUSH2 0xEC9 JUMP JUMPDEST SWAP3 POP DUP3 DUP3 MUL PUSH2 0x12FB DUP2 PUSH2 0xEC9 JUMP JUMPDEST SWAP2 POP DUP3 DUP3 DIV DUP5 EQ DUP4 ISZERO OR PUSH2 0x1312 JUMPI PUSH2 0x1311 PUSH2 0x1132 JUMP JUMPDEST JUMPDEST POP SWAP3 SWAP2 POP POP JUMP JUMPDEST PUSH32 0x4E487B7100000000000000000000000000000000000000000000000000000000 PUSH0 MSTORE PUSH1 0x12 PUSH1 0x4 MSTORE PUSH1 0x24 PUSH0 REVERT JUMPDEST PUSH0 PUSH2 0x1350 DUP3 PUSH2 0xEC9 JUMP JUMPDEST SWAP2 POP PUSH2 0x135B DUP4 PUSH2 0xEC9 JUMP JUMPDEST SWAP3 POP DUP3 PUSH2 0x136B JUMPI PUSH2 0x136A PUSH2 0x1319 JUMP JUMPDEST JUMPDEST DUP3 DUP3 DIV SWAP1 POP SWAP3 SWAP2 POP POP JUMP JUMPDEST PUSH0 PUSH1 0x60 DUP3 ADD SWAP1 POP PUSH2 0x1389 PUSH0 DUP4 ADD DUP7 PUSH2 0x106F JUMP JUMPDEST PUSH2 0x1396 PUSH1 0x20 DUP4 ADD DUP6 PUSH2 0xF6D JUMP JUMPDEST PUSH2 0x13A3 PUSH1 0x40 DUP4 ADD DUP5 PUSH2 0xF6D JUMP JUMPDEST SWAP5 SWAP4 POP POP POP POP JUMP JUMPDEST PUSH0 PUSH2 0x13B5 DUP3 PUSH2 0xEC9 JUMP JUMPDEST SWAP2 POP PUSH2 0x13C0 DUP4 PUSH2 0xEC9 JUMP JUMPDEST SWAP3 POP DUP3 DUP3 ADD SWAP1 POP DUP1 DUP3 GT ISZERO PUSH2 0x13D8 JUMPI PUSH2 0x13D7 PUSH2 0x1132 JUMP JUMPDEST JUMPDEST SWAP3 SWAP2 POP POP JUMP INVALID LOG2 PUSH5 0x6970667358 0x22 SLT KECCAK256 DUP4 RETURNDATACOPY DELEGATECALL SWAP6 0xB1 GASPRICE BALANCE DUP6 CALLVALUE SAR 0xAB 0xCD ISZERO 0xCE SWAP4 0x4F CALLVALUE GAS 0xD9 0xC3 JUMP SLT 0x1E 0xE6 0x26 0xFB DUP16 0xD2 0xC3 0xD 0xBB MSTORE8 PUSH5 0x736F6C6343 STOP ADDMOD AND STOP CALLER LOG2 PUSH5 0x6970667358 0x22 SLT KECCAK256 GASLIMIT SELFDESTRUCT 0xC0 CODESIZE 0xDA 0xBB PUSH3 0x2E329C PUSH32 0x722B066ACFFFF7B822606EA1CD5DEB79E25DAFCAEF64736F6C63430008160033 "
				},
				"gasEstimates": {
					"creation": {
						"codeDepositCost": "2154600",
						"executionCost": "24397",
						"totalCost": "2178997"
					},
					"external": {
						"counterId()": "2424",
						"createMemecoin(string,string,uint256,address)": "infinite",
						"memeIdentifcation(uint256)": "infinite"
					}
				},
				"methodIdentifiers": {
					"counterId()": "d0a5e51e",
					"createMemecoin(string,string,uint256,address)": "169aaad6",
					"memeIdentifcation(uint256)": "f023664b"
				}
			},
			"storageLayout": {
				"storage": [
					{
						"astId": 1036,
						"contract": "contract/memecoin.sol:memefactory",
						"label": "counterId",
						"offset": 0,
						"slot": "0",
						"type": "t_uint256"
					},
					{
						"astId": 1041,
						"contract": "contract/memecoin.sol:memefactory",
						"label": "memeIdentifcation",
						"offset": 0,
						"slot": "1",
						"type": "t_mapping(t_uint256,t_struct(memeId)1033_storage)"
					}
				],
				"types": {
					"t_address": {
						"encoding": "inplace",
						"label": "address",
						"numberOfBytes": "20"
					},
					"t_mapping(t_uint256,t_struct(memeId)1033_storage)": {
						"encoding": "mapping",
						"key": "t_uint256",
						"label": "mapping(uint256 => struct memefactory.memeId)",
						"numberOfBytes": "32",
						"value": "t_struct(memeId)1033_storage"
					},
					"t_string_storage": {
						"encoding": "bytes",
						"label": "string",
						"numberOfBytes": "32"
					},
					"t_struct(memeId)1033_storage": {
						"encoding": "inplace",
						"label": "struct memefactory.memeId",
						"members": [
							{
								"astId": 1030,
								"contract": "contract/memecoin.sol:memefactory",
								"label": "memeAdrress",
								"offset": 0,
								"slot": "0",
								"type": "t_address"
							},
							{
								"astId": 1032,
								"contract": "contract/memecoin.sol:memefactory",
								"label": "name",
								"offset": 0,
								"slot": "1",
								"type": "t_string_storage"
							}
						],
						"numberOfBytes": "64"
					},
					"t_uint256": {
						"encoding": "inplace",
						"label": "uint256",
						"numberOfBytes": "32"
					}
				}
			},
			"userdoc": {
				"kind": "user",
				"methods": {},
				"version": 1
			}
		}
	}
}